00                       20121025123523PREVIMONT                     RICARDO ELETRO                                                                                      64282601004457     99958     ATRE - CENTRAL DE MONTAGENS RE                                                                                                                                                                                                                                                                                                                                                                                                                                                                                                                                                                                                                                                                                                                                                                                                                                                                                                                                                                                                                                                                                                                                                                                                                    
01                              16036     87  259 9017161                                                                                   12315725924102012                                                              00074829530510ELAINE SANTOS OLIVEIRA                                                                              SANTOS DUMONT 16 CD JOKEI CLUBE                                                                     CENTRO                        LAURO DE FREITAS                                  BA                    42700000                                                                                                                                                                                                                                                          OM0000007133700069                                                                                                                                                                                                                                                                                                                                                                                                                                                                                                                                                                                                             
02                                         587082                        16036     133021    G.ROUPA ARAPLAC AMAZONA 6P/6G TB/BR                                                                 1                      30102012                                                                                                                                                                                                                                                          000000000000000000000000000000000000000100                                                                                                                                                                                                                                                                                                                                                                                                                                                                                                                                                                                                                                                                                                                                                                                                                                                                                                                    
99                       000004                                                                                                                                                                                                                                                                                                                                                                                                                                                                                                                                                                                                                                                                                                                                                                                                                                                                                                                                                                                                                                                                                                                                                                                                                                                                                                                                                                                                                        