00                       20121103100647PREVIMONT                     RICARDO ELETRO                                                                                      64282601004457     99958     ATRE - CENTRAL DE MONTAGENS RE                                                                                                                                                                                                                                                                                                                                                                                                                                                                                                                                                                                                                                                                                                                                                                                                                                                                                                                                                                                                                                                                                                                                                                                                                    
01                              30054     147 259 9021155                                                                                   12973925902112012                                                              00002469099510JOSE DA CRUZ ALMEIDA                                                                                MANOEL CABECEIRA 98 ANDAR 1                                                                         PERNAMBUES                    SALVADOR                                          BA                    41120560                                                                                                                                                                                                                                                          OM0000007134955017SEM APANHA 34506244 34502571 79 91431305 INDO PELA GRANDE BHIA DESCENDO AVENIDA SAO PAULO PROC CASA DE HELENA                                                                                                                                                                                                                                                                                                                                                                                                                                                                                                
01                              13412     148 259 9050133                                                                                   12973325902112012                                                              00061667560549TANIA REGINA CERQUEIRA SANTOS                                                                       DEUS MENINO 32 CASA                                                                                 ARENOSO                       SALVADOR                                          BA                    41211511                                                                                                                                                                                                                                                          OM0000000000000000SEM APANHA REF BAR DE D MARIA PROX A RUA ESTRELA DALVA TEL 32313437 PROC TANIA                                                                                                                                                                                                                                                                                                                                                                                                                                                                                                                               
01                              6358      149 259 9050043                                                                                   12973425902112012                                                              00039591387504ALOISIO ESQUIVEL DA CONCEICAO                                                                       ULYSSES GUIMARAES 10                                                                                SUSSUARANA                    SALVADOR                                          BA                    41219400                                                                                                                                                                                                                                                          OM000000000000000071 87266175 NA ENTRADA DA LOJA DE BICRECLETA EM FRENTE AO MERCADO SUSUCA PROC POR ALOISIO                                                                                                                                                                                                                                                                                                                                                                                                                                                                                                                    
01                              35330     90  259 9021188                                                                                   12973525902112012                                                              00077055292549JUCELIA BARRETO DOS SANTOS                                                                          DO SABOEIRO 38 E                                                                                    SABOEIRO                      SALVADOR                                          BA                    41180515                                                                                                                                                                                                                                                          OM0000007132426036TL 8143 1879 EM FRENTE A ESCOLINHA CACHOEIRA DO SABER PROC MANO DO GATO                                                                                                                                                                                                                                                                                                                                                                                                                                                                                                                                      
01                              13448     148 259 9050133                                                                                   12974525902112012                                                              00079673279500GILMARIA DE ALMEIDA BISPO                                                                           SANTO ANTONIO 11 E                                                                                  ENGOMADEIRA                   SALVADOR                                          BA                    41200320                                                                                                                                                                                                                                                          OM0000007134626921SEM APANHA TEL 34626925 REF BAR DE GILDO PROC BARRETO OU SAPO                                                                                                                                                                                                                                                                                                                                                                                                                                                                                                                                                
01                              13423     148 259 9057796                                                                                   12971425902112012                                                              00080835295591SANDRA PAULA C DE JESUS                                                                             GABRIEL MONTEIRO DE CASTRO 119 A                                                                    ARENOSO                       SALVADOR                                          BA                    41211029                                                                                                                                                                                                                                                          OM0000000000000000TEL 7187116412 OU 87689969 ENT SABADO ENT NA RUA DO ANTIGO MAT MONTE CASA PROX A IGREJA CATOLICA BOM PASTO R PROC GLEDS                                                                                                                                                                                                                                                                                                                                                                                                                                                                                      
01                              35236     90  259 9021190                                                                                   12971525902112012                                                              00053831969515LICIA DAMIANA DOS SANTOS                                                                            DA RODOVIARIA 226 SARAMANDAIA                                                                       PERNAMBUES                    SALVADOR                                          BA                    41100575                                                                                                                                                                                                                                                          OM000000718627156786271567 REF EM FRENTE AO BAR DE SR VAL PROC LICIA                                                                                                                                                                                                                                                                                                                                                                                                                                                                                                                                                           
01                              15707     96  259 9021287                                                                                   12971825902112012                                                              00078759528591MAURICIO C.DE SOUZA                                                                                 CRISTIANE 156 E                                                                                     TANCREDO NEVES                SALVADOR                                          BA                    41210040                                                                                                                                                                                                                                                          OM0000000000000000REF PROX A ESCOLA SENHOR DOS PASSOS PROC MAURICIO OU ANA FAVOR LIGAR PARA CLIENTE TEL 88341843 88260177                                                                                                                                                                                                                                                                                                                                                                                                                                                                                                      
01                              24678     88  259 9020566                                                                                   12971225902112012                                                              00025167235553MARIA HELENA RIBEIRO DE ASSSIS                                                                      RUA SILVEIRA MARTINS 304 BL 182 P                                                                   CABULA                        SALVADOR                                          BA                    41150190                                                                                                                                                                                                                                                          OM0000000000000000SEM APANHA 88935637 87587187 PX A ESCOLA E CURSO FORTUNATO PROC PRISCILA OBS ENTREGA                                                                                                                                                                                                                                                                                                                                                                                                                                                                                                                         
01                              35382     90  259 9018012                                                                                   12971925902112012                                                              00047767790568NATIVIDADE MESSIA DE ARAUJO                                                                         TENENTE VALMIR ALCANTARA 0 102 BL 182 P                                                             CABULA                        SALVADOR                                          BA                    41150520                                                                                                                                                                                                                                                          OM0000000000000000TEL 71 9190 8027 REF PX A BORRACHARIA E ENTRE CURSO FORTUNATO                                                                                                                                                                                                                                                                                                                                                                                                                                                                                                                                                
01                              24550     88  259 121383                                                                                    12972925902112012                                                              00034880755591ANTONIA PEREIRA SANTOS                                                                              GILSON FONSECA 214 214 FUNDO                                                                        TANCREDO NEVES                SALVADOR                                          BA                    41205023                                                                                                                                                                                                                                                          OM0000000000000000TROCA COM APANHA PROX AO BAR DE LAU PROX AO JOGO DO BICHO PROC LUCIDALVA                                                                                                                                                                                                                                                                                                                                                                                                                                                                                                                                     
01                              35235     90  259 9018012                                                                                   12970825902112012                                                              00062948822572MARIA NEUZA ALVES DO CARMO                                                                          DA HORTA 6 SARAMANDAIA                                                                              PERNAMBUES                    SALVADOR                                          BA                    41100042                                                                                                                                                                                                                                                          OM0000000000000000TEL 34609424 REF BAR DE JORGE   PROC TIDINHA OU MARLUZI                                                                                                                                                                                                                                                                                                                                                                                                                                                                                                                                                      
01                              15702     96  259 9021287                                                                                   12973225902112012                                                              00078759528591MAURICIO C.DE SOUZA                                                                                 CRISTIANE 156 E                                                                                     TANCREDO NEVES                SALVADOR                                          BA                    41210040                                                                                                                                                                                                                                                          OM0000000000000000REF PROX A ESCOLA SENHOR DOS PASSOS PROC MAURICIO OU ANA FAVOR LIGAR PARA CLIENTE TEL 88341843 88260177                                                                                                                                                                                                                                                                                                                                                                                                                                                                                                      
01                              27949     147 259 9021192                                                                                   12970725902112012                                                              00054338832568JEAN GEORGE SOUSA CHAGAS                                                                            R SILVEIRA MARTINS 95 1406 EDF MAXIMO RESD CLUB TORRE FAROL DA                                      CABULA                        SALVADOR                                          BA                    41150000                                                                                                                                                                                                                                                          OM0000007141019509SEM APANHA (71)41019509 - (71)99438841 34817519 TORRE FAROL DA BARRA EM FRENTE COLEGIO NOSSA SENHORA RESGATE PROC LEIDE                                                                                                                                                                                                                                                                                                                                                                                                                                                                                      
01                              16467     220 259 9028545                                                                                   12972625902112012                                                              00004808489554NAYARA BRITO DE ALMEIDA                                                                             PERNAMBUCO 61 CASA 61X                                                                              TANCREDO NEVES                SALVADOR                                          BA                    41205140                                                                                                                                                                                                                                                          OM0000000000000000TEL 81476681 OU 82877706 POONT REF EM FRENTE MAT DE CONT MANGUEIRAO                                                                                                                                                                                                                                                                                                                                                                                                                                                                                                                                          
01                              29900     147 259 9025445                                                                                   12972825902112012                                                              00002433162599ARSENIO MOREIRA DE LIMA JUNIOR                                                                      AV EDGARD SANTOS 102 PRIMEIRO ANDAR                                                                 NARANDIBA                     SALVADOR                                          BA                    41192005                                                                                                                                                                                                                                                          OM0000000000000000CEL - (71)91911873 FIM DE LINHA DE NARANDIBA PROX A CESTA DO POVO                                                                                                                                                                                                                                                                                                                                                                                                                                                                                                                                            
01                              13413     148 259 9029147                                                                                   12972725902112012                                                              00047505397591ANA LUCIA SANTOS OLIVEIRA                                                                           AUGUSTO DE CARVALHO 10 CASA B                                                                       ARENOSO                       SALVADOR                                          BA                    41211020                                                                                                                                                                                                                                                          OM0000007133627488TEL 33627488  PROX AO BAR DO BORRACHA PROC ANA OU CAIO                                                                                                                                                                                                                                                                                                                                                                                                                                                                                                                                                       
02                                         592563                        30054     88609     MESA MODECOR LUMA 4C T.VID BR                                                                       1                      07112012                                                                                                                                                                                                                                                          000000000000000000000000000000000000000100                                                                                                                                                                                                                                                                                                                                                                                                                                                                                                                                                                                                                                                                                                                                                                                                                                                                                                                    
02                                         592564                        13412     40001     COZ ITATIAIA ANITA BR                                                                               1                      07112012                                                                                                                                                                                                                                                          000000000000000000000000000000000000000100                                                                                                                                                                                                                                                                                                                                                                                                                                                                                                                                                                                                                                                                                                                                                                                                                                                                                                                    
02                                         592565                        6358      155462    G.ROUPA EURO 3P RUBI ESP PL/PT/PL                                                                   1                      07112012                                                                                                                                                                                                                                                          000000000000000000000000000000000000000100                                                                                                                                                                                                                                                                                                                                                                                                                                                                                                                                                                                                                                                                                                                                                                                                                                                                                                                    
02                                         592566                        35330     158014    G.ROUPA ARAPLAC AMAZONA 6P/6G TB/GRAF                                                               1                      07112012                                                                                                                                                                                                                                                          000000000000000000000000000000000000000100                                                                                                                                                                                                                                                                                                                                                                                                                                                                                                                                                                                                                                                                                                                                                                                                                                                                                                                    
02                                         592567                        13448     156240    CAMA BIBOX GELIUS BOLINHA BR/PINK/AZ                                                                1                      07112012                                                                                                                                                                                                                                                          000000000000000000000000000000000000000100                                                                                                                                                                                                                                                                                                                                                                                                                                                                                                                                                                                                                                                                                                                                                                                                                                                                                                                    
02                                         592568                        13423     88611     MESA MODECOR LUMA 6C T.VID BR                                                                       1                      07112012                                                                                                                                                                                                                                                          000000000000000000000000000000000000000100                                                                                                                                                                                                                                                                                                                                                                                                                                                                                                                                                                                                                                                                                                                                                                                                                                                                                                                    
02                                         592569                        35236     131637    COMODA ARAPLAC BRASIL 1P 4G TB/BR                                                                   1                      07112012                                                                                                                                                                                                                                                          000000000000000000000000000000000000000100                                                                                                                                                                                                                                                                                                                                                                                                                                                                                                                                                                                                                                                                                                                                                                                                                                                                                                                    
02                                         592570                        15707     140393    G.ROUPA ARAPLAC 8P AUSTRIA TB/BR                                                                    1                      07112012                                                                                                                                                                                                                                                          000000000000000000000000000000000000000100                                                                                                                                                                                                                                                                                                                                                                                                                                                                                                                                                                                                                                                                                                                                                                                                                                                                                                                    
02                                         592571                        24678     133021    G.ROUPA ARAPLAC AMAZONA 6P/6G TB/BR                                                                 1                      07112012                                                                                                                                                                                                                                                          000000000000000000000000000000000000000100                                                                                                                                                                                                                                                                                                                                                                                                                                                                                                                                                                                                                                                                                                                                                                                                                                                                                                                    
02                                         592572                        35382     139501    ARM.ITAT.3P PREMIUM BR                                                                              1                      07112012                                                                                                                                                                                                                                                          000000000000000000000000000000000000000100                                                                                                                                                                                                                                                                                                                                                                                                                                                                                                                                                                                                                                                                                                                                                                                                                                                                                                                    
02                                         592573                        24550     140392    G.ROUPA ARAPLAC 8P AUSTRIA TB/AMEN                                                                  1                      07112012                                                                                                                                                                                                                                                          000000000000000000000000000000000000000100                                                                                                                                                                                                                                                                                                                                                                                                                                                                                                                                                                                                                                                                                                                                                                                                                                                                                                                    
02                                         592574                        35235     134893    COZ ITATIAIA CRIATIVA MAX II 2V BR                                                                  1                      07112012                                                                                                                                                                                                                                                          000000000000000000000000000000000000000100                                                                                                                                                                                                                                                                                                                                                                                                                                                                                                                                                                                                                                                                                                                                                                                                                                                                                                                    
02                                         592575                        15702     138035    G.ROUPA ARAPLAC 10P ATL PLUS TB/AM                                                                  1                      07112012                                                                                                                                                                                                                                                          000000000000000000000000000000000000000200                                                                                                                                                                                                                                                                                                                                                                                                                                                                                                                                                                                                                                                                                                                                                                                                                                                                                                                    
02                                         592576                        27949     140096    G.ROUPA BERGAMO 5P LISBOA BR/PTO                                                                    1              2001101607112012                                                                                                                                                                                                                                                          000000000000000000000000000000000000000200                                                                                                                                                                                                                                                                                                                                                                                                                                                                                                                                                                                                                                                                                                                                                                                                                                                                                                                    
02                                         592577                        16467     135031    G.ROUPA GELIUS INOVACAO 3P BR/PTO                                                                   1                      07112012                                                                                                                                                                                                                                                          000000000000000000000000000000000000000100                                                                                                                                                                                                                                                                                                                                                                                                                                                                                                                                                                                                                                                                                                                                                                                                                                                                                                                    
02                                         592578                        29900     140096    G.ROUPA BERGAMO 5P LISBOA BR/PTO                                                                    1              2001103207112012                                                                                                                                                                                                                                                          000000000000000000000000000000000000000200                                                                                                                                                                                                                                                                                                                                                                                                                                                                                                                                                                                                                                                                                                                                                                                                                                                                                                                    
02                                         592579                        13413     140392    G.ROUPA ARAPLAC 8P AUSTRIA TB/AMEN                                                                  1                      07112012                                                                                                                                                                                                                                                          000000000000000000000000000000000000000100                                                                                                                                                                                                                                                                                                                                                                                                                                                                                                                                                                                                                                                                                                                                                                                                                                                                                                                    
99                       000036                                                                                                                                                                                                                                                                                                                                                                                                                                                                                                                                                                                                                                                                                                                                                                                                                                                                                                                                                                                                                                                                                                                                                                                                                                                                                                                                                                                                                        