00                       20121110085318PREVIMONT                     RICARDO ELETRO                                                                                      64282601004457     99958     ATRE - CENTRAL DE MONTAGENS RE                                                                                                                                                                                                                                                                                                                                                                                                                                                                                                                                                                                                                                                                                                                                                                                                                                                                                                                                                                                                                                                                                                                                                                                                                    
01                              13854     148 259 9017217                                                                                   13466625910112012                                                              00003460024518ALEXANDRE  ALMEIDA                                                                                  ARVOREDO 301 BL 226                                                                                 TANCREDO NEVES                SALVADOR                                          BA                    41207000                                                                                                                                                                                                                                                          OM0000007134941807T 71 34941807 82758070 REF DEPOIS DA QUADRA EDFICIO INRADIANTE PROC TAMARA                                                                                                                                                                                                                                                                                                                                                                                                                                                                                                                                   
01                              31167     147 259 9021192                                                                                   13466325910112012                                                              00079068677500MARIA ESTER DOS SANTOS MONTEIRO                                                                     MARINALVA GONZALEZ 176                                                                              SUSSUARANA                    SALVADOR                                          BA                    41213120                                                                                                                                                                                                                                                          OM000000000000000071)33061795 - (71)91385208 ENTRADA DA RUA FICA EM FRENTE ASSEMBLEIA DE DEUS PROC CREUSA OU ESTER                                                                                                                                                                                                                                                                                                                                                                                                                                                                                                             
01                              36384     90  259 9021188                                                                                   13466425910112012                                                              00080289320534IRIS PAIM GONCALVES DE SOUZA                                                                        R TEODULO ALBUQUERQUE 0 002 BLOCO 228 TEREO                                                         CABULA VI                     SALVADOR                                          BA                    41181010                                                                                                                                                                                                                                                          OM00000000000000009126 3542 FINAL DE LINHA 1 ESQUERDA DEPOIS A DIREITA PREDIO 2 ESQUERDA AMARELO PROC YGOR                                                                                                                                                                                                                                                                                                                                                                                                                                                                                                                     
01                              14954     111 259 9050254                                                                                   13474525910112012                                                              00008987092534FRANCISCO CALEIRO COSTA                                                                             PAULISTA 15 E                                                                                       CALABETAO                     SALVADOR                                          BA                    41227025                                                                                                                                                                                                                                                          OM0000000000000000PROX AO BAR DE MARCARAO OU DIDI PROC ZANZA TEL 83307401 86825594                                                                                                                                                                                                                                                                                                                                                                                                                                                                                                                                             
01                              36385     90  259 9021175                                                                                   13466725910112012                                                              00001101786531MIRIM FLORA PASSOS GOMES                                                                            SEBASTIAO MASCARENHAS 0 33 E                                                                        MATA ESCURA                   SALVADOR                                          BA                    41219085                                                                                                                                                                                                                                                          OM000000713306248233062482 CL 92053217 REF CASA FICA QUASE EM FRENTE AO DEP DE POSTE DA MOREL NO LARGO PROCURAR MIRIAN  CLINETE CIENTE DA                                                                                                                                                                                                                                                                                                                                                                                                                                                                                      
01                              10318     89  259 9055430                                                                                   13473225910112012                                                              00079086560563ANDREA LIMA ROCHA                                                                                   ESTACIO DE SA 160                                                                                   CAMPINAS DE PIRAJA            SALVADOR                                          BA                    41275210                                                                                                                                                                                                                                                          OM0000007133917187A TERCEIRA CASA DEPOIS DA IGREJA ASSEMBLEIA DE DEUS TEL 33917187 88106344 PROC MINHO OU ANINHA                                                                                                                                                                                                                                                                                                                                                                                                                                                                                                               
01                              31176     147 259 9020501                                                                                   13467725910112012                                                              00008379793587DULCE DE B AGUIAR                                                                                   NOSSA SENHORA DA PAZ 26 TEL 99320702 OU 34619948                                                    NARANDIBA                     SALVADOR                                          BA                    41192275                                                                                                                                                                                                                                                          OM0000007133554279TEL 34619948 ANGELA OU 99320702 PONTO DE REF ATRAS DO HOSP.ROBERTO SANTOS PROX AO BAR DO ROQUE P/ANGELA                                                                                                                                                                                                                                                                                                                                                                                                                                                                                                      
01                              16354     96  259 9021265                                                                                   13467825910112012                                                              00003954434580RAFAELA DOS ANJOS SANTOS                                                                            JARDIM OLIVEIRA 92 LO NA ENTRADA  E BAR JONAS                                                       ENGOMADEIRA                   SALVADOR                                          BA                    41200100                                                                                                                                                                                                                                                          OM0000000000000000AO LADO DO BAR DE CHICAO DESC PROC TAILANE TL 86548519 E 87073484                                                                                                                                                                                                                                                                                                                                                                                                                                                                                                                                            
01                              15090     92  259 9050174                                                                                   13473525910112012                                                              00067698514587MARILUCIA FARIAS FERREIRA                                                                           DA LADEIRA DAS PITANGUEIRAS 14                                                                      FAZENDA GRANDE DO RETIRO      SALVADOR                                          BA                    40353527                                                                                                                                                                                                                                                          OM0000007132591526                                                                                                                                                                                                                                                                                                                                                                                                                                                                                                                                                                                                             
01                              36453     90  259 9018012                                                                                   13472525910112012                                                              00045834202500WILSON NUNES RIBEIRO                                                                                ORQUIDEAS DE PIRAJA 27 QD B CD RESIDENCIAL VISTA DA BAHIA                                           PIRAJA                        SALVADOR                                          BA                    41297310                                                                                                                                                                                                                                                          OM0000007132466504TEL 71 8658 1192 REF RUA VELHA ANTIGO MATADOURO DE PIRAJA  PROC ANA PAULA                                                                                                                                                                                                                                                                                                                                                                                                                                                                                                                                    
01                              25529     88  259 9020825                                                                                   13461225910112012                                                              00093110448572NORMA ALVES DA SILVA                                                                                WALDEMAR FALCAO 59 E                                                                                BROTAS                        SALVADOR                                          BA                    40285890                                                                                                                                                                                                                                                          OM000000000000000087049532 87179755 ANTESDA COCA COLA DA VASCO DA GAMA PROX A BACALHAL MOTORS PROX ALEX OU DEMERVAL                                                                                                                                                                                                                                                                                                                                                                                                                                                                                                            
01                              36453     90  259 9018012                                                                                   13472325910112012                                                              00045834202500WILSON NUNES RIBEIRO                                                                                ORQUIDEAS DE PIRAJA 27 QD B CD RESIDENCIAL VISTA DA BAHIA                                           PIRAJA                        SALVADOR                                          BA                    41297310                                                                                                                                                                                                                                                          OM0000007132466504TEL 71 8658 1192 REF RUA VELHA ANTIGO MATADOURO DE PIRAJA  PROC ANA PAULA                                                                                                                                                                                                                                                                                                                                                                                                                                                                                                                                    
01                              13181     101 259 9057492                                                                                   13460825910112012                                                              00001707200394JAILTON DOS SANTOS SILVA                                                                            BELA VISTA 1                                                                                        ALTO DO COQUEIRINHO           SALVADOR                                          BA                    41615000                                                                                                                                                                                                                                                          OM0000000000000000NO FINAL DE LINHA PX A FARMACIA DO FINAL DE LINHA PROC JAILTON 82509762 88361714 ENTREGA NO SABADO                                                                                                                                                                                                                                                                                                                                                                                                                                                                                                           
01                              13162     101 259 9047353                                                                                   13460725910112012                                                              00062915037515BELMIRA CONCEICAO SANTOS                                                                            PAULO AFONSO 85                                                                                     MUSSURUNGA 1                  SALVADOR                                          BA                    40000000                                                                                                                                                                                                                                                          OM0000000000000000COM APANHA COLINA DE MUSSURUNGA NA RUA DO CAMPO DO SETOR F PROC COELBA 8856 / 8642 8752 4546                                                                                                                                                                                                                                                                                                                                                                                                                                                                                                                 
01                              17209     87  259 9058067                                                                                   13465125910112012                                                              00055983693549MARIA DAS VIRGENS JESUS DE ASSIS                                                                    SIRLANDIA 294 1 ANDAR                                                                               CAPELINHA                     SALVADOR                                          BA                    40393460                                                                                                                                                                                                                                                          OM0000000000000000PROX AO MERCADINHO SIRLADIA  PROC CASA DE BAMBA TEL 32591003 OU 88739428 IVANA                                                                                                                                                                                                                                                                                                                                                                                                                                                                                                                               
01                              17820     95  259 9018065                                                                                   13472125910112012                                                              00044580029534LEONDA FREYRE CARDOSO                                                                               JAGUARIPE 1 26 CAMINHO 3 D                                                                          FAZENDA GRANDE II             SALVADOR                                          BA                    41342674                                                                                                                                                                                                                                                          OM000000000000000096827943 E 96599573 E 87144351 PROX AO KIBARATO FINAL DE LINHA                                                                                                                                                                                                                                                                                                                                                                                                                                                                                                                                               
01                              35950     90  259 9018012                                                                                   13472025910112012                                                              00030877130582NIRALDA NAZARE MELCIA                                                                               DAS PITANGUEIRAS 12                                                                                 FAZENDA GRANDE DO RETIRO      SALVADOR                                          BA                    40352650                                                                                                                                                                                                                                                          OM0000007132593883TEL 71 87967437 ENTREGA NO SABADO DIA 10/11/2012 PX A TORRE DA OI                                                                                                                                                                                                                                                                                                                                                                                                                                                                                                                                            
01                              25487     88  259 9020566                                                                                   13466125910112012                                                              00063319900544GEORGE RIBEIRO DOS SANTOS                                                                           SARGENTO CAMARGO 102 S                                                                              SAO CAETANO                   SALVADOR                                          BA                    40391152                                                                                                                                                                                                                                                          OM0000000000000000PX MERCEARIA DE CARLOS BOI PROC ANA PAULA OU GEORGE TEL 92704600 33925082                                                                                                                                                                                                                                                                                                                                                                                                                                                                                                                                    
01                              25487     88  259 9020566                                                                                   13466025910112012                                                              00063319900544GEORGE RIBEIRO DOS SANTOS                                                                           SARGENTO CAMARGO 102 S                                                                              SAO CAETANO                   SALVADOR                                          BA                    40391152                                                                                                                                                                                                                                                          OM0000000000000000PX MERCEARIA DE CARLOS BOI PROC ANA PAULA OU GEORGE TEL 92704600 33925082                                                                                                                                                                                                                                                                                                                                                                                                                                                                                                                                    
01                              36419     90  259 9021188                                                                                   13469925910112012                                                              00001886794561SOLANGE ALVES SILVA                                                                                 LUIZA 0 26 E                                                                                        PERNAMBUES                    SALVADOR                                          BA                    41110240                                                                                                                                                                                                                                                          OM00000000000000008107 3341 MADEREIRA BROTAS SOBE AV HILDA ATRAS DA CASA MAT CONSTRUCAO CASA NOVA PROC NIVIA OU ROSE                                                                                                                                                                                                                                                                                                                                                                                                                                                                                                           
01                              25575     88  259 9020566                                                                                   13470025910112012                                                              00067717543591ROBSON ROBERVAL OLIVEIRA SILVA                                                                      BELO HORIZONTE 15 15 E TERREO                                                                       TANCREDO NEVES                SALVADOR                                          BA                    41210130                                                                                                                                                                                                                                                          OM0000000000000000EM FRENTE CENTRO CULT ARI ALVES PROC MAIARA TEL 92475999 92467641 CLEIDE                                                                                                                                                                                                                                                                                                                                                                                                                                                                                                                                     
01                              13242     101 259 9065471                                                                                   13463225910112012                                                              00006558933500MILTON RIBEIRO DOS ANJOS                                                                            PROFESSOR SOUZA BRITO 101 N 241                                                                     ITAPUA                        SALVADOR                                          BA                    41640380                                                                                                                                                                                                                                                          OM0000007141037204CEL 96114325 PROX AO FAROL DE ITAPUA CASA EM CIMA CIMETRICA PISCINA PROC MILTON OU LAURICE                                                                                                                                                                                                                                                                                                                                                                                                                                                                                                                   
01                              31093     147 259 9020479                                                                                   13469525910112012                                                              00013553259515MARIA HELENA ALVES LACERDA                                                                          NOVA DO RIO 18 E                                                                                    PERNAMBUES                    SALVADOR                                          BA                    41110380                                                                                                                                                                                                                                                          OM0000007132612163TEL 3431 1944 OU 8761 1563 FRANCK, ATRAZ DA MADEIREIRA BROTAS EM FRENTE AO DEPOSITO DE JARDEL                                                                                                                                                                                                                                                                                                                                                                                                                                                                                                                
01                              31101     147 259 9057826                                                                                   13469625910112012                                                              00060757817572CELSO VITORINO DOS SANTOS                                                                           BAHIA 115                                                                                           PERNAMBUES                    SALVADOR                                          BA                    41130410                                                                                                                                                                                                                                                          OM0000007134522743REF AV SAO PAULO AO LADO DO DEPOSITO SAO JORGE 82546949                                                                                                                                                                                                                                                                                                                                                                                                                                                                                                                                                      
01                              17029     220 259 9027169                                                                                   13463725910112012                                                              00093523173515RAILDA ROCHA SILVA DIAS                                                                             SAO PAULO 11                                                                                        SAO CRISTOVAO                 SALVADOR                                          BA                    41500110                                                                                                                                                                                                                                                          OM0000000000000000FON 33770889 96392939 PROX A ESCOLA PINGO DE GENTE PROC SRA RAILDA OU RAIANE POR FAV LIG ANTES                                                                                                                                                                                                                                                                                                                                                                                                                                                                                                               
01                              36419     90  259 9021188                                                                                   13469825910112012                                                              00001886794561SOLANGE ALVES SILVA                                                                                 LUIZA 0 26 E                                                                                        PERNAMBUES                    SALVADOR                                          BA                    41110240                                                                                                                                                                                                                                                          OM00000000000000008107 3341 MADEREIRA BROTAS SOBE AV HILDA ATRAS DA CASA MAT CONSTRUCAO CASA NOVA PROC NIVIA OU ROSE                                                                                                                                                                                                                                                                                                                                                                                                                                                                                                           
01                              7878      125 259 9029086                                                                                   13463825910112012                                                              00003121327518JOSSIANE FAGUNDES DE SANTANA                                                                        SANTA RITA 5 AO LADO DO BAR DE CAFE                                                                 MATATU                        SALVADOR                                          BA                    40255590                                                                                                                                                                                                                                                          OM0000000000000000AO LADO DO BAR DE CAFE PROC TATI ESPO DE NILTON 71 81766878                                                                                                                                                                                                                                                                                                                                                                                                                                                                                                                                                  
01                              13824     148 259 9017217                                                                                   13470725910112012                                                              00001130479595DANIELA CARDOSO DOS SANTOS ARAUJO                                                                   EDGAR PEREIRA DA CRUZ 42 RUA DIRETA PX DEPOSITO DE SINVAL                                           ARENOSO                       SALVADOR                                          BA                    41211885                                                                                                                                                                                                                                                          OM0000007134626321T 83135836 REF RUA DIRETA PX O DEPOSITO DE SINVAL PROC CS PORTAO LARANJA PROC SR SOCORRO                                                                                                                                                                                                                                                                                                                                                                                                                                                                                                                     
01                              14897     111 259 9043896                                                                                   13464025910112012                                                              00091605903515MAXLANGIA RODRIGUES AMORIM DA SILVA                                                                 ALTO DOS BONS AMIGOS 275 E                                                                          BOA VISTA DE SAO CAETANO      SALVADOR                                          BA                    40385060                                                                                                                                                                                                                                                          OM0000000000000000PROX DO BAR DE EVERALDO PROC MARCIA TEL 88981743 87704283                                                                                                                                                                                                                                                                                                                                                                                                                                                                                                                                                    
01                              12299     107 259 9065671                                                                                   13470925910112012                                                              00048216216572AGNALDO DE JESUS TEIXEIRA                                                                           DOM PEDRO II 9 TERREO                                                                               SUSSUARANA                    SALVADOR                                          BA                    41213320                                                                                                                                                                                                                                                          OM0000000000000000FINAL DA RUA SAO CRISTOVAO SUSSUARANA VELHA PX A DN ALZIRA PROC LUCIA TEL 71)96021188 - (71)88746907                                                                                                                                                                                                                                                                                                                                                                                                                                                                                                         
01                              14906     111 259 9017554                                                                                   13464125910112012                                                              00078075220544DEMICIO ALVES SANTOS DA SILVA                                                                       MARIA 5 1 ANDAR                                                                                     BOA VISTA DE SAO CAETANO      SALVADOR                                          BA                    40386105                                                                                                                                                                                                                                                          OM0000000000000000ALTO DA BOA VISTA  PROX A ANTIGA PANIFICADORA BOM DE PRECO  NA ENTRADA DA RUA TEM UM DEPOSITO PROC DEDE                                                                                                                                                                                                                                                                                                                                                                                                                                                                                                      
01                              36369     90  259 9021188                                                                                   13470325910112012                                                              00076518159553JOSEFA MARIA CARVALHO COSTA                                                                         R SILVEIRA MARTINS 0 196A AP 101                                                                    CABULA                        SALVADOR                                          BA                    41150000                                                                                                                                                                                                                                                          OM0000000000000000TL 81559919 AO LADO DA OI EM FRENTE AO SHOP PLAZA PROC JOSEFA                                                                                                                                                                                                                                                                                                                                                                                                                                                                                                                                                
01                              27886     141 259 9017579                                                                                   13464325910112012                                                              00002029504335ANA PATRICIA VASCONCELOS DA SILVA                                                                   JOEL LOPES 19 E PX MERCADO ARGOLO                                                                   MARECHAL RONDON               SALVADOR                                          BA                    41280640                                                                                                                                                                                                                                                          OM0000000000000000                                                                                                                                                                                                                                                                                                                                                                                                                                                                                                                                                                                                             
01                              25531     88  259 9020825                                                                                   13464425910112012                                                              00016837614568OLIVIA RAIMUNDA ROQUE FERREIRA                                                                      JOSE NASCIMENTO 12 E                                                                                MARECHAL RONDON               SALVADOR                                          BA                    41280070                                                                                                                                                                                                                                                          OM000000000000000091276145 32461819 FINAL DE LINHA PROX AO BAR DO MOREIRA CASA VERMELHA PROC OLIVIA OU DJALMA                                                                                                                                                                                                                                                                                                                                                                                                                                                                                                                  
01                              25554     88  259 9048631                                                                                   13464525910112012                                                              00002199965554RENILDA SOUZA                                                                                       ENGENHEIRO AUSTRICLIANO 124 A                                                                       SAO CAETANO                   SALVADOR                                          BA                    40391204                                                                                                                                                                                                                                                          OM000000000000000087218019 LARGO DO TANQUE LADEIRA DO CACAU PX AO BRADESCO PROC MARIA OU REINILDA                                                                                                                                                                                                                                                                                                                                                                                                                                                                                                                              
01                              13848     148 259 9017217                                                                                   13470625910112012                                                              00095916563515JOSEFA ANDRADE DOS SANTOS                                                                           WASHINGTON 127                                                                                      TANCREDO NEVES                SALVADOR                                          BA                    41207565                                                                                                                                                                                                                                                          OM0000007134615878T 71 34615878 REF DESCENDO A IGREJA CATOLICA PROC VADO                                                                                                                                                                                                                                                                                                                                                                                                                                                                                                                                                       
01                              31207     147 259 9025445                                                                                   13468425910112012                                                              00096800070572JOELMA S CALDASD                                                                                    MANOEL PEDRAO 26 CASA 26 E                                                                          PERNAMBUES                    SALVADOR                                          BA                    41110130                                                                                                                                                                                                                                                          OM0000007134820268TROCA SEM APANHA 71)34820268 - (71)88757846 FINAL DO COLEGIO ALIOMAR BALEEIRO SEM APANHA                                                                                                                                                                                                                                                                                                                                                                                                                                                                                                                     
01                              31210     147 259 9057826                                                                                   13468625910112012                                                              00002004585587FRANCISCO ANTONIO DA SILVA                                                                          CABULA VI 235 AP 302                                                                                CABULA VI                     SALVADOR                                          BA                    41181045                                                                                                                                                                                                                                                          OM0000007133733487SEM APANHA BLOCO 220 AP 101 PROX AO COLEGIO ELIZABETE VELOSO 1 ENTRADA A ESQUERDA 33733487                                                                                                                                                                                                                                                                                                                                                                                                                                                                                                                   
01                              36314     90  259 9021190                                                                                   13462025910112012                                                              00005268347578LUCAS RODRIGUES BISPO                                                                               PADRE LUIZ FILGUEIRA 752 D AP11                                                                     ENGE VELHO DE BROSTAS         SALVADOR                                          BA                    40243320                                                                                                                                                                                                                                                          OM0000000000000000TROCA SEM APANHA 75 91627574 75 81308660 75 92063016 REF FINAL DE LINHA PROX A DELEGACIA DA MULHER PROC LUCAS                                                                                                                                                                                                                                                                                                                                                                                                                                                                                                
01                              36296     90  259 9021190                                                                                   13468025910112012                                                              00001489770577JUAREZ CERQUEIRA DOS REIS                                                                           ARATUIPE 0 127                                                                                      ARRAIAL DO RETIRO             SALVADOR                                          BA                    41204375                                                                                                                                                                                                                                                          OM0000000000000000TL 82358061 REF AO LADO DA IGREJA SANTA CLARA PROC SR JOSE TL 81374661                                                                                                                                                                                                                                                                                                                                                                                                                                                                                                                                       
01                              36296     90  259 9021190                                                                                   13467925910112012                                                              00001489770577JUAREZ CERQUEIRA DOS REIS                                                                           ARATUIPE 0 127                                                                                      ARRAIAL DO RETIRO             SALVADOR                                          BA                    41204375                                                                                                                                                                                                                                                          OM0000000000000000TL 82358061 REF AO LADO DA IGREJA SANTA CLARA PROC SR JOSE TL 81374661                                                                                                                                                                                                                                                                                                                                                                                                                                                                                                                                       
01                              36439     90  259 9021188                                                                                   13469225910112012                                                              00078385083553ROSANGELA FERREIRA BRANDAO                                                                          DIVA 135 A                                                                                          PERNAMBUES                    SALVADOR                                          BA                    41130532                                                                                                                                                                                                                                                          OM0000000000000000TL 8249 3527 DESCENDO RADIO METROPOLE NO BOLE BOLE PROC TOIOTA NO BAR DE CHIBICA ONDE MORA DONA ROSA                                                                                                                                                                                                                                                                                                                                                                                                                                                                                                         
01                              36439     90  259 9021188                                                                                   13469125910112012                                                              00078385083553ROSANGELA FERREIRA BRANDAO                                                                          DIVA 135 A                                                                                          PERNAMBUES                    SALVADOR                                          BA                    41130532                                                                                                                                                                                                                                                          OM0000000000000000TL 8249 3527 DESCENDO RADIO METROPOLE NO BOLE BOLE PROC TOIOTA NO BAR DE CHIBICA ONDE MORA DONA ROSA                                                                                                                                                                                                                                                                                                                                                                                                                                                                                                         
01                              36456     90  259 9021188                                                                                   13475325910112012                                                              00091837081549ROSIMEIRE DOS SANTOS REIS                                                                           BAHIA 0 22 FUNDOS                                                                                   FAZENDA GRANDE DO RETIRO      SALVADOR                                          BA                    40352350                                                                                                                                                                                                                                                          OM00000000000000008777 0225 3303 1636 AO LADO DA CASA DE FRIOS MATOS NO INICIO PROX AO BAR DA AMIZADE PROC ROSE OU GILSON                                                                                                                                                                                                                                                                                                                                                                                                                                                                                                      
01                              36439     90  259 9021188                                                                                   13469325910112012                                                              00078385083553ROSANGELA FERREIRA BRANDAO                                                                          DIVA 135 A                                                                                          PERNAMBUES                    SALVADOR                                          BA                    41130532                                                                                                                                                                                                                                                          OM0000000000000000TL 8249 3527 DESCENDO RADIO METROPOLE NO BOLE BOLE PROC TOIOTA NO BAR DE CHIBICA ONDE MORA DONA ROSA                                                                                                                                                                                                                                                                                                                                                                                                                                                                                                         
01                              17027     220 259 9028545                                                                                   13462825910112012                                                              00007244487568RAIMUNDO PEREIRA MAIA                                                                               CIA AEROPORTO 7 KM 10 RUA DAS FLORES                                                                SAO CRISTOVAO                 SALVADOR                                          BA                    41000000                                                                                                                                                                                                                                                          OM0000007133650416TROCA SEM APANHA TEL 33650416 OU 88364753 NA ESTRADA DO CIA ENTRANDO NA RUA PARAISO DRINK PX A PEDREIRA PROC LUIZ PRETO                                                                                                                                                                                                                                                                                                                                                                                                                                                                                      
01                              17216     87  259 9017161                                                                                   13474825910112012                                                              00053489799534SONIA S F NASCIMENTO                                                                                GRACILIANO DE FREITAS 10                                                                            FAZENDA GRANDE DO RETIRO      SALVADOR                                          BA                    40350310                                                                                                                                                                                                                                                          OM0000000000000000PROXIMO A IGREJA CATOLICA CASA VERDE COM PORTAO PRETO PROC SONIA OU LINDAURA 32444194                                                                                                                                                                                                                                                                                                                                                                                                                                                                                                                        
02                                         597736                        13854     155914    EST EDN BARCELONA EBA/PTO                                                                           1                      14112012                                                                                                                                                                                                                                                          000000000000000000000000000000000000000100                                                                                                                                                                                                                                                                                                                                                                                                                                                                                                                                                                                                                                                                                                                                                                                                                                                                                                                    
02                                         597737                        31167     155938    RACK EDN MALIBU EBA/PTO                                                                             1                      14112012                                                                                                                                                                                                                                                          000000000000000000000000000000000000000100                                                                                                                                                                                                                                                                                                                                                                                                                                                                                                                                                                                                                                                                                                                                                                                                                                                                                                                    
02                                         597738                        36384     138034    G.ROUPA ARAPLAC 10P ATL PLUS TB/BR                                                                  1                      14112012                                                                                                                                                                                                                                                          000000000000000000000000000000000000000100                                                                                                                                                                                                                                                                                                                                                                                                                                                                                                                                                                                                                                                                                                                                                                                                                                                                                                                    
02                                         597739                        14954     155898    MESA COMP.EDN LIVIA BR/PTO                                                                          1                      14112012                                                                                                                                                                                                                                                          000000000000000000000000000000000000000200                                                                                                                                                                                                                                                                                                                                                                                                                                                                                                                                                                                                                                                                                                                                                                                                                                                                                                                    
02                                         597740                        36385     155938    RACK EDN MALIBU EBA/PTO                                                                             1                      14112012                                                                                                                                                                                                                                                          000000000000000000000000000000000000000100                                                                                                                                                                                                                                                                                                                                                                                                                                                                                                                                                                                                                                                                                                                                                                                                                                                                                                                    
02                                         597741                        10318     96195     MESA GRAN CARLA 4C RET NAP PTO                                                                      1                      14112012                                                                                                                                                                                                                                                          000000000000000000000000000000000000000100                                                                                                                                                                                                                                                                                                                                                                                                                                                                                                                                                                                                                                                                                                                                                                                                                                                                                                                    
02                                         597742                        31176     135031    G.ROUPA GELIUS INOVACAO 3P BR/PTO                                                                   1                      14112012                                                                                                                                                                                                                                                          000000000000000000000000000000000000000100                                                                                                                                                                                                                                                                                                                                                                                                                                                                                                                                                                                                                                                                                                                                                                                                                                                                                                                    
02                                         597743                        16354     138034    G.ROUPA ARAPLAC 10P ATL PLUS TB/BR                                                                  1                      14112012                                                                                                                                                                                                                                                          000000000000000000000000000000000000000100                                                                                                                                                                                                                                                                                                                                                                                                                                                                                                                                                                                                                                                                                                                                                                                                                                                                                                                    
02                                         597744                        15090     157754    G.ROUPA ARAPLAC 12P DAKAR PLUS TAB/GRAF                                                             1                      14112012                                                                                                                                                                                                                                                          000000000000000000000000000000000000000200                                                                                                                                                                                                                                                                                                                                                                                                                                                                                                                                                                                                                                                                                                                                                                                                                                                                                                                    
02                                         597745                        36453     157834    G.ROUPA ARAPLAC ELEG 3P6G GRAF/TB                                                                   1                      14112012                                                                                                                                                                                                                                                          000000000000000000000000000000000000000400                                                                                                                                                                                                                                                                                                                                                                                                                                                                                                                                                                                                                                                                                                                                                                                                                                                                                                                    
02                                         597746                        25529     138034    G.ROUPA ARAPLAC 10P ATL PLUS TB/BR                                                                  1                      14112012                                                                                                                                                                                                                                                          000000000000000000000000000000000000000100                                                                                                                                                                                                                                                                                                                                                                                                                                                                                                                                                                                                                                                                                                                                                                                                                                                                                                                    
02                                         597747                        36453     154743    G.ROUPA EURO 3P RUBI CAST/PTO/CAST                                                                  1                      14112012                                                                                                                                                                                                                                                          000000000000000000000000000000000000000200                                                                                                                                                                                                                                                                                                                                                                                                                                                                                                                                                                                                                                                                                                                                                                                                                                                                                                                    
02                                         597748                        13181     93893     MESA MODECOR BRUNA 4C T.VID BR/PT                                                                   1                      14112012                                                                                                                                                                                                                                                          000000000000000000000000000000000000000100                                                                                                                                                                                                                                                                                                                                                                                                                                                                                                                                                                                                                                                                                                                                                                                                                                                                                                                    
02                                         597749                        13162     40001     COZ ITATIAIA ANITA BR                                                                               1                      14112012                                                                                                                                                                                                                                                          000000000000000000000000000000000000000100                                                                                                                                                                                                                                                                                                                                                                                                                                                                                                                                                                                                                                                                                                                                                                                                                                                                                                                    
02                                         597750                        17209     140096    G.ROUPA BERGAMO 5P LISBOA BR/PTO                                                                    1                      14112012                                                                                                                                                                                                                                                          000000000000000000000000000000000000000100                                                                                                                                                                                                                                                                                                                                                                                                                                                                                                                                                                                                                                                                                                                                                                                                                                                                                                                    
02                                         597751                        17820     140393    G.ROUPA ARAPLAC 8P AUSTRIA TB/BR                                                                    1                      14112012                                                                                                                                                                                                                                                          000000000000000000000000000000000000000200                                                                                                                                                                                                                                                                                                                                                                                                                                                                                                                                                                                                                                                                                                                                                                                                                                                                                                                    
02                                         597752                        35950     151240    CJ SALA JANTAR MD RAVENNA 4C IMB/PTO                                                                1                      14112012                                                                                                                                                                                                                                                          000000000000000000000000000000000000000100                                                                                                                                                                                                                                                                                                                                                                                                                                                                                                                                                                                                                                                                                                                                                                                                                                                                                                                    
02                                         597753                        25487     152440    ARM.LUCIANE ANGRA BASC PTO/TRAM                                                                     2                      14112012                                                                                                                                                                                                                                                          000000000000000000000000000000000000000200                                                                                                                                                                                                                                                                                                                                                                                                                                                                                                                                                                                                                                                                                                                                                                                                                                                                                                                    
02                                         597754                        25487     152417    PAN LUCIANE ANGRA 2P BR                                                                             1                      14112012                                                                                                                                                                                                                                                          000000000000000000000000000000000000000100                                                                                                                                                                                                                                                                                                                                                                                                                                                                                                                                                                                                                                                                                                                                                                                                                                                                                                                    
02                                         597755                        36419     133021    G.ROUPA ARAPLAC AMAZONA 6P/6G TB/BR                                                                 1                      14112012                                                                                                                                                                                                                                                          000000000000000000000000000000000000000200                                                                                                                                                                                                                                                                                                                                                                                                                                                                                                                                                                                                                                                                                                                                                                                                                                                                                                                    
02                                         597756                        25575     155938    RACK EDN MALIBU EBA/PTO                                                                             1                      14112012                                                                                                                                                                                                                                                          000000000000000000000000000000000000000100                                                                                                                                                                                                                                                                                                                                                                                                                                                                                                                                                                                                                                                                                                                                                                                                                                                                                                                    
02                                         597757                        13242     140392    G.ROUPA ARAPLAC 8P AUSTRIA TB/AMEN                                                                  1                      14112012                                                                                                                                                                                                                                                          000000000000000000000000000000000000000100                                                                                                                                                                                                                                                                                                                                                                                                                                                                                                                                                                                                                                                                                                                                                                                                                                                                                                                    
02                                         597758                        31093     138064    G.ROUPA ARAPLAC 2P DUQUE PLUS TB/BR                                                                 1                      14112012                                                                                                                                                                                                                                                          000000000000000000000000000000000000000100                                                                                                                                                                                                                                                                                                                                                                                                                                                                                                                                                                                                                                                                                                                                                                                                                                                                                                                    
