00                       20130603090259PREVIMONT                     RICARDO ELETRO                                                                                      64282601004457     100377    NITERÓI                                                                                                                                                                                                                                                                                                                                                                                                                                                                                                                                                                                                                                                                                                                                                                                                                                                                                                                                                                                                                                                                                                                                                                                                                                           
01                              45438     169 199 9033939                                                                                   39977919901062013                                                              00010867870729RAFAEL CARVALHO DE LUCENA                                                                           CAMELIAS 0 23 LT 17 CASA 06                                                                         COSTA VERDE                   MARICA                                            RJ                    24900000                                                                                                                                                                                                                                                          OM0000002127102340REF PX AO COLEGIO CEI TEL 88302151  PROC SRA VALERIA                                                                                                                                                                                                                                                                                                                                                                                                                                                                                                                                                         
01                              42742     181 199 9030013                                                                                   39977819901062013                                                              00026227886734EDSON SOARES PINTO                                                                                  RODRIGUES ALVES DE ABREU RANGEL 117 4 PORT 117                                                      CENTRO                        MARICA                                            RJ                    24900000                                                                                                                                                                                                                                                          OM000000000000000098059328 98930090 AO LADO DO COLEGIO HMS ATRAZ DA RODOVIARIA PROC EDSON OU MARILDA                                                                                                                                                                                                                                                                                                                                                                                                                                                                                                                           
01                              65471     215 199 9029518                                                                                   39978419901062013                                                              00009970361767ELIANE PINTO DO ROSARIO                                                                             RUA DO CANAL 120 CASA                                                                               SAO JOSE DE IMBASAI           MARICA                                            RJ                    24901000                                                                                                                                                                                                                                                          OM0000002195233042ENTRAR NA RUA DA PASSARELA APOS A PONTE 1 RUA DIR PROX AO BAR DA DONA PENHA PRC ELIANE FILHA DE DEMIR PESCADOR 95233042                                                                                                                                                                                                                                                                                                                                                                                                                                                                                      
01                              45408     169 199 9033916                                                                                   39976219901062013                                                              00058797580287WESLEY FERREIRA DA SILVA                                                                            TRINTA 0 16 QUADRA 94 CASA 02                                                                       ITAIPUACU                     MARICA                                            RJ                    24900001                                                                                                                                                                                                                                                          OM0000000000000000FICA PROX   PRACA DA AV VITORIA REGIA CONTATO CLIENTE ELAINE TEL 80275646 URGENCIA                                                                                                                                                                                                                                                                                                                                                                                                                                                                                                                           
01                              42451     181 199 9030013                                                                                   39976119901062013                                                              00012620035716RODRIGO DE AZEVEDO FARIAS                                                                           ESTRADA VELHA DE MARICA 1 LT 06 CS 03                                                               PONTA GROSSA                  MARICA                                            RJ                    24900000                                                                                                                                                                                                                                                          OM000000000000000075000704 APOS O BAR DO ISALTINO AO LADO DA MARCENARIA DO WILLIAM PROC JULIANA OU RODRIGO                                                                                                                                                                                                                                                                                                                                                                                                                                                                                                                     
01                              66475     215 199 9069402                                                                                   39976019901062013                                                              00013529615714MARCIO DE ABREU MALDONADO                                                                           AURELIO SIMAO DE FREITAS 23                                                                         SAO JOSE DE IMBASAI           MARICA                                            RJ                    24900000                                                                                                                                                                                                                                                          OM0000002126368121FICA DEPOS DA PASSARELA DO KM21 EM SAO J DE EMBASSAI PROX DO BAR DO LUIZ PROC MARCIO OU ADELIR TEL 88051058                                                                                                                                                                                                                                                                                                                                                                                                                                                                                                  
01                              45122     169 199 9033916                                                                                   39976519901062013                                                              00002239139790JOSE ROBERTO MARCOLINO DA SILVA                                                                     MARQUES DE MARICA 0 28 QUADRA 11                                                                    MARQUES DE MARICA             MARICA                                            RJ                    24900000                                                                                                                                                                                                                                                          OM0000000000000000ENTRAR NO KM 31 DA AMARAL PEIXOTO APOS O BAR DO ADELAR CONT TELE FONICO CLIENTE 37314486 OU 72348078                                                                                                                                                                                                                                                                                                                                                                                                                                                                                                         
01                              42621     181 199 9058566                                                                                   39976419901062013                                                              00004809898776CATIA MARIA DOS SANTOS                                                                              ESPERANCA 8 QD 19                                                                                   CHACARA DE INOA               MARICA                                            RJ                    24910000                                                                                                                                                                                                                                                          OM0000000000000000(21)26364060 - (21)95952594 500 M APOS AO CIEP ROBSON MENDONCA LOU PROC CATIA OU ANTONIO                                                                                                                                                                                                                                                                                                                                                                                                                                                                                                                     
01                              64737     215 199 9009244                                                                                   39975319901062013                                                              00054950015753CRISTINA ANTUNES DE MELO                                                                            SESSENTA E SEIS 0 47 QD 317                                                                         JARDIM ATLANTICO              MARICA                                            RJ                    24900012                                                                                                                                                                                                                                                          OM0000002199534661ENTRAR NA ESTRADO DO CAJUEIRO SAIDA 17 APOS PONTE E O COLEGIO DIRECAO A PRAIA  PROCMARGARET CHAMAR NA LOJA TRC RECOLHIME                                                                                                                                                                                                                                                                                                                                                                                                                                                                                     
01                              25360     249 199 9068608                                                                                   39975819901062013                                                              00007715391778LUCIANA GONCALVES                                                                                   ESTRADA DO RETIRO 16 LT16 QD1                                                                       RETIRO                        MARICA                                            RJ                    24000000                                                                                                                                                                                                                                                          OM0000000000000000DO LADO DA ESCOLA DO RETIRO EM MARICA PROC POR LAERTE OU CARMEM 96604638                                                                                                                                                                                                                                                                                                                                                                                                                                                                                                                                     
01                              26131     196 199 9031799                                                                                   39975719901062013                                                              00008628045740MARIA LUIZA L PINTO                                                                                 RUA 90 9 LT 10 QD 78                                                                                ITAIPUACU                     MARICA                                            RJ                    24900000                                                                                                                                                                                                                                                          OM0000000000000000PROX AO DPO DO BARROCO REFENTE RUA 9 LT 10 QD 78 SAO BENTO CEL 91782273                                                                                                                                                                                                                                                                                                                                                                                                                                                                                                                                      
01                              41655     181 199 9058566                                                                                   39977019901062013                                                              00003226267736ALEXANDRA DA SILVA MOREIRA                                                                          B 6 QD 02 CASA 02                                                                                   ITAPEBA                       MARICA                                            RJ                    24900001                                                                                                                                                                                                                                                          OM0000000000000000(21)73950731 APOS A HIDRAULICA RUFINO ENFRENT A LOJA DJOTAS MOVEIS PROC ALEXANDRA OU MARCIO                                                                                                                                                                                                                                                                                                                                                                                                                                                                                                                  
01                              65266     215 199 9066626                                                                                   39976919901062013                                                              00000216269792ALCENIR BERNARDES RIBEIRO DA SILVA                                                                  55 43                                                                                               JARDIM ATLANTICO              MARICA                                            RJ                    24900000                                                                                                                                                                                                                                                          OM0000002126031163PEGAR ESTR DO CAJUEIRO SENTIDO PRAIA SENG ANTIG RUA AV 2 PROC ALCENIR LIGAR TEL 99641486 26031163                                                                                                                                                                                                                                                                                                                                                                                                                                                                                                            
01                              35372     242 199 9039554                                                                                   39977119901062013                                                              00041035275791PAULO CESAR PEREIRA                                                                                 MINAS GERAIS 9 QD C                                                                                 PONTA NEGRA                   MARICA                                            RJ                    24900000                                                                                                                                                                                                                                                          OM0000000000000000RUA DO CANAL SENTIDO FAROL TERCEIRA RUA ESQUERDA PRX PENSAO NOEMIA 21 75384544                                                                                                                                                                                                                                                                                                                                                                                                                                                                                                                               
02                                         742644                        45438     183255    COZ ARAMOVEIS CRIS BR/CZ                                                                            1                      01072013                                                                                                                                                                                                                                                          000000000000000000000000000000000000000100                                                                                                                                                                                                                                                                                                                                                                                                                                                                                                                                                                                                                                                                                                                                                                                                                                                                                                                    
02                                         742645                        42742     185260    G.ROUPA ARAMOVEIS  4P3G BRASIL BR/FE                                                                1                      01072013                                                                                                                                                                                                                                                          000000000000000000000000000000000000000100                                                                                                                                                                                                                                                                                                                                                                                                                                                                                                                                                                                                                                                                                                                                                                                                                                                                                                                    
02                                         742646                        65471     185776    GR ARAPLAC 10PC/P VIENA PLUS TB/GRAF                                                                1              1706201301072013                                                                                                                                                                                                                                                          000000000000000000000000000000000000000100                                                                                                                                                                                                                                                                                                                                                                                                                                                                                                                                                                                                                                                                                                                                                                                                                                                                                                                    
02                                         742647                        45408     155462    G.ROUPA EURO 3P RUBI ESP PL/PT/PL                                                                   1                      01072013                                                                                                                                                                                                                                                          000000000000000000000000000000000000000100                                                                                                                                                                                                                                                                                                                                                                                                                                                                                                                                                                                                                                                                                                                                                                                                                                                                                                                    
02                                         742648                        42451     182314    COZINHA INDEKES BIA BR/GRAF                                                                         1                      01072013                                                                                                                                                                                                                                                          000000000000000000000000000000000000000100                                                                                                                                                                                                                                                                                                                                                                                                                                                                                                                                                                                                                                                                                                                                                                                                                                                                                                                    
02                                         742648                        42451     182316    BALCAO INDEKES BIA BR/GRAF                                                                          1                      01072013                                                                                                                                                                                                                                                          000000000000000000000000000000000000000200                                                                                                                                                                                                                                                                                                                                                                                                                                                                                                                                                                                                                                                                                                                                                                                                                                                                                                                    
02                                         742649                        66475     182314    COZINHA INDEKES BIA BR/GRAF                                                                         1                      01072013                                                                                                                                                                                                                                                          000000000000000000000000000000000000000100                                                                                                                                                                                                                                                                                                                                                                                                                                                                                                                                                                                                                                                                                                                                                                                                                                                                                                                    
02                                         742649                        66475     185260    G.ROUPA ARAMOVEIS  4P3G BRASIL BR/FE                                                                1                      01072013                                                                                                                                                                                                                                                          000000000000000000000000000000000000000200                                                                                                                                                                                                                                                                                                                                                                                                                                                                                                                                                                                                                                                                                                                                                                                                                                                                                                                    
02                                         742650                        45122     185254    G.ROUPA ARAMOVEIS 3P3G NAPOLE BR/PTO                                                                1                      01072013                                                                                                                                                                                                                                                          000000000000000000000000000000000000000100                                                                                                                                                                                                                                                                                                                                                                                                                                                                                                                                                                                                                                                                                                                                                                                                                                                                                                                    
02                                         742651                        42621     185263    G.ROUPA ARAMOVEIS 6P2G BRASIL CZ/PTO                                                                1                      01072013                                                                                                                                                                                                                                                          000000000000000000000000000000000000000100                                                                                                                                                                                                                                                                                                                                                                                                                                                                                                                                                                                                                                                                                                                                                                                                                                                                                                                    
02                                         742652                        64737     140096    G.ROUPA BERGAMO 5P LISBOA BR/PTO                                                                    1                      01072013                                                                                                                                                                                                                                                          000000000000000000000000000000000000000100                                                                                                                                                                                                                                                                                                                                                                                                                                                                                                                                                                                                                                                                                                                                                                                                                                                                                                                    
02                                         742653                        25360     185263    G.ROUPA ARAMOVEIS 6P2G BRASIL CZ/PTO                                                                1                      01072013                                                                                                                                                                                                                                                          000000000000000000000000000000000000000100                                                                                                                                                                                                                                                                                                                                                                                                                                                                                                                                                                                                                                                                                                                                                                                                                                                                                                                    
02                                         742654                        26131     185263    G.ROUPA ARAMOVEIS 6P2G BRASIL CZ/PTO                                                                1                      01072013                                                                                                                                                                                                                                                          000000000000000000000000000000000000000100                                                                                                                                                                                                                                                                                                                                                                                                                                                                                                                                                                                                                                                                                                                                                                                                                                                                                                                    
02                                         742655                        41655     183254    COZ ARAMOVEIS CRIS BR/PTO                                                                           1                      01072013                                                                                                                                                                                                                                                          000000000000000000000000000000000000000100                                                                                                                                                                                                                                                                                                                                                                                                                                                                                                                                                                                                                                                                                                                                                                                                                                                                                                                    
02                                         742656                        65266     88621     COZ COMP COLOR ECLIPSE TOP BR                                                                       1                      01072013                                                                                                                                                                                                                                                          000000000000000000000000000000000000000100                                                                                                                                                                                                                                                                                                                                                                                                                                                                                                                                                                                                                                                                                                                                                                                                                                                                                                                    
02                                         742657                        35372     182316    BALCAO INDEKES BIA BR/GRAF                                                                          1                      01072013                                                                                                                                                                                                                                                          000000000000000000000000000000000000000200                                                                                                                                                                                                                                                                                                                                                                                                                                                                                                                                                                                                                                                                                                                                                                                                                                                                                                                    
02                                         742657                        35372     183255    COZ ARAMOVEIS CRIS BR/CZ                                                                            1                      01072013                                                                                                                                                                                                                                                          000000000000000000000000000000000000000100                                                                                                                                                                                                                                                                                                                                                                                                                                                                                                                                                                                                                                                                                                                                                                                                                                                                                                                    
99                       000033                                                                                                                                                                                                                                                                                                                                                                                                                                                                                                                                                                                                                                                                                                                                                                                                                                                                                                                                                                                                                                                                                                                                                                                                                                                                                                                                                                                                                         