00                       20121217103749PREVIMONT                     RICARDO ELETRO                                                                                      64282601004457     99958     ATRE - CENTRAL DE MONTAGENS RE                                                                                                                                                                                                                                                                                                                                                                                                                                                                                                                                                                                                                                                                                                                                                                                                                                                                                                                                                                                                                                                                                                                                                                                                                    
01                              38026     147 259 9021190                                                                                   16757325917122012                                                              00002824305550SILVA ABREU DE JESUS                                                                                GUILHERME MARBACK 7 AP 301 SETOR 1                                                                  IMBUI                         SALVADOR                                          BA                    41720005                                                                                                                                                                                                                                                          OM0000000000000000                                                                                                                                                                                                                                                                                                                                                                                                                                                                                                                                                                                                             
01                              37833     147 259 9025445                                                                                   16756725917122012                                                              00083550089520VINICIUS DA COSTA SOUZA                                                                             ARNALDO LOPES DA SILVA 0 VILA VERDE CD PARAISO VERDE BL 289 A APT                                   STIEP                         SALVADOR                                          BA                    41770035                                                                                                                                                                                                                                                          OM0000000000000000TROCA SEM APANHA CEL 9612 6901 APT 202 CJ DOS BANCARIOS A RUA FICA EM FRENTE A FIB PROX  AO BAR ABC DRINCS SEM  APANHA                                                                                                                                                                                                                                                                                                                                                                                                                                                                                       
01                              16159     101 259 9065471                                                                                   16756925917122012                                                              00080313965587ELIANA PEREIRA PINHEIRO                                                                             SANTO ANTONIO 30                                                                                    PITUACU                       SALVADOR                                          BA                    41740550                                                                                                                                                                                                                                                          OM0000007134611758PX A LAN HAUSE DO GUETO ALTO DO SAO JOAO PROC D. ELZA OU SEU BIA                                                                                                                                                                                                                                                                                                                                                                                                                                                                                                                                             
01                              37752     147 259 9018407                                                                                   16756825917122012                                                              00078945011587ELIENE SANTOS SARAIVA                                                                               DA TRANQUILIDADE 17 17 H                                                                            BOCA DO RIO                   SALVADOR                                          BA                    41705200                                                                                                                                                                                                                                                          OM0000000000000000TEL 71 8823 3988  3019 5209 NO INICIO DA LADEIRA DA NONA EM BAIXOI DA CLINICA ODONTOLOGICA ODONT OBS SEM APANHA                                                                                                                                                                                                                                                                                                                                                                                                                                                                                              
01                              38196     147 259 9021155                                                                                   16758725917122012                                                              00064762165549VERA LUCIA SANTOS LIMA                                                                              NOVO PARAISO 13 PROX PEDRO DO GAS                                                                   BOCA DO RIO                   SALVADOR                                          BA                    40000000                                                                                                                                                                                                                                                          OM000000000000000092511827 PROX AO PEDRO DO GAZ                                                                                                                                                                                                                                                                                                                                                                                                                                                                                                                                                                                
01                              12198     93  259 9020805                                                                                   16756325917122012                                                              00038353490587JOSE  ANTONIO   DA   SILVA   CARRILHO                                                               BOLANDEIRA 256 CARAIVA 13                                                                           BOCA DO RIO                   SALVADOR                                          BA                    41705055                                                                                                                                                                                                                                                          OM0000007132401106ATRAZ DA EMBASA DA BOCA DO RIO COND PRAIAS DE DESCOBRIMENTO 87081939                                                                                                                                                                                                                                                                                                                                                                                                                                                                                                                                         
01                              14735     107 259 9055643                                                                                   16755825917122012                                                              00005673461534JOSELIA LICIA FERREIRA                                                                              GIL EANES 1 002 QC BL A PQ FLAMBOYANTS                                                              PITUBA                        SALVADOR                                          BA                    41810310                                                                                                                                                                                                                                                          OM0000007133588408ENTRADA DA R FARMACIA SANTANA PROC REGILENE OU JOSELIA TEL 33588408 - (71)99899039                                                                                                                                                                                                                                                                                                                                                                                                                                                                                                                           
01                              12230     93  259 9066785                                                                                   16772225917122012                                                              00004895919579LENISE CERQUEIRA BRANDAO                                                                            PARALELA PARK 101 101 BL 2 EIXO 2                                                                   PARALELA                      SALVADOR                                          BA                    41730110                                                                                                                                                                                                                                                          OM0000000000000000OBS ATRAS UNIJORGE PROC LENISE OU BRUNA 7193306275                                                                                                                                                                                                                                                                                                                                                                                                                                                                                                                                                           
01                              43062     90  259 9050478                                                                                   16758225917122012                                                              00064432270500EDNAILDES DOS SANTOS SOARES                                                                         DOS PESCADORES 33                                                                                   BOCA DO RIO                   SALVADOR                                          BA                    41705380                                                                                                                                                                                                                                                          OM0000007133711805FINAL DE LINHA PROX A IGREJA ADVENTISTA DO SETIMO DIA E O COLEGIO GEORGINA PROC A CASA DE EPIFANIO TEL 3371 1805 OU 9107                                                                                                                                                                                                                                                                                                                                                                                                                                                                                     
01                              22040     95  259 9018065                                                                                   16772325917122012                                                              00068442289534BERNADETE DE JESUS SILVA                                                                            CAJAZEIRAS X 21 RUA ALFAIATE CADU                                                                   CAJAZEIRAS X                  SALVADOR                                          BA                    41330000                                                                                                                                                                                                                                                          OM000000713395635387593521 E 33956353 RUA ALFAIATE CADU SETOR C CAMINHO 1 PROX MERCADO CENTRAL 10                                                                                                                                                                                                                                                                                                                                                                                                                                                                                                                              
01                              43212     90  259 9021175                                                                                   16757825917122012                                                              00005924873501ALANE SLVES DOS SANTOS                                                                              PROFESSOR MANOEL RIBEIRO 582                                                                        ARMACAO                       SALVADOR                                          BA                    41750160                                                                                                                                                                                                                                                          OM000000718131253081312530  REF PX A CENTRO DE CONVEMCOES PROC. LUAN  PX A BORROCHARIA DE BIRA                                                                                                                                                                                                                                                                                                                                                                                                                                                                                                                                 
01                              43062     90  259 9050478                                                                                   16758025917122012                                                              00064432270500EDNAILDES DOS SANTOS SOARES                                                                         DOS PESCADORES 33                                                                                   BOCA DO RIO                   SALVADOR                                          BA                    41705380                                                                                                                                                                                                                                                          OM0000007133711805                                                                                                                                                                                                                                                                                                                                                                                                                                                                                                                                                                                                             
01                              43062     90  259 9050478                                                                                   16758125917122012                                                              00064432270500EDNAILDES DOS SANTOS SOARES                                                                         DOS PESCADORES 33                                                                                   BOCA DO RIO                   SALVADOR                                          BA                    41705380                                                                                                                                                                                                                                                          OM0000007133711805                                                                                                                                                                                                                                                                                                                                                                                                                                                                                                                                                                                                             
01                              38026     147 259 9021190                                                                                   16757425917122012                                                              00002824305550SILVA ABREU DE JESUS                                                                                GUILHERME MARBACK 7 AP 301 SETOR 1                                                                  IMBUI                         SALVADOR                                          BA                    41720005                                                                                                                                                                                                                                                          OM0000000000000000                                                                                                                                                                                                                                                                                                                                                                                                                                                                                                                                                                                                             
01                              38026     147 259 9021190                                                                                   16757525917122012                                                              00002824305550SILVA ABREU DE JESUS                                                                                GUILHERME MARBACK 7 AP 301 SETOR 1                                                                  IMBUI                         SALVADOR                                          BA                    41720005                                                                                                                                                                                                                                                          OM0000000000000000                                                                                                                                                                                                                                                                                                                                                                                                                                                                                                                                                                                                             
01                              38257     147 259 9021155                                                                                   16761425917122012                                                              00010674830474BRUNA DAYANE NUNES DA SILVA                                                                         AV DOM EUGENIO SALES 2991 308                                                                       BOCA DO RIO                   SALVADOR                                          BA                    41706670                                                                                                                                                                                                                                                          OM0000000000000000AO LADO DO CLUBE DOS MEDICOS 92718424                                                                                                                                                                                                                                                                                                                                                                                                                                                                                                                                                                        
01                              43364     90  259 9021188                                                                                   16760825917122012                                                              00081220910597ANDREIA DAMASCENO SANTANA                                                                           PRIMEIRO DE OUTUBRO 0 310                                                                           BOCA DO RIO                   SALVADOR                                          BA                    41705060                                                                                                                                                                                                                                                          OM000000000000000096503219 33712942 PROX AO CENTRO DE CONVENCOES FINAL DA RUA PROX A VENDA DE IVAN PROC DONA ANDREA                                                                                                                                                                                                                                                                                                                                                                                                                                                                                                            
01                              16224     101 259 9057492                                                                                   16760625917122012                                                              00002644132533CINTIA MARIA SANTOS PEREIRA                                                                         JOSE CHAGAS 61                                                                                      ITAPUA                        SALVADOR                                          BA                    41620230                                                                                                                                                                                                                                                          OM0000000000000000PX AO BAR DO PASCOAL SUBINO A LADEIRA PROC SINTIA 88076708                                                                                                                                                                                                                                                                                                                                                                                                                                                                                                                                                   
01                              43391     90  259 9021188                                                                                   16760525917122012                                                              00044011415472ANA CASSIA GONCALVES S SOUZA                                                                        MESTRE MANUEL 0 21                                                                                  BOCA DO RIO                   SALVADOR                                          BA                    41710795                                                                                                                                                                                                                                                          OM000000000000000091029114 ATRAS DA EMBASA DA BOCA DO RIO ENTREGAR NA INSTITUICAO DESAFIO JOVEN DE SALVADOR PROC CASSIA                                                                                                                                                                                                                                                                                                                                                                                                                                                                                                        
01                              38257     147 259 9021155                                                                                   16761125917122012                                                              00010674830474BRUNA DAYANE NUNES DA SILVA                                                                         AV DOM EUGENIO SALES 2991 308                                                                       BOCA DO RIO                   SALVADOR                                          BA                    41706670                                                                                                                                                                                                                                                          OM0000000000000000AO LADO DO CLUBE DOS MEDICOS 92718424                                                                                                                                                                                                                                                                                                                                                                                                                                                                                                                                                                        
01                              43364     90  259 9021188                                                                                   16761025917122012                                                              00081220910597ANDREIA DAMASCENO SANTANA                                                                           PRIMEIRO DE OUTUBRO 0 310                                                                           BOCA DO RIO                   SALVADOR                                          BA                    41705060                                                                                                                                                                                                                                                          OM000000000000000096503219 33712942 PROX AO CENTRO DE CONVENCOES FINAL DA RUA PROX A VENDA DE IVAN PROC DONA ANDREA                                                                                                                                                                                                                                                                                                                                                                                                                                                                                                            
01                              43364     90  259 9021188                                                                                   16760925917122012                                                              00081220910597ANDREIA DAMASCENO SANTANA                                                                           PRIMEIRO DE OUTUBRO 0 310                                                                           BOCA DO RIO                   SALVADOR                                          BA                    41705060                                                                                                                                                                                                                                                          OM000000000000000096503219 33712942 PROX AO CENTRO DE CONVENCOES FINAL DA RUA PROX A VENDA DE IVAN PROC DONA ANDREA                                                                                                                                                                                                                                                                                                                                                                                                                                                                                                            
01                              33085     141 259 9019804                                                                                   16768125917122012                                                              00078899575568SANDRA RODRIGUES STABILE                                                                            DAS HORTAS 88 E                                                                                     JARDIM LOBATO                 SALVADOR                                          BA                    40000000                                                                                                                                                                                                                                                          OM0000000000000000SUB A LADEIRA DO POSTO DE GASOL NA RUA DO LADO MERCAD BOI BOM PROC NEIA OU GINA 71 81393644 88146258                                                                                                                                                                                                                                                                                                                                                                                                                                                                                                         
01                              43438     90  259 9050478                                                                                   16759725917122012                                                              00002883480524FERNANDO FRANCO                                                                                     PROFESSOR CASSILANDRO BARBUDA 45                                                                    COSTA AZUL                    SALVADOR                                          BA                    41760110                                                                                                                                                                                                                                                          OM0000000000000000PROX A ACADEMIA ALFA FITNESS PROC FERNANDO PAULO HENRIQUE OU SILMARIA TEL 30165938                                                                                                                                                                                                                                                                                                                                                                                                                                                                                                                           
01                              43438     90  259 9050478                                                                                   16759825917122012                                                              00002883480524FERNANDO FRANCO                                                                                     PROFESSOR CASSILANDRO BARBUDA 45                                                                    COSTA AZUL                    SALVADOR                                          BA                    41760110                                                                                                                                                                                                                                                          OM0000000000000000PROX A ACADEMIA ALFA FITNESS PROC FERNANDO PAULO HENRIQUE OU SILMARIA TEL 30165938                                                                                                                                                                                                                                                                                                                                                                                                                                                                                                                           
01                              43391     90  259 9021188                                                                                   16760325917122012                                                              00044011415472ANA CASSIA GONCALVES S SOUZA                                                                        MESTRE MANUEL 0 21                                                                                  BOCA DO RIO                   SALVADOR                                          BA                    41710795                                                                                                                                                                                                                                                          OM000000000000000091029114 ATRAS DA EMBASA DA BOCA DO RIO ENTREGAR NA INSTITUICAO DESAFIO JOVEN DE SALVADOR PROC CASSIA                                                                                                                                                                                                                                                                                                                                                                                                                                                                                                        
01                              43391     90  259 9021188                                                                                   16760425917122012                                                              00044011415472ANA CASSIA GONCALVES S SOUZA                                                                        MESTRE MANUEL 0 21                                                                                  BOCA DO RIO                   SALVADOR                                          BA                    41710795                                                                                                                                                                                                                                                          OM000000000000000091029114 ATRAS DA EMBASA DA BOCA DO RIO ENTREGAR NA INSTITUICAO DESAFIO JOVEN DE SALVADOR PROC CASSIA                                                                                                                                                                                                                                                                                                                                                                                                                                                                                                        
01                              43438     90  259 9050478                                                                                   16759525917122012                                                              00002883480524FERNANDO FRANCO                                                                                     PROFESSOR CASSILANDRO BARBUDA 45                                                                    COSTA AZUL                    SALVADOR                                          BA                    41760110                                                                                                                                                                                                                                                          OM0000000000000000PROX A ACADEMIA ALFA FITNESS PROC FERNANDO PAULO HENRIQUE OU SILMARIA TEL 30165938                                                                                                                                                                                                                                                                                                                                                                                                                                                                                                                           
01                              43438     90  259 9050478                                                                                   16759625917122012                                                              00002883480524FERNANDO FRANCO                                                                                     PROFESSOR CASSILANDRO BARBUDA 45                                                                    COSTA AZUL                    SALVADOR                                          BA                    41760110                                                                                                                                                                                                                                                          OM0000000000000000PROX A ACADEMIA ALFA FITNESS PROC FERNANDO PAULO HENRIQUE OU SILMARIA TEL 30165938                                                                                                                                                                                                                                                                                                                                                                                                                                                                                                                           
01                              43086     90  259 9018012                                                                                   16770425917122012                                                              00077626001591ALTIMAR SANTOS DE SANTANA                                                                           NILTON LOPES 119                                                                                    ALTO DA TEREZINHA             SALVADOR                                          BA                    40711330                                                                                                                                                                                                                                                          OM0000007188093982TEL 71 8809 3622 REF FINAL DE LINHA ALTO DA TEREZINHA PROC CRISTIANE                                                                                                                                                                                                                                                                                                                                                                                                                                                                                                                                         
01                              30393     88  259 9020566                                                                                   16763725917122012                                                              00001689353503EDNEI SANTANA MOREIRA                                                                               LELLIS PIEDADE 8 N 97                                                                               RIBEIRA                       SALVADOR                                          BA                    40420190                                                                                                                                                                                                                                                          OM0000000000000000AO LADO SALAO SAMILA EM FRENTE ABATEDOURO ECONOMICO PROC VERA LUCIA                                                                                                                                                                                                                                                                                                                                                                                                                                                                                                                                          
01                              43113     90  259 9018012                                                                                   16770025917122012                                                              00077626001591ALTIMAR SANTOS DE SANTANA                                                                           NILTON LOPES 119                                                                                    ALTO DA TEREZINHA             SALVADOR                                          BA                    40711330                                                                                                                                                                                                                                                          OM0000007188093982TEL 71 88093982 REF FINAL DE LINHA DA TEREZINHA                                                                                                                                                                                                                                                                                                                                                                                                                                                                                                                                                              
01                              43113     90  259 9018012                                                                                   16770125917122012                                                              00077626001591ALTIMAR SANTOS DE SANTANA                                                                           NILTON LOPES 119                                                                                    ALTO DA TEREZINHA             SALVADOR                                          BA                    40711330                                                                                                                                                                                                                                                          OM0000007188093982TEL 71 88093982 REF FINAL DE LINHA DA TEREZINHA                                                                                                                                                                                                                                                                                                                                                                                                                                                                                                                                                              
01                              20877     87  259 9064321                                                                                   16763225917122012                                                              00001766842550ADAILTON SANTOS CARDOSO                                                                             JOSE GERALDO VELOSO GORDILHO 46 FUNDO                                                               URUGUAI                       SALVADOR                                          BA                    40450131                                                                                                                                                                                                                                                          OM0000000000000000PROX A OFICINA DE ADAUTO PROC ADAUTO 87335383                                                                                                                                                                                                                                                                                                                                                                                                                                                                                                                                                                
01                              43086     90  259 9018012                                                                                   16770325917122012                                                              00077626001591ALTIMAR SANTOS DE SANTANA                                                                           NILTON LOPES 119                                                                                    ALTO DA TEREZINHA             SALVADOR                                          BA                    40711330                                                                                                                                                                                                                                                          OM0000007188093982TEL 71 8809 3622 REF FINAL DE LINHA ALTO DA TEREZINHA PROC CRISTIANE                                                                                                                                                                                                                                                                                                                                                                                                                                                                                                                                         
01                              30393     88  259 9020566                                                                                   16763825917122012                                                              00001689353503EDNEI SANTANA MOREIRA                                                                               LELLIS PIEDADE 8 N 97                                                                               RIBEIRA                       SALVADOR                                          BA                    40420190                                                                                                                                                                                                                                                          OM0000000000000000AO LADO SALAO SAMILA EM FRENTE ABATEDOURO ECONOMICO PROC VERA LUCIA                                                                                                                                                                                                                                                                                                                                                                                                                                                                                                                                          
01                              33149     141 259 9034049                                                                                   16763925917122012                                                              00062904884572FABIANA DAMASIO DA SILVA                                                                            ADILSON LEITE 69                                                                                    ALTO DO CABRITO               SALVADOR                                          BA                    40484550                                                                                                                                                                                                                                                          OM0000007132396994PRX A LAN HAUSE DE TIAGO PRC TAMARA                                                                                                                                                                                                                                                                                                                                                                                                                                                                                                                                                                          
01                              33149     141 259 9034049                                                                                   16764125917122012                                                              00062904884572FABIANA DAMASIO DA SILVA                                                                            ADILSON LEITE 69                                                                                    ALTO DO CABRITO               SALVADOR                                          BA                    40484550                                                                                                                                                                                                                                                          OM0000007132396994PRX A LAN HAUSE DE TIAGO PRC TAMARA                                                                                                                                                                                                                                                                                                                                                                                                                                                                                                                                                                          
01                              20752     87  259 9050265                                                                                   16768625917122012                                                              00003444361521EDVANILDES BRANDAO COSTA                                                                            RIO NILO 86 E                                                                                       RIO SENA                      SALVADOR                                          BA                    40715510                                                                                                                                                                                                                                                          OM0000000000000000PROX AO BAR DE SANTOS PRTOC DUDU OU PIU TEL (71)87100363 OU 82792752                                                                                                                                                                                                                                                                                                                                                                                                                                                                                                                                         
01                              20806     87  259 9017161                                                                                   16762725917122012                                                              00021253692572ROQUE SENA DE JESUS                                                                                 MARIA AMARAL 150 E                                                                                  ALTO DO CABRITO               SALVADOR                                          BA                    40484340                                                                                                                                                                                                                                                          OM0000007133923788ATRAS DO POSTO DE GOSOLINA PROC SR ROQUE OU CELIA 87309926                                                                                                                                                                                                                                                                                                                                                                                                                                                                                                                                                   
01                              30502     88  259 9042255                                                                                   16762225917122012                                                              00001441843540RITA DE CASSIA CERQUEIRA DOS SANTOS                                                                 JORGE LEAL 15                                                                                       RIBEIRA                       SALVADOR                                          BA                    40421190                                                                                                                                                                                                                                                          OM000000713207668132076681 82803709 PXA COREMA PROC RITA OU EDMILSON                                                                                                                                                                                                                                                                                                                                                                                                                                                                                                                                                           
01                              22005     95  259 9018348                                                                                   16771025917122012                                                              00080640923534GISLENE AZEVEDO DE ARAUJO                                                                           CAJAZEIRAS XI 2 CAM 53 QD F                                                                         CAJAZEIRAS                    SALVADOR                                          BA                    41330030                                                                                                                                                                                                                                                          OM0000000000000000TEL 32194827 OU 87466708 NO CAMINHO DO MERCADINHO RV PROCURAR GISLENE OU EDUARDO                                                                                                                                                                                                                                                                                                                                                                                                                                                                                                                             
01                              18370     92  259 9052895                                                                                   16767625917122012                                                              00024459666553AIDA DE OLIVEIRA DOS SANTOS                                                                         COSTA SANTOS 50                                                                                     RIO SENA                      SALVADOR                                          BA                    40715530                                                                                                                                                                                                                                                          OM0000007132180570(71)32180570 - (71)87322647 ENTRADA PADARIA PANI GEL PROX CAMPO DE FUTEBOL PROC DADA OU ADRIELE                                                                                                                                                                                                                                                                                                                                                                                                                                                                                                              
01                              22001     95  259 9018041                                                                                   16772925917122012                                                              00005350630598REGINALDO DA SILVA TEIXEIRA                                                                         ALDA RIBEIRO 3 FAZ GRANDE I                                                                         BOCA DA MATA                  SALVADOR                                          BA                    41347090                                                                                                                                                                                                                                                          OM0000000000000000TEL 88590985 PROX A LOJA DE JACIRA PROC POR GAGUINHO OU REGE                                                                                                                                                                                                                                                                                                                                                                                                                                                                                                                                                 
01                              43401     90  259 9021188                                                                                   16773025917122012                                                              00081880839504LUCIANA SOARES DOS SANTOS                                                                           DA GLORIA 27 E                                                                                      AGUAS CLARAS                  SALVADOR                                          BA                    41310170                                                                                                                                                                                                                                                          OM000000713365241487079613 PROX VIADUTO DE AGUAS CLARAS E OFICINA DE CARRO PROC EVA OU VANIA                                                                                                                                                                                                                                                                                                                                                                                                                                                                                                                                   
01                              30459     88  259 9042255                                                                                   16767325917122012                                                              00076601587591TARCISIO SALES TRINDADE                                                                             SIMAO SOBRAL 57                                                                                     MASSARANDUBA                  SALVADOR                                          BA                    40435260                                                                                                                                                                                                                                                          OM0000000000000000(71)33160270 - (71)87321514 DEPOIS DOMERCADINHO SERRA PROC NAPOCA                                                                                                                                                                                                                                                                                                                                                                                                                                                                                                                                            
01                              17767     104 259 9051675                                                                                   16773625917122012                                                              00021581134568FLORACY BISPO DOS SANTOS                                                                            JUCELINO KUBTCHEK 9 E                                                                               CAJAZEIRAS 11                 SALVADOR                                          BA                    41330030                                                                                                                                                                                                                                                          OM0000007133054750CEL 33054750 NA ENTRADA DA IGREJA RENASCER NO INICIU DA RUA ANTES DO FINAL DE LINHA PROC DJALMA                                                                                                                                                                                                                                                                                                                                                                                                                                                                                                              
01                              17767     104 259 9051675                                                                                   16773725917122012                                                              00021581134568FLORACY BISPO DOS SANTOS                                                                            JUCELINO KUBTCHEK 9 E                                                                               CAJAZEIRAS 11                 SALVADOR                                          BA                    41330030                                                                                                                                                                                                                                                          OM0000007133054750CEL 33054750 NA ENTRADA DA IGREJA RENASCER NO INICIU DA RUA ANTES DO FINAL DE LINHA PROC DJALMA                                                                                                                                                                                                                                                                                                                                                                                                                                                                                                              
01                              20825     87  259 9018040                                                                                   16764625917122012                                                              00056521898515JANICE ALMEIDA DA SILVA SANTOS                                                                      LUIZ REGIS PACHECO 346                                                                              URUGUAI                       SALVADOR                                          BA                    40451360                                                                                                                                                                                                                                                          OM0000007132137849EM FRENTE A BRAS GAS PRX ASSISTENCIA TECNICA SEMP TOSHIBA 81439746    825843789                                                                                                                                                                                                                                                                                                                                                                                                                                                                                                                              
01                              33247     141 259 9039794                                                                                   16766125917122012                                                              00001079175563JAMILE N DE SOUZA                                                                                   DEMOSTENES NASCIMENTO 6 PK                                                                          PERIPERI                      SALVADOR                                          BA                    40735560                                                                                                                                                                                                                                                          OM0000000000000000TE91677118/3308-4362 AOLADO DO MERCADINHO CALEBY NA NA SEGUND QUADEA DA RUA DA FEIRA MERCADINHOPERIPERI PC JAMILEOU JACI                                                                                                                                                                                                                                                                                                                                                                                                                                                                                     
02                                         628802                        38026     155940    RACK EDN MALIBU IMB/PTO                                                                             1                      20122012                                                                                                                                                                                                                                                          000000000000000000000000000000000000000200                                                                                                                                                                                                                                                                                                                                                                                                                                                                                                                                                                                                                                                                                                                                                                                                                                                                                                                    
02                                         628803                        37833     139510    BALC.ITAT.2P/4G PREMIUM BR                                                                          1                      20122012                                                                                                                                                                                                                                                          000000000000000000000000000000000000000100                                                                                                                                                                                                                                                                                                                                                                                                                                                                                                                                                                                                                                                                                                                                                                                                                                                                                                                    
02                                         628804                        16159     151240    CJ SALA JANTAR MD RAVENNA 4C IMB/PTO                                                                1                      20122012                                                                                                                                                                                                                                                          000000000000000000000000000000000000000100                                                                                                                                                                                                                                                                                                                                                                                                                                                                                                                                                                                                                                                                                                                                                                                                                                                                                                                    
02                                         628805                        37752     139498    KIT ITAT.I3 VID PREMIUM 6P/3G BR                                                                    1                      20122012                                                                                                                                                                                                                                                          000000000000000000000000000000000000000100                                                                                                                                                                                                                                                                                                                                                                                                                                                                                                                                                                                                                                                                                                                                                                                                                                                                                                                    
02                                         628806                        38196     139539    COZ ITATIAIA SUPREMA NOG/S LAC                                                                      1                      20122012                                                                                                                                                                                                                                                          000000000000000000000000000000000000000100                                                                                                                                                                                                                                                                                                                                                                                                                                                                                                                                                                                                                                                                                                                                                                                                                                                                                                                    
02                                         628807                        12198     156365    RACK DJ AQUILA NOG/PTO                                                                              1                      20122012                                                                                                                                                                                                                                                          000000000000000000000000000000000000000100                                                                                                                                                                                                                                                                                                                                                                                                                                                                                                                                                                                                                                                                                                                                                                                                                                                                                                                    
02                                         628808                        14735     154742    G.ROUPA EURO 3P RUBI BR/PTO/BR                                                                      1                      20122012                                                                                                                                                                                                                                                          000000000000000000000000000000000000000100                                                                                                                                                                                                                                                                                                                                                                                                                                                                                                                                                                                                                                                                                                                                                                                                                                                                                                                    
02                                         628809                        12230     131633    COMODA ARAPLAC BRASIL 1P 4G BR/LIL                                                                  1                      20122012                                                                                                                                                                                                                                                          000000000000000000000000000000000000000100                                                                                                                                                                                                                                                                                                                                                                                                                                                                                                                                                                                                                                                                                                                                                                                                                                                                                                                    
02                                         628810                        43062     152459    BALCAO LUCIANE CHIARA 2P4G PAT/GRIG                                                                 1                      20122012                                                                                                                                                                                                                                                          000000000000000000000000000000000000000400                                                                                                                                                                                                                                                                                                                                                                                                                                                                                                                                                                                                                                                                                                                                                                                                                                                                                                                    
02                                         628811                        22040     154474    COMODA ESC RV IMOLA II CARV/PTO                                                                     1                      20122012                                                                                                                                                                                                                                                          000000000000000000000000000000000000000100                                                                                                                                                                                                                                                                                                                                                                                                                                                                                                                                                                                                                                                                                                                                                                                                                                                                                                                    
02                                         628812                        43212     138034    G.ROUPA ARAPLAC 10P ATL PLUS TB/BR                                                                  1                      20122012                                                                                                                                                                                                                                                          000000000000000000000000000000000000000100                                                                                                                                                                                                                                                                                                                                                                                                                                                                                                                                                                                                                                                                                                                                                                                                                                                                                                                    
02                                         628813                        43062     152436    ARM.GEL.LUCIANE CHIARA GRIG                                                                         1                      20122012                                                                                                                                                                                                                                                          000000000000000000000000000000000000000200                                                                                                                                                                                                                                                                                                                                                                                                                                                                                                                                                                                                                                                                                                                                                                                                                                                                                                                    
02                                         628814                        43062     152415    PAN LUCIANE CHIARA 4P GRIG                                                                          1                      20122012                                                                                                                                                                                                                                                          000000000000000000000000000000000000000300                                                                                                                                                                                                                                                                                                                                                                                                                                                                                                                                                                                                                                                                                                                                                                                                                                                                                                                    
02                                         628815                        38026     137039    CADEIRA RUFATO BARCELONA AMEN/PTO                                                                   6                      20122012                                                                                                                                                                                                                                                          000000000000000000000000000000000000000400                                                                                                                                                                                                                                                                                                                                                                                                                                                                                                                                                                                                                                                                                                                                                                                                                                                                                                                    
02                                         628816                        38026     137002    MESA RUFATO BARCELONA VD1.60 AMEN/PTO                                                               1                      20122012                                                                                                                                                                                                                                                          000000000000000000000000000000000000000500                                                                                                                                                                                                                                                                                                                                                                                                                                                                                                                                                                                                                                                                                                                                                                                                                                                                                                                    
02                                         628817                        38257     156361    PAINEL DJ ASTRO CARV/PTO                                                                            1                      20122012                                                                                                                                                                                                                                                          000000000000000000000000000000000000000400                                                                                                                                                                                                                                                                                                                                                                                                                                                                                                                                                                                                                                                                                                                                                                                                                                                                                                                    
02                                         628818                        43364     138034    G.ROUPA ARAPLAC 10P ATL PLUS TB/BR                                                                  1                      20122012                                                                                                                                                                                                                                                          000000000000000000000000000000000000000100                                                                                                                                                                                                                                                                                                                                                                                                                                                                                                                                                                                                                                                                                                                                                                                                                                                                                                                    
02                                         628819                        16224     138035    G.ROUPA ARAPLAC 10P ATL PLUS TB/AM                                                                  1                      20122012                                                                                                                                                                                                                                                          000000000000000000000000000000000000000100                                                                                                                                                                                                                                                                                                                                                                                                                                                                                                                                                                                                                                                                                                                                                                                                                                                                                                                    
02                                         628820                        43391     87751     BELICHE FRITZ IPANEMA BR                                                                            1                      20122012                                                                                                                                                                                                                                                          000000000000000000000000000000000000000300                                                                                                                                                                                                                                                                                                                                                                                                                                                                                                                                                                                                                                                                                                                                                                                                                                                                                                                    
02                                         628821                        38257     156368    RACK DJ GALAX CARV/PTO                                                                              1                      20122012                                                                                                                                                                                                                                                          000000000000000000000000000000000000000100                                                                                                                                                                                                                                                                                                                                                                                                                                                                                                                                                                                                                                                                                                                                                                                                                                                                                                                    
