00                       20121219093417PREVIMONT                     RICARDO ELETRO                                                                                      64282601004457     99958     ATRE - CENTRAL DE MONTAGENS RE                                                                                                                                                                                                                                                                                                                                                                                                                                                                                                                                                                                                                                                                                                                                                                                                                                                                                                                                                                                                                                                                                                                                                                                                                    
01                              18865     111 259 9052829                                                                                   17030425919122012                                                              00070073295515JUCILENE ARAUJO DE SOUSA                                                                            WANDERLEY PINHO 30 PROX AMERCEARIA DE TONHO                                                         SAO CAETANO                   SALVADOR                                          BA                    40390150                                                                                                                                                                                                                                                          OM0000007132148420PROC DONA GELINA PROX A MERCEARIA DE TONHO TEL 87756151 34033303                                                                                                                                                                                                                                                                                                                                                                                                                                                                                                                                             
01                              30759     88  259 9042255                                                                                   17004925919122012                                                              00081922213500MARCIA DANIELA F DOS SANTOS                                                                         COLINA AZUL 104 BL 131 A                                                                            PAU DA LIMA                   SALVADOR                                          BA                    41245000                                                                                                                                                                                                                                                          OM0000000000000000(71)88994780 - (71)86340505 FN DE LINHA DECOLINA AZUL DESC P MAX ATACADO PROC QUEILA OU ANDREZA                                                                                                                                                                                                                                                                                                                                                                                                                                                                                                              
01                              20827     220 259 9028545                                                                                   16950025918122012                                                              00081175620572ANIBAL ARAUJO DOS SANTOS                                                                            ALEOMAR BALEIEIRO 301 RES.SAO PAULO 301                                                             JARDIM NOVA ESPERANCA         SALVADOR                                          BA                    40000100                                                                                                                                                                                                                                                          OM0000007131781879CL RETIRA                                                                                                                                                                                                                                                                                                                                                                                                                                                                                                                                                                                                    
01                              16358     101 259 9065471                                                                                   16977125919122012                                                              00003784964508JESSICASOUSADA SILVA                                                                                MANDACARU 76 76E  NO BECO                                                                           NOVA BRASILIA DE ITAPUAN      SALVADOR                                          BA                    41630150                                                                                                                                                                                                                                                          OM0000007132854193(71)32854193 - (71)81325326 ATRAS DO CAMPO DE FUTEBOL DO ABAETE PROC JESSICA                                                                                                                                                                                                                                                                                                                                                                                                                                                                                                                                 
01                              38751     147 259 9020483                                                                                   16985025919122012                                                              00003789255556JEFERSON NASCIMENTO DA SILVA                                                                        MORAIS 77 2/ANDAR                                                                                   PERNAMBUES                    SALVADOR                                          BA                    41100208                                                                                                                                                                                                                                                          OM0000000000000000SEM  APANHA  /81124217/81547931/ PX AO BAR DO BOY FINAL DE LINHA DE PERNAMBUES  DESC A 1. DE MAIO                                                                                                                                                                                                                                                                                                                                                                                                                                                                                                            
01                              38751     147 259 9020483                                                                                   16984925919122012                                                              00003789255556JEFERSON NASCIMENTO DA SILVA                                                                        MORAIS 77 2/ANDAR                                                                                   PERNAMBUES                    SALVADOR                                          BA                    41100208                                                                                                                                                                                                                                                          OM0000000000000000SEM  APANHA  /81124217/81547931/ PX AO BAR DO BOY FINAL DE LINHA DE PERNAMBUES  DESC A 1. DE MAIO                                                                                                                                                                                                                                                                                                                                                                                                                                                                                                            
01                              16389     101 259 9047353                                                                                   16962425919122012                                                              00051538881500GILSON MATOS SILVA                                                                                  24 DE JUNHO 3 PRIM ANDAR  PITUACU                                                                   BOCA DO RIO                   SALVADOR                                          BA                    41700000                                                                                                                                                                                                                                                          OM0000007134611111DEPOIS DO CONDOM PARQ DO SOL  PROC GILSON OU ELIANE 86235246                                                                                                                                                                                                                                                                                                                                                                                                                                                                                                                                                 
01                              14290     107 259 9065672                                                                                   16959825919122012                                                              00088038513568MARCIA CRISTINA DOS SANTOS                                                                          MARANHAO 461 403 ED PRIA DE IRTERLAGOS                                                              PITUBA                        SALVADOR                                          BA                    41830260                                                                                                                                                                                                                                                          OM0000000000000000PROX AO MARRATA COLADO A LAGOAS DOS PATOS PROC DANILA TEL 32404285 OU 87076879                                                                                                                                                                                                                                                                                                                                                                                                                                                                                                                               
01                              29836     88  259 9020566                                                                                   16984525919122012                                                              00021262926572CELMA GOMES CUNHA                                                                                   MAXIMO MACAMBYRA 15                                                                                 PERNAMBUES                    SALVADOR                                          BA                    41100710                                                                                                                                                                                                                                                          OM0000000000000000RUA EM FRENTE ISBOOT PROC SELMA OU LUCAS                                                                                                                                                                                                                                                                                                                                                                                                                                                                                                                                                                     
01                              29799     88  259 9020566                                                                                   17030825919122012                                                              00023265574504EVANDRO DE OLIVEIRA BATISTA                                                                         LEAL 79                                                                                             CAMPINAS DE PIRAJA            SALVADOR                                          BA                    41275186                                                                                                                                                                                                                                                          OM0000000000000000PX ESTACAO PIRAJA E BAR DE ANTONIO PROC ROCHELE OU LINDA TEL 83974987                                                                                                                                                                                                                                                                                                                                                                                                                                                                                                                                        
01                              18807     111 259 9021267                                                                                   17030725919122012                                                              00087066386515MIRIAN ARCANJO SANTOS ANDRADE                                                                       APOLINARIO 29 E ESTRADA VELHA DE SAO CAETANO                                                        SAO CAETANO                   SALVADOR                                          BA                    40391190                                                                                                                                                                                                                                                          OM0000000000000000TROCA COM APANHA 88059908 PX A SORVETERIA E VIDRACARIA PROC DONA MIRIAN OU SEU CARLINHOS DUV LIG 33031763                                                                                                                                                                                                                                                                                                                                                                                                                                                                                                    
01                              15898     101 259 9057491                                                                                   16961625919122012                                                              00080842380515GRACIELE JESUS DA SILVA                                                                             RECANTO DOS COQUEIROS 23 E                                                                          PITUACU                       SALVADOR                                          BA                    41741210                                                                                                                                                                                                                                                          OM0000000000000000PX  A IGREJA CATOLICA PROC GUTIERRES  CEL 99060576 32315081                                                                                                                                                                                                                                                                                                                                                                                                                                                                                                                                                  
01                              18884     111 259 9050254                                                                                   17031925919122012                                                              00090881745553CARLOS ANTONIO FERREIRA BARRETO                                                                     ESTRADA VELHA DE CAMPINAS 93 E                                                                      PIRAJA                        SALVADOR                                          BA                    40000000                                                                                                                                                                                                                                                          OM0000007132464177EMFRENTE MADEIREIRA VIPLAK PROC CARLOS TEL 32464177 87655055                                                                                                                                                                                                                                                                                                                                                                                                                                                                                                                                                 
01                              38473     147 259 9021192                                                                                   16895625918122012                                                              00053655532504SERGIO LIMA DOS SANTOS                                                                              JANDIRA 18 FORMIGA                                                                                  SAO CAETANO                   SALVADOR                                          BA                    40390165                                                                                                                                                                                                                                                          OM0000007132140981(71)32140981 - (71)88856535 PROX AO BAR DO GUEDES PROC NAIR                                                                                                                                                                                                                                                                                                                                                                                                                                                                                                                                                  
01                              38624     147 259 9025445                                                                                   16961925919122012                                                              00001234106574RICARDO HENRIQUE MAIA DA COSTA                                                                      SAO JUDAS TADEU 5 B                                                                                 BOCA DO RIO                   SALVADOR                                          BA                    41706870                                                                                                                                                                                                                                                          OM0000000000000000TROCA SEM APANHA TEL 32322784 - (71)93327649 NA ESQUINA DA ELETROLUC PROC DONA NAI SEM APANHA                                                                                                                                                                                                                                                                                                                                                                                                                                                                                                                
01                              38473     147 259 9021192                                                                                   16895725918122012                                                              00053655532504SERGIO LIMA DOS SANTOS                                                                              JANDIRA 18 FORMIGA                                                                                  SAO CAETANO                   SALVADOR                                          BA                    40390165                                                                                                                                                                                                                                                          OM0000007132140981(71)32140981 - (71)88856535 PROX AO BAR DO GUEDES PROC NAIR                                                                                                                                                                                                                                                                                                                                                                                                                                                                                                                                                  
01                              30746     88  259 9042255                                                                                   17032625919122012                                                              00022943790559MARIA DAS CANDEIAS S DE JESUS                                                                       ESPERANTO 102 EDF EDILENA                                                                           SAO CAETANO                   SALVADOR                                          BA                    40391232                                                                                                                                                                                                                                                          OM0000000000000000                                                                                                                                                                                                                                                                                                                                                                                                                                                                                                                                                                                                             
01                              22275     95  259 121434                                                                                    16975825919122012                                                              00078974976587MARLENE RIBEIRO                                                                                     AV SAO CRISTOVAO 4 ESTRADA DO FIDALGO BARRAGEM                                                      SAO CRISTOVAO                 SALVADOR                                          BA                    41500000                                                                                                                                                                                                                                                          OM0000007133650377DEPOIS DA FABRICA UNIAO 81631705 PROC SILNVANIA OU MARLENE LIGAR ANTES                                                                                                                                                                                                                                                                                                                                                                                                                                                                                                                                       
01                              32625     141 259 9019804                                                                                   17008125919122012                                                              00003260403582NAIANE DOS SANTOS DE JESUS                                                                          NILO PECANHA 66 NO IRAQUE FAZ COUTOS III                                                            NOVA BRASILIA DE VALERIA      SALVADOR                                          BA                    41306795                                                                                                                                                                                                                                                          OM0000000000000000PROX A RUA DO COLEGIO ITALO GALDENCE LADO DIREIT DO POSTO DE GASOL PROC SORAIA 71 81173574                                                                                                                                                                                                                                                                                                                                                                                                                                                                                                                   
01                              20260     96  259 9021265                                                                                   17032425919122012                                                              00051334046549SANDRA REGINA BISPO DOS SANTOS                                                                      LUAN BRAGA 62 E                                                                                     CAMPINAS DE PIRAJA            SALVADOR                                          BA                    41275148                                                                                                                                                                                                                                                          OM0000007133917404PROX A BORRACHARIA DE BAIXINHO PROC LILI DA VENDA ENF AO PARQUE CONDOMIO P LILI T87270599 E 33917404                                                                                                                                                                                                                                                                                                                                                                                                                                                                                                         
01                              30746     88  259 9042255                                                                                   17032525919122012                                                              00022943790559MARIA DAS CANDEIAS S DE JESUS                                                                       ESPERANTO 102 EDF EDILENA                                                                           SAO CAETANO                   SALVADOR                                          BA                    40391232                                                                                                                                                                                                                                                          OM0000000000000000(71)30353423 - (71)82901990 PX A IG UNIVERSAL PROC GABRIELA OU MARIA                                                                                                                                                                                                                                                                                                                                                                                                                                                                                                                                         
01                              20287     96  259 9021306                                                                                   17007925919122012                                                              00074920383568JORGE DE JESUS                                                                                      JAGUARIPE I RUA B 4 CAMINHO 22                                                                      NOVA BRASILIA                 SALVADOR                                          BA                    41350250                                                                                                                                                                                                                                                          OM000000713212842532128425 - 87606260 PX AO BAR DA GEMIAS Q E DEPODITO DE BEBIDAS E COLEGIO PADRE UGO PROC NICE DE JESUS                                                                                                                                                                                                                                                                                                                                                                                                                                                                                                       
01                              17355     104 259 9065012                                                                                   17007425919122012                                                              00000688174523ROSE MARIA COSTA RANGEL DA SILVA                                                                    NOSSA SENHORA DOS AFLITOS 273 E                                                                     JARDIM NOVA ESPERANCA         SALVADOR                                          BA                    41370090                                                                                                                                                                                                                                                          OM000000713409116091142993 91089029 PROX A IGREJA ASSEBLEIA DE DEUS PROC IVAN DA KOMBI                                                                                                                                                                                                                                                                                                                                                                                                                                                                                                                                         
01                              32667     141 259 9050229                                                                                   17000825919122012                                                              00082913390587ANA CARLA DO CARMO                                                                                  NOVA BRASILIA 458                                                                                   VALERIA                       SALVADOR                                          BA                    41300480                                                                                                                                                                                                                                                          OM0000007132912796PX AO CENTRO EDUCACIONAL VITORIA PC CARLA 32912796 88032922                                                                                                                                                                                                                                                                                                                                                                                                                                                                                                                                                  
01                              21021     220 259 9027169                                                                                   17006825919122012                                                              00007267494510CLAUDIA OILVEIRA DOS SANTOS                                                                         PAULO SERGIO 3                                                                                      NOVA BRASILIA DA ESTRADA VELHASALVADOR                                          BA                    41350520                                                                                                                                                                                                                                                          OM0000000000000000FON 84009148 OU 81395810 PROX AO MERCADINHO VILA MAR PROC RICARDO MARIDO DE ROSA POR FAV LIG ANTES                                                                                                                                                                                                                                                                                                                                                                                                                                                                                                           
01                              15834     101 259 9057491                                                                                   16978325919122012                                                              00003353989528MARIANA JESUS DOS SANTOS                                                                            EDMUNDO SPINOLA 32                                                                                  ITAPUA                        SALVADOR                                          BA                    41630630                                                                                                                                                                                                                                                          OM0000000000000000APOS O BAR DE ORLANDO SUBINDO A LADEIRA PROC MARIA OU DONA XANDA CEL 82876686                                                                                                                                                                                                                                                                                                                                                                                                                                                                                                                                
01                              43939     90  259 9021175                                                                                   17006625919122012                                                              00005590823552MATEUS VINICIUS CARVALHO SANTOS                                                                     ALIOMAR BALEEIRO 0 SAO LOURENCO BL 11 APTO 004                                                      JARDIM NOVA ESPERANCA         SALVADOR                                          BA                    41370045                                                                                                                                                                                                                                                          OM000000000000000087236911  REF PX A ACADEMIA PORTO VIDA PROC MATEUS                                                                                                                                                                                                                                                                                                                                                                                                                                                                                                                                                           
01                              16359     101 259 9065471                                                                                   16978625919122012                                                              00015324630578IVONE CORREIA DE ANDRADE                                                                            DA TRANQUILIDADE 21                                                                                 ITAPUA                        SALVADOR                                          BA                    41630520                                                                                                                                                                                                                                                          OM0000000000000000PX A CHURRASCARIA DO GALEGO AO LD DO LABORATORIO LEME PROC IVONE OU RODRIGUES                                                                                                                                                                                                                                                                                                                                                                                                                                                                                                                                
01                              21063     87  259 9018040                                                                                   17013425919122012                                                              00003468152582ROGERIO SILVA NASCIMENTO                                                                            ANTONIO TEIXEIRA 4 MIRANTE                                                                          MARECHAL RONDON               SALVADOR                                          BA                    41280390                                                                                                                                                                                                                                                          OM0000000000000000FINAL DE LINHA RUA 3 PROX BAR DE BAIXAO PRC DILMA OU ROGERIO 88452398                                                                                                                                                                                                                                                                                                                                                                                                                                                                                                                                        
01                              14865     107 259 9062623                                                                                   16960525919122012                                                              00063299976591CARLA  GOMES VIEIRA                                                                                 SILVIO VALENTE 235 307 EDF PLANALTO                                                                 ITAIGARA                      SALVADOR                                          BA                    41815370                                                                                                                                                                                                                                                          OM0000000000000000PROX AO COLEGIO ANCHIETA ATRAS DO SHOPPING ITAIGARA PROC CARLA OU LUIZ TEL 91568214 OU 99670323                                                                                                                                                                                                                                                                                                                                                                                                                                                                                                              
01                              22308     95  259 9018065                                                                                   17000625919122012                                                              00070593582500ELENICE ANUCIASSAO NEVES                                                                            AMILTON AMARANTES 3                                                                                 AGUAS CLARAS                  SALVADOR                                          BA                    41311332                                                                                                                                                                                                                                                          OM000000718847003288470032 E 86373244 ENTRADA DO MERCADO MACHADO PROC DEBORA CUNHADA DE DUDU                                                                                                                                                                                                                                                                                                                                                                                                                                                                                                                                   
01                              9355      125 259 9050762                                                                                   17000525919122012                                                              00071701222515JOSE RUBENS BERNARDO DE JESUS                                                                       BONSUCESSO 39                                                                                       PALESTINA                     SALVADOR                                          BA                    41308220                                                                                                                                                                                                                                                          OM0000007196223812AO LADO DO MERCADO TRES ESTRELAS PROC BINHA OU RUBENS                                                                                                                                                                                                                                                                                                                                                                                                                                                                                                                                                        
01                              20311     96  259 9021265                                                                                   17000325919122012                                                              00078807417553CLEIDINEIA DO BOMFIM                                                                                RAPOSO TAVARES 77 CASA                                                                              DOM AVELAR                    SALVADOR                                          BA                    41315120                                                                                                                                                                                                                                                          OM0000007132115932PROX ACRECHE RENOVACAO E BAR DO SR VICENTE ANTES DO FINAL DE LINHA P AILTON T81259951 E 83609012                                                                                                                                                                                                                                                                                                                                                                                                                                                                                                             
01                              38795     147 259 9021190                                                                                   16997425919122012                                                              00001203033532CASERNA REGINA DE OLIVEIRA VENTURA                                                                  DA CARMOSINA 56                                                                                     BARROS REIS                   SALVADOR                                          BA                    40000000                                                                                                                                                                                                                                                          OM000000000000000086679711 REF ENTRANDO AO LADO DOPOSTO TEXACO NO FINAL DA RUA PROC REGINA OU CASSINHA                                                                                                                                                                                                                                                                                                                                                                                                                                                                                                                         
01                              17955     104 259 9028604                                                                                   17006025919122012                                                              00049021702568GILDASIO SANTOS DA SILVA                                                                            MARIA AMELIA 15 E                                                                                   SAO MARCOS                    SALVADOR                                          BA                    41253530                                                                                                                                                                                                                                                          OM000000713213775887592012  32137758 ATRAS DO COLEGIO MARIA AMELIA PORTAO PRINCIPAL DO COLEGIO PROC GILDO OU SILENE                                                                                                                                                                                                                                                                                                                                                                                                                                                                                                            
02                                         631019                        18865     138034    G.ROUPA ARAPLAC 10P ATL PLUS TB/BR                                                                  1                      24122012                                                                                                                                                                                                                                                          000000000000000000000000000000000000000100                                                                                                                                                                                                                                                                                                                                                                                                                                                                                                                                                                                                                                                                                                                                                                                                                                                                                                                    
02                                         631020                        30759     87751     BELICHE FRITZ IPANEMA BR                                                                            1                      24122012                                                                                                                                                                                                                                                          000000000000000000000000000000000000000100                                                                                                                                                                                                                                                                                                                                                                                                                                                                                                                                                                                                                                                                                                                                                                                                                                                                                                                    
02                                         631021                        20827     152440    ARM.LUCIANE ANGRA BASC PTO/TRAM                                                                     1                      24122012                                                                                                                                                                                                                                                          000000000000000000000000000000000000000100                                                                                                                                                                                                                                                                                                                                                                                                                                                                                                                                                                                                                                                                                                                                                                                                                                                                                                                    
02                                         631022                        16358     152475    BALCAO LUCIANE ANGRA 2P4G PTO/TRAM                                                                  1                      24122012                                                                                                                                                                                                                                                          000000000000000000000000000000000000000100                                                                                                                                                                                                                                                                                                                                                                                                                                                                                                                                                                                                                                                                                                                                                                                                                                                                                                                    
02                                         631023                        38751     154334    CADEIRA RV ESMERALDA CARV/PTO                                                                       2                      24122012                                                                                                                                                                                                                                                          000000000000000000000000000000000000000200                                                                                                                                                                                                                                                                                                                                                                                                                                                                                                                                                                                                                                                                                                                                                                                                                                                                                                                    
02                                         631024                        38751     154334    CADEIRA RV ESMERALDA CARV/PTO                                                                       2                      24122012                                                                                                                                                                                                                                                          000000000000000000000000000000000000000100                                                                                                                                                                                                                                                                                                                                                                                                                                                                                                                                                                                                                                                                                                                                                                                                                                                                                                                    
02                                         631025                        16389     152475    BALCAO LUCIANE ANGRA 2P4G PTO/TRAM                                                                  1                      24122012                                                                                                                                                                                                                                                          000000000000000000000000000000000000000100                                                                                                                                                                                                                                                                                                                                                                                                                                                                                                                                                                                                                                                                                                                                                                                                                                                                                                                    
02                                         631026                        14290     152556    KIT COZ.IRMOL ACUCENA BR/PTO                                                                        1              2001121624122012                                                                                                                                                                                                                                                          000000000000000000000000000000000000000100                                                                                                                                                                                                                                                                                                                                                                                                                                                                                                                                                                                                                                                                                                                                                                                                                                                                                                                    
02                                         631027                        29836     156754    KIT COZ.IRMOL ACUCENA BR/GRIG                                                                       1              2001121624122012                                                                                                                                                                                                                                                          000000000000000000000000000000000000000100                                                                                                                                                                                                                                                                                                                                                                                                                                                                                                                                                                                                                                                                                                                                                                                                                                                                                                                    
02                                         631028                        29799     152556    KIT COZ.IRMOL ACUCENA BR/PTO                                                                        1              2001121624122012                                                                                                                                                                                                                                                          000000000000000000000000000000000000000100                                                                                                                                                                                                                                                                                                                                                                                                                                                                                                                                                                                                                                                                                                                                                                                                                                                                                                                    
02                                         631029                        18807     138068    G.ROUPA ARAPLAC 12P DAKAR PLUS TB/AM                                                                1                      24122012                                                                                                                                                                                                                                                          000000000000000000000000000000000000000100                                                                                                                                                                                                                                                                                                                                                                                                                                                                                                                                                                                                                                                                                                                                                                                                                                                                                                                    
02                                         631030                        15898     152556    KIT COZ.IRMOL ACUCENA BR/PTO                                                                        1              2001121624122012                                                                                                                                                                                                                                                          000000000000000000000000000000000000000100                                                                                                                                                                                                                                                                                                                                                                                                                                                                                                                                                                                                                                                                                                                                                                                                                                                                                                                    
02                                         631031                        18884     40001     COZ ITATIAIA ANITA BR                                                                               1                      24122012                                                                                                                                                                                                                                                          000000000000000000000000000000000000000100                                                                                                                                                                                                                                                                                                                                                                                                                                                                                                                                                                                                                                                                                                                                                                                                                                                                                                                    
02                                         631032                        38473     156368    RACK DJ GALAX CARV/PTO                                                                              1                      24122012                                                                                                                                                                                                                                                          000000000000000000000000000000000000000100                                                                                                                                                                                                                                                                                                                                                                                                                                                                                                                                                                                                                                                                                                                                                                                                                                                                                                                    
02                                         631033                        38624     154594    G.ROUPA EURO 2P ESP.GALATA BR/PTO                                                                   1                      24122012                                                                                                                                                                                                                                                          000000000000000000000000000000000000000100                                                                                                                                                                                                                                                                                                                                                                                                                                                                                                                                                                                                                                                                                                                                                                                                                                                                                                                    
02                                         631034                        38473     156361    PAINEL DJ ASTRO CARV/PTO                                                                            1                      24122012                                                                                                                                                                                                                                                          000000000000000000000000000000000000000200                                                                                                                                                                                                                                                                                                                                                                                                                                                                                                                                                                                                                                                                                                                                                                                                                                                                                                                    
02                                         631035                        30746     155938    RACK EDN MALIBU EBA/PTO                                                                             1                      24122012                                                                                                                                                                                                                                                          000000000000000000000000000000000000000300                                                                                                                                                                                                                                                                                                                                                                                                                                                                                                                                                                                                                                                                                                                                                                                                                                                                                                                    
02                                         631036                        22275     138035    G.ROUPA ARAPLAC 10P ATL PLUS TB/AM                                                                  1                      24122012                                                                                                                                                                                                                                                          000000000000000000000000000000000000000100                                                                                                                                                                                                                                                                                                                                                                                                                                                                                                                                                                                                                                                                                                                                                                                                                                                                                                                    
02                                         631037                        32625     152556    KIT COZ.IRMOL ACUCENA BR/PTO                                                                        1              2001121624122012                                                                                                                                                                                                                                                          000000000000000000000000000000000000000100                                                                                                                                                                                                                                                                                                                                                                                                                                                                                                                                                                                                                                                                                                                                                                                                                                                                                                                    
02                                         631038                        20260     138034    G.ROUPA ARAPLAC 10P ATL PLUS TB/BR                                                                  1                      24122012                                                                                                                                                                                                                                                          000000000000000000000000000000000000000100                                                                                                                                                                                                                                                                                                                                                                                                                                                                                                                                                                                                                                                                                                                                                                                                                                                                                                                    
02                                         631039                        30746     141553    CJ SALA JANTAR ORTIZ VALENCIA 6C TB/BR                                                              1                      24122012                                                                                                                                                                                                                                                          000000000000000000000000000000000000000100                                                                                                                                                                                                                                                                                                                                                                                                                                                                                                                                                                                                                                                                                                                                                                                                                                                                                                                    
02                                         631040                        20287     152537    G.ROUPA IRMOL 4P4G GRAMADO PTO/GRIGIO                                                               1                      24122012                                                                                                                                                                                                                                                          000000000000000000000000000000000000000100                                                                                                                                                                                                                                                                                                                                                                                                                                                                                                                                                                                                                                                                                                                                                                                                                                                                                                                    
02                                         631041                        17355     156754    KIT COZ.IRMOL ACUCENA BR/GRIG                                                                       1              2001121624122012                                                                                                                                                                                                                                                          000000000000000000000000000000000000000100                                                                                                                                                                                                                                                                                                                                                                                                                                                                                                                                                                                                                                                                                                                                                                                                                                                                                                                    
02                                         631042                        32667     152556    KIT COZ.IRMOL ACUCENA BR/PTO                                                                        1              2001121624122012                                                                                                                                                                                                                                                          000000000000000000000000000000000000000200                                                                                                                                                                                                                                                                                                                                                                                                                                                                                                                                                                                                                                                                                                                                                                                                                                                                                                                    
02                                         631043                        21021     40001     COZ ITATIAIA ANITA BR                                                                               1                      24122012                                                                                                                                                                                                                                                          000000000000000000000000000000000000000100                                                                                                                                                                                                                                                                                                                                                                                                                                                                                                                                                                                                                                                                                                                                                                                                                                                                                                                    
02                                         631044                        15834     156754    KIT COZ.IRMOL ACUCENA BR/GRIG                                                                       1              2001121624122012                                                                                                                                                                                                                                                          000000000000000000000000000000000000000200                                                                                                                                                                                                                                                                                                                                                                                                                                                                                                                                                                                                                                                                                                                                                                                                                                                                                                                    
02                                         631045                        43939     40001     COZ ITATIAIA ANITA BR                                                                               1                      24122012                                                                                                                                                                                                                                                          000000000000000000000000000000000000000200                                                                                                                                                                                                                                                                                                                                                                                                                                                                                                                                                                                                                                                                                                                                                                                                                                                                                                                    
02                                         631046                        16359     138034    G.ROUPA ARAPLAC 10P ATL PLUS TB/BR                                                                  1                      24122012                                                                                                                                                                                                                                                          000000000000000000000000000000000000000100                                                                                                                                                                                                                                                                                                                                                                                                                                                                                                                                                                                                                                                                                                                                                                                                                                                                                                                    
02                                         631047                        21063     159054    G.ROUPA ARAPLAC 12P DAKAR PLUS BR/TB                                                                1                      24122012                                                                                                                                                                                                                                                          000000000000000000000000000000000000000100                                                                                                                                                                                                                                                                                                                                                                                                                                                                                                                                                                                                                                                                                                                                                                                                                                                                                                                    
02                                         631048                        14865     155902    MESA COMP.EDN VALENTINA EBA/PTO                                                                     1                      24122012                                                                                                                                                                                                                                                          000000000000000000000000000000000000000100                                                                                                                                                                                                                                                                                                                                                                                                                                                                                                                                                                                                                                                                                                                                                                                                                                                                                                                    
02                                         631049                        22308     154814    CAMA CS EURO MONALISA CAST/PTO/CAST                                                                 1                      24122012                                                                                                                                                                                                                                                          000000000000000000000000000000000000000100                                                                                                                                                                                                                                                                                                                                                                                                                                                                                                                                                                                                                                                                                                                                                                                                                                                                                                                    
02                                         631050                        9355      152556    KIT COZ.IRMOL ACUCENA BR/PTO                                                                        1              2001121624122012                                                                                                                                                                                                                                                          000000000000000000000000000000000000000100                                                                                                                                                                                                                                                                                                                                                                                                                                                                                                                                                                                                                                                                                                                                                                                                                                                                                                                    
02                                         631051                        20311     138035    G.ROUPA ARAPLAC 10P ATL PLUS TB/AM                                                                  1                      24122012                                                                                                                                                                                                                                                          000000000000000000000000000000000000000100                                                                                                                                                                                                                                                                                                                                                                                                                                                                                                                                                                                                                                                                                                                                                                                                                                                                                                                    
02                                         631052                        38795     151214    CJ SALA JANTAR MD RAVENNA 6C IMB/PTO                                                                1                      24122012                                                                                                                                                                                                                                                          000000000000000000000000000000000000000100                                                                                                                                                                                                                                                                                                                                                                                                                                                                                                                                                                                                                                                                                                                                                                                                                                                                                                                    
02                                         631053                        17955     138034    G.ROUPA ARAPLAC 10P ATL PLUS TB/BR                                                                  1                      24122012                                                                                                                                                                                                                                                          000000000000000000000000000000000000000100                                                                                                                                                                                                                                                                                                                                                                                                                                                                                                                                                                                                                                                                                                                                                                                                                                                                                                                    
