00                       20121108112013PREVIMONT                     RICARDO ELETRO                                                                                      64282601004457     99958     ATRE - CENTRAL DE MONTAGENS RE                                                                                                                                                                                                                                                                                                                                                                                                                                                                                                                                                                                                                                                                                                                                                                                                                                                                                                                                                                                                                                                                                                                                                                                                                    
01                              14781     111 259 9017554                                                                                   13331825908112012                                                              00005661664532NATALIA CRISTINA SOUSA SANTOS                                                                       DA RODOVIA A 0 PROX AO STUDIO TATUARGEM                                                             BOA VISTA DE SAO CAETANO      SALVADOR                                          BA                    40385000                                                                                                                                                                                                                                                          OM0000000000000000AO LADO DO STUDIO DE TARTUAGEM E PROX A MERCCEARIA PROC  NATALIA  8779 9237                                                                                                                                                                                                                                                                                                                                                                                                                                                                                                                                  
01                              14743     111 259 9042395                                                                                   13331725908112012                                                              00081110286520LUCIANO COSTA DE JESUS                                                                              BOA ESPERANCA 190 2 ANDAR                                                                           ALTO DO PERU                  SALVADOR                                          BA                    40349325                                                                                                                                                                                                                                                          OM0000000000000000APOIS DA EMBASA PROC SIMONE TEL 33047461 OU 887405360                                                                                                                                                                                                                                                                                                                                                                                                                                                                                                                                                        
01                              14743     111 259 9042395                                                                                   13331625908112012                                                              00081110286520LUCIANO COSTA DE JESUS                                                                              BOA ESPERANCA 190 2 ANDAR                                                                           ALTO DO PERU                  SALVADOR                                          BA                    40349325                                                                                                                                                                                                                                                          OM0000000000000000APOIS DA EMBASA PROC SIMONE TEL 33047461 OU 887405360                                                                                                                                                                                                                                                                                                                                                                                                                                                                                                                                                        
01                              14891     92  259 9056857                                                                                   13330825908112012                                                              00022921486849ANTONIO SOARES DOS REIS                                                                             INDEPENDENCIA 1 1 ANDAR                                                                             BOA VISTA DE SAO CAETANO      SALVADOR                                          BA                    40386102                                                                                                                                                                                                                                                          OM000000000000000032591598 87459324 PROX A CEDE BENEFICENTE EM FRENTE A BARRACA DE ZE MACACO PROC VITORIA OU TANIA OU ANTONIO                                                                                                                                                                                                                                                                                                                                                                                                                                                                                                  
01                              14742     111 259 9017554                                                                                   13331525908112012                                                              00079984894568GILVANIA FREIRE ALVES SILVA                                                                         DA RODOVIA A 1550                                                                                   BOA VISTA DE SAO CAETANO      SALVADOR                                          BA                    40385000                                                                                                                                                                                                                                                          OM0000000000000000PROX AO MERCADINHO 2 IRMAO PROC DAMIAO TEL 71 8687 0179 OU 3403 4679                                                                                                                                                                                                                                                                                                                                                                                                                                                                                                                                         
01                              35989     90  259 9050545                                                                                   13331425908112012                                                              00094217203500ANDRE LUIS BARRETO DE JESUS                                                                         JOSE DE ALENCAR 60 E                                                                                BOA VISTA DE SAO CAETANO      SALVADOR                                          BA                    40385250                                                                                                                                                                                                                                                          OM0000000000000000PON REF PROX AOMERCADINHO PONTA DOSOL PROC MARCELO DA FRUTA TEL 87460673                                                                                                                                                                                                                                                                                                                                                                                                                                                                                                                                     
01                              17695     95  259 9018065                                                                                   13331325908112012                                                              00011874325553MARIA DE FATIMA GOMES DA SILVA                                                                      JAGUARIPE 1 3 SETOR D QUADRA 16                                                                     FAZENDA GRANDE II             SALVADOR                                          BA                    41342674                                                                                                                                                                                                                                                          OM000000000000000087494793 E 32530270 EM FRENTE A ESCOLA SANTO SABER APOS ESCOLA BAMBINO                                                                                                                                                                                                                                                                                                                                                                                                                                                                                                                                       
01                              10212     89  259 9021167                                                                                   13332425908112012                                                              00048327980572PATRICIA R DE PINHO                                                                                 SIMAO DIAS 202 02 TEL 88695978                                                                      SAO CAETANO                   SALVADOR                                          BA                    40390385                                                                                                                                                                                                                                                          OM000000713391477288695978 REF DESCE O BECO DA CHIADA PX A ESCOLA RAMOS PROC TANINHA OU IAIA                                                                                                                                                                                                                                                                                                                                                                                                                                                                                                                                   
01                              9952      93  259 9018018                                                                                   13332925908112012                                                              00001932158537CARLISON FERNANDES DOS SANTOS                                                                       BOA ESPERANCA 110 FUNDOS                                                                            ALTO DO PERU                  SALVADOR                                          BA                    40349325                                                                                                                                                                                                                                                          OM000000000000000099079645 P REF ENFRENTE A PADARIA DA RUA BOA ESPERANCA APOS O BAR DE SIMONE PROC NEGO OU ANDREIA                                                                                                                                                                                                                                                                                                                                                                                                                                                                                                             
01                              36105     90  259 9021188                                                                                   13338425908112012                                                              00003899826523BENTA PEREIRA MISSIAS                                                                               SAN MARTINS 0 1                                                                                     SAN MARTINS                   SALVADOR                                          BA                    40000000                                                                                                                                                                                                                                                          OM0000000000000000TROCA SEM APANHA NA SAN MARTINS RUA EM FRENTE A CONSTRUPISO PROX A COMERCIAL RAMOS PROC BENTA OU MARI TL 9999 6562                                                                                                                                                                                                                                                                                                                                                                                                                                                                                           
01                              7778      125 259 9029086                                                                                   13338525908112012                                                              00015317102553FRANCISCO ALVES DOS SANTOS                                                                          OSORIO VILAS BOAS 23 DEPOIS DAS PEDREIRAS                                                           CIDADE NOVA                   SALVADOR                                          BA                    40313790                                                                                                                                                                                                                                                          OM0000000000000000AO LADO DA IGREJA SAO JUDAS TADEU PROC SAPATEIRO 71 86205860                                                                                                                                                                                                                                                                                                                                                                                                                                                                                                                                                 
01                              25290     88  259 9020566                                                                                   13338325908112012                                                              00042409373534JOSELEIDE CARNEIRO DOS SANTOS                                                                       XANGAI 61                                                                                           PAU MIUDO                     SALVADOR                                          BA                    40310800                                                                                                                                                                                                                                                          OM0000000000000000SEM APANHA PX ESCOLA CANDOLINA PROC JOSILEIDE AVON TEL 86269013 32360081                                                                                                                                                                                                                                                                                                                                                                                                                                                                                                                                     
01                              14844     92  259 9050174                                                                                   13338025908112012                                                              00050694251534MARINEIDE CONCEICAO                                                                                 NASCIMENTO 40                                                                                       LIBERDADE                     SALVADOR                                          BA                    40370710                                                                                                                                                                                                                                                          OM0000000000000000SEM APANHA PROX AO ABRIGO DO FILHO DO POVO PROC NEIDE TEL 32561803 88084985                                                                                                                                                                                                                                                                                                                                                                                                                                                                                                                                  
01                              13685     127 259 9018006                                                                                   13338125908112012                                                              00078583500568ADILZE BRAGA COSTA                                                                                  CORONEL TUPI CALDAS 7 1 ANDAR                                                                       LIBERDADE                     SALVADOR                                          BA                    40370270                                                                                                                                                                                                                                                          OM000000000000000032410657 REF PREDIO AZUL COLADA SERRAHARIA DE BOCA PROC ADILZE                                                                                                                                                                                                                                                                                                                                                                                                                                                                                                                                               
01                              36064     90  259 9021190                                                                                   13339525908112012                                                              00054163773568EDMEIA DA SILVA LOMBA                                                                               RUA DA ALEGRIA 20                                                                                   CURUZU                        SALVADOR                                          BA                    40365680                                                                                                                                                                                                                                                          OM000000000000000096516560 REF PELA SAN MARTINS NO INICIO DA LADEIRA VIRAR  A ESQUERDA PROC VAGAO                                                                                                                                                                                                                                                                                                                                                                                                                                                                                                                              
01                              25326     88  259 9042255                                                                                   13338825908112012                                                              00050739425587NEURACI SILVA SANTOS                                                                                GASPAR 58 A                                                                                         BAIXA DE QUINTAS              SALVADOR                                          BA                    40300430                                                                                                                                                                                                                                                          OM0000000000000000(71)32447397 - (71)88807398 PX A ESCOLINHA DE NILDA PROC NILDA                                                                                                                                                                                                                                                                                                                                                                                                                                                                                                                                               
01                              17027     87  259 9018040                                                                                   13340025908112012                                                              00044334893520VALDELICE COSTA VASQUEZ                                                                             DOUTOR RAIMUNDO MESQUITA 118                                                                        LIBERDADE                     SALVADOR                                          BA                    40375000                                                                                                                                                                                                                                                          OM0000000000000000ENTRA AO LADO CENTRO CULTURAL ACM PRC RUTE 87433125                                                                                                                                                                                                                                                                                                                                                                                                                                                                                                                                                          
01                              27604     141 259 9019804                                                                                   13335325908112012                                                              00054202310500MANOEL DA CONCEICAO DOS SANTOS                                                                      RUA A 15 QD06 LOT 11                                                                                FAZENDA COUTOS                SALVADOR                                          BA                    40730525                                                                                                                                                                                                                                                          OM0000000000000000FAZ COUTOS II PROX A 2 QUADRAS DE ESPORTE PROC NEUZA 71 87339028                                                                                                                                                                                                                                                                                                                                                                                                                                                                                                                                             
01                              16055     96  259 9021267                                                                                   13329625908112012                                                              00022635653534MARIVALDINA MARIA DA P MARINHO                                                                      ALTO DA SEREIA 36                                                                                   RIO VERMELHO                  SALVADOR                                          BA                    41950060                                                                                                                                                                                                                                                          OM0000007132618394SEM APANHA NA LADEIRA DA ESCOLA ANA NERI PROC JAMIL OU TATIANE TL 83137611                                                                                                                                                                                                                                                                                                                                                                                                                                                                                                                                   
01                              27472     141 259 9017579                                                                                   13335425908112012                                                              00067237223534MARIA INEZ DO E SANTOS                                                                              DA CHACARA MANOEL 9 CASA                                                                            PARIPE                        SALVADOR                                          BA                    40800007                                                                                                                                                                                                                                                          OM0000007133972761TROCA SEM APANHA PRC SRA INEZ  TUBARAO                                                                                                                                                                                                                                                                                                                                                                                                                                                                                                                                                                       
01                              27632     141 259 9032795                                                                                   13335725908112012                                                              00082269599500JAQUELINE NEVES DA SILVA                                                                            BOM JESUS DE NAZARE 12 E PX AO POSTO MEDICO DO BATE CORACAO                                         PARIPE                        SALVADOR                                          BA                    40830400                                                                                                                                                                                                                                                          OM0000000000000000PC JOICE OU IRACI OU ESTELA )34087731 - (71)87716815                                                                                                                                                                                                                                                                                                                                                                                                                                                                                                                                                         
01                              16119     96  259 9021265                                                                                   13336125908112012                                                              00003296794573EMANOEL SANTANA BARRETO                                                                             DAIANA CARLA 54 C                                                                                   PRAIA GRANDE                  SALVADOR                                          BA                    40725126                                                                                                                                                                                                                                                          OM0000000000000000FINAL DA RUA DEPOIS DO ARMARINHO DE BINHA  PROC BEBEA TL 35215504 E 82693564                                                                                                                                                                                                                                                                                                                                                                                                                                                                                                                                 
01                              27574     141 259 9032795                                                                                   13336325908112012                                                              00003176368550ALEXSANDRO CONCEICAO SANTOS                                                                         RUA SALOME 109 PX MAT DE CONST DEIVES PC ALEXSANDRO OU                                              PARIPE                        SALVADOR                                          BA                    40810170                                                                                                                                                                                                                                                          OM0000007134083534PC LEILA OU ALEXSANDRO  PX MATERIAL DE CONSTRUCAO DEIVIS 87676892  86151283                                                                                                                                                                                                                                                                                                                                                                                                                                                                                                                                  
01                              25314     88  259 9020566                                                                                   13328625908112012                                                              00006524311515THEREZINHA NUNES SALES                                                                              ADELMARIO PINHEIRO 102                                                                              AMARALINA                     SALVADOR                                          BA                    41900442                                                                                                                                                                                                                                                          OM0000000000000000PX IGREJA SAO JOSE PROC THEREZINHA TEL 88612954                                                                                                                                                                                                                                                                                                                                                                                                                                                                                                                                                              
01                              27575     141 259 9039794                                                                                   13336625908112012                                                              00056705239549ANTONIO CARLOS SANTOS FERREIRA                                                                      VENEZA 4 PX A CARLOS CHAVES                                                                         PERIPERI                      SALVADOR                                          BA                    40740590                                                                                                                                                                                                                                                          OM0000000000000000TE8844-6650/8848-3396 PX ABARRACA DE CHAVES DE CARLOS E FRENT IGREJ JEOVACHAMA PROC BALAIO AO ALINE                                                                                                                                                                                                                                                                                                                                                                                                                                                                                                          
01                              25228     88  259 9020566                                                                                   13328925908112012                                                              00001941441513REGINALVA ALVES DE FREITAS TEIXEIRA                                                                 TEODORO SAMPAIO 94 94 E CASA                                                                        VALE DAS PEDRINHAS            SALVADOR                                          BA                    41915770                                                                                                                                                                                                                                                          OM0000000000000000SEM APANHA AO LADO OFICINA DE COBRA PROC ELIANE TEL 41035566 87159263                                                                                                                                                                                                                                                                                                                                                                                                                                                                                                                                        
01                              27633     141 259 9018014                                                                                   13334525908112012                                                              00054383960510SILVIO  DOS SANTOS                                                                                  RUA CAIXA DAGUA 10 PX AO DEPOSITO DE BEBIDAS JACARE                                                 FAZ COUTOS                    SALVADOR                                          BA                    40800030                                                                                                                                                                                                                                                          OM0000000000000000TEL 88911098 REF PROX AO  DEPOSITO DE BEBIDA DE JACARE PROC SILVIO  DO CHORRACO                                                                                                                                                                                                                                                                                                                                                                                                                                                                                                                              
01                              27554     141 259 9050229                                                                                   13334825908112012                                                              00056052774568MARIA CRISTINA FRAIZE DOS SANTOS                                                                    PARAGUAI 492 CASA EM FRETE AO MERCADINHO UNIAO                                                      PARIPE                        SALVADOR                                          BA                    40820090                                                                                                                                                                                                                                                          OM0000007171338809RUA ANTES DO FINAL DE LINHA DA COSISA ENFRET AO MERCADINHO UNIAO PC TINA OU CRISTINA DO SALAO 87765725                                                                                                                                                                                                                                                                                                                                                                                                                                                                                                       
01                              27515     141 259 122648                                                                                    13335025908112012                                                              00003126671594PRISCILA BORGES DE JESUS                                                                            OLINDA 6                                                                                            PERIPERI                      SALVADOR                                          BA                    40720316                                                                                                                                                                                                                                                          OM0000000000000000TROCA SEM APANHA  TEL 86337944 OU 87770721 PROX AO CANAL PARAGUARI                                                                                                                                                                                                                                                                                                                                                                                                                                                                                                                                           
01                              36138     90  259 9021188                                                                                   13340525908112012                                                              00002466895528PRISCILA SILVA DO CARMO                                                                             DAM JOAO VI 1100 AP 707 EDF RUBI COND PEDRAS DE BROTAS                                              BROTAS                        SALVADOR                                          BA                    40285000                                                                                                                                                                                                                                                          OM000000000000000087537752 8872 6684 AO LADO DO SHOP BROTAS CENTER AP 707 PROC ANA MARIA                                                                                                                                                                                                                                                                                                                                                                                                                                                                                                                                       
01                              25223     88  259 121383                                                                                    13340325908112012                                                              00092987818572ANA CRISTINA                                                                                        GIRASSOL 58 E                                                                                       COSME DE FARIAS               SALVADOR                                          BA                    40253500                                                                                                                                                                                                                                                          OM0000000000000000PROD COM APANHA PX A PANIFICADORA FLOR DO ALTO PROC JARDEL 88411473 NO ALTO DO CRUZEIRO                                                                                                                                                                                                                                                                                                                                                                                                                                                                                                                      
01                              12162     107 259 9065672                                                                                   13340425908112012                                                              00062975927568DINALVA MARIA SENA ROCHA                                                                            DO BONOCO 49 1 ANDAR                                                                                COSME DE FARIAS               SALVADOR                                          BA                    40252440                                                                                                                                                                                                                                                          OM0000000000000000PROX A PADARIA DO BARRETO PROC DINALVA TEL 71 81931351                                                                                                                                                                                                                                                                                                                                                                                                                                                                                                                                                       
01                              17059     87  259 9017161                                                                                   13340825908112012                                                              00024307980506ISABEL CRISTINA MELO DOS SANTOS                                                                     TEIXEIRA BARROS 36 2 ANDAR                                                                          BROTAS                        SALVADOR                                          BA                    40279320                                                                                                                                                                                                                                                          OM0000000000000000ANTES DO IMPERBA TEM O PREDIO DE 2 ANDARES DE TIJOLINHOS BRANCOS PROC D EMILIA OU SABRINA 82895756 83100703                                                                                                                                                                                                                                                                                                                                                                                                                                                                                                  
01                              27569     141 259 9032795                                                                                   13337225908112012                                                              00043244890504TEREZINHA SOUZA DE SANTANA                                                                          DOUTOR EDUARDO DOTTO 23 E NO BAR DE OTTO PC TEREZA OU O MESMO                                       PARIPE                        SALVADOR                                          BA                    40800010                                                                                                                                                                                                                                                          OM0000000000000000PC DONA TEREZINHA OU SEU OTTO  83596304 90926661 NO BAR DE OTTO                                                                                                                                                                                                                                                                                                                                                                                                                                                                                                                                              
01                              30800     147 259 9020483                                                                                   13328025908112012                                                              00092208746520ANA PAULA MEIRELES NEVES SOUZA                                                                      PORTO DOS MASTROS 51 2 ANDAR                                                                        RIBEIRA                       SALVADOR                                          BA                    40421520                                                                                                                                                                                                                                                          OM0000000000000000APOS O SHOPING DA RIBEIRA E APOS IGREJA  TESTEMUNHA DE JEOVA 96330964                                                                                                                                                                                                                                                                                                                                                                                                                                                                                                                                        
01                              27498     141 259 122648                                                                                    13336925908112012                                                              00004491409544TAIZE DE OLIVEIRA CARVALHO                                                                          JOAQUIM NABUCO 5 FAZENDA COUTOS 2 PX AO NOVO GAZ PC TAIZE                                           FAZENDA COUTOS                SALVADOR                                          BA                    40730072                                                                                                                                                                                                                                                          OM0000000035213928TROCA SEM APANHA ENTREGA ANA FL 141 PARIPR PC VENDEDOR ESDRAS                                                                                                                                                                                                                                                                                                                                                                                                                                                                                                                                                
01                              16936     87  259 9064321                                                                                   13327725908112012                                                              00037760432534MIGUEL MOREIRA BRITO                                                                                ADILSON LEITE 10                                                                                    ALTO DO CABRITO               SALVADOR                                          BA                    40484560                                                                                                                                                                                                                                                          OM0000007133915035PROX A ESCOLA EBENEZER PROC MIGUEL OU BEL 32462399 83595277 COM RECOLHIMENTO                                                                                                                                                                                                                                                                                                                                                                                                                                                                                                                                 
01                              27618     141 259 9053306                                                                                   13337625908112012                                                              00005700183587NELSON DOS SANTOS                                                                                   ANTONIO CRISTINO 56 E PX AO COLEGIO MARGARIDA BRITO                                                 ALTO DE COUTOS                SALVADOR                                          BA                    40000000                                                                                                                                                                                                                                                          OM000000000000000032174082 82658319 PC AILTON OU QUELE PX AO COLEGIO MARGARIDA BRITO                                                                                                                                                                                                                                                                                                                                                                                                                                                                                                                                           
01                              17058     87  259 9050175                                                                                   13327625908112012                                                              00082587221587TANIA BATISTA SOUZA                                                                                 JOAO DE DEUS 140 QUADRA 18 CAMINHO 24                                                               LOBATO                        SALVADOR                                          BA                    40470064                                                                                                                                                                                                                                                          OM0000007132151435ATRAS DO POSTO MEDICO CANDIDO PEREIRA DEP DO ACOUGUE DE GAZINHO PC TANIA TEL 88150400 32151435                                                                                                                                                                                                                                                                                                                                                                                                                                                                                                               
01                              10235     89  259 9050040                                                                                   13337425908112012                                                              00081226152520LIVIA SILVA DOS SANTOS                                                                              14 DE JULHO 173                                                                                     COUTOS                        SALVADOR                                          BA                    40760620                                                                                                                                                                                                                                                          OM0000000000000000NA SUBIDA DA BHRAMA PROC MAIARA OU VALDINEI TEL 87792293                                                                                                                                                                                                                                                                                                                                                                                                                                                                                                                                                     
01                              27579     141 259 9019804                                                                                   13337325908112012                                                              00007388551549ODIVAL DOS SANTOS LOPES                                                                             DOUTOR EDUARDO DOTTO 14 ENTREGAR NA RICARDO ELETRO                                                  PARIPE                        SALVADOR                                          BA                    40800010                                                                                                                                                                                                                                                          OM0000000000000000ENTREGAR NA RICARDO DE PARIPE PROC TAMARA 71 33975357                                                                                                                                                                                                                                                                                                                                                                                                                                                                                                                                                        
01                              25267     88  259 9042255                                                                                   13330525908112012                                                              00001994846518MARIELZA DA SILVA PEREIRA PINTO                                                                     RODOVIA A 1915                                                                                      BOA VISTA DE SAO CAETANO      SALVADOR                                          BA                    40385645                                                                                                                                                                                                                                                          OM0000000000000000(71)88936196 EM FRENTE AOTOQUE FEMININO PROC MARIELZA                                                                                                                                                                                                                                                                                                                                                                                                                                                                                                                                                        
01                              30852     147 259 121471                                                                                    13330425908112012                                                              00001207807559BUANA TAMARA SANTOS RANGEL                                                                          RUA MELLO MORAES FILHO 94                                                                           FAZENDA GRANDE DO RETIRO      SALVADOR                                          BA                    40350000                                                                                                                                                                                                                                                          OM0000000000000000SEM APANHA VENFRENTE AO SENAI CIMATEC TRANSVERSAL DA RUA ORLANDO GOMES 92320479ENFRENTE AO SENAI CIMATEC TRANSVERSAL DA                                                                                                                                                                                                                                                                                                                                                                                                                                                                                      
01                              14755     111 259 9017554                                                                                   13330725908112012                                                              00063027186515JOECI DA SILVA DINIZ                                                                                CLERISTON ANDRADE 50                                                                                SAO CAETANO                   SALVADOR                                          BA                    40390740                                                                                                                                                                                                                                                          OM0000000000000000DEPOIS DA ACADEMIA LA DANCE  RUA ACIMA DA QUADRA PROC FABIO OU SULLA TEL 71 8819 9712 OU 3304 7695                                                                                                                                                                                                                                                                                                                                                                                                                                                                                                           
01                              27642     141 259 9017579                                                                                   13337825908112012                                                              00089897510559IARAILDE SANTANA CRUZ                                                                               PIAUI 90 ENTRA NA RUA DO FRIGORIFICO MANE                                                           PARIPE                        SALVADOR                                          BA                    40800065                                                                                                                                                                                                                                                          OM0000000000000000PC SRA IRAILDES OU CLAUDIO CASA AZUL DE TRES ANDARES                                                                                                                                                                                                                                                                                                                                                                                                                                                                                                                                                         
01                              27616     141 259 9017579                                                                                   13337725908112012                                                              00092739776500ANTONIO ALVES COURA                                                                                 ALEXANDRE GRAMBELL 324 CASA 01 PX AO COLEGIO OITO DE MAIO                                           PERIPERI                      SALVADOR                                          BA                    41840000                                                                                                                                                                                                                                                          OM0000000000000000PX AO BAR DE GASOSA TEL 87425040                                                                                                                                                                                                                                                                                                                                                                                                                                                                                                                                                                             
01                              14749     111 259 9042395                                                                                   13330125908112012                                                              00051270129520JAILSON FERREIRA DE SOUSA                                                                           DOIS UNIDOS 25 E                                                                                    SAO CAETANO                   SALVADOR                                          BA                    40391364                                                                                                                                                                                                                                                          OM0000000000000000PROX BAR DE BETE PROC ANDREIA GORDA TEL 88491167 OU 82821060 JAILSON                                                                                                                                                                                                                                                                                                                                                                                                                                                                                                                                         
01                              14749     111 259 9042395                                                                                   13330025908112012                                                              00051270129520JAILSON FERREIRA DE SOUSA                                                                           DOIS UNIDOS 25 E                                                                                    SAO CAETANO                   SALVADOR                                          BA                    40391364                                                                                                                                                                                                                                                          OM0000000000000000PROX BAR DE BETE PROC ANDREIA GORDA TEL 88491167 OU 82821060 JAILSON                                                                                                                                                                                                                                                                                                                                                                                                                                                                                                                                         
01                              14749     111 259 9042395                                                                                   13330325908112012                                                              00051270129520JAILSON FERREIRA DE SOUSA                                                                           DOIS UNIDOS 25 E                                                                                    SAO CAETANO                   SALVADOR                                          BA                    40391364                                                                                                                                                                                                                                                          OM0000000000000000PROX BAR DE BETE PROC ANDREIA GORDA TEL 88491167 OU 82821060 JAILSON                                                                                                                                                                                                                                                                                                                                                                                                                                                                                                                                         
01                              14749     111 259 9042395                                                                                   13330225908112012                                                              00051270129520JAILSON FERREIRA DE SOUSA                                                                           DOIS UNIDOS 25 E                                                                                    SAO CAETANO                   SALVADOR                                          BA                    40391364                                                                                                                                                                                                                                                          OM0000000000000000PROX BAR DE BETE PROC ANDREIA GORDA TEL 88491167 OU 82821060 JAILSON                                                                                                                                                                                                                                                                                                                                                                                                                                                                                                                                         
01                              12111     107 259 9062623                                                                                   13318925908112012                                                              00091561361534WAGNER L. OLIVEIRA SILVA                                                                            BANCARIOS DO STIEP 105 B AP 02                                                                      STIEP                         SALVADOR                                          BA                    41770890                                                                                                                                                                                                                                                          OM0000007134883599TROCA COM APANHA ATRAS DA IGREJA CATOLICA DO VALE DOS RIOS PROC GEORGINA OU NEGA TEL (71)34883599 - (71)91820138                                                                                                                                                                                                                                                                                                                                                                                                                                                                                             
01                              13101     101 259 9047353                                                                                   13301625908112012                                                              00083470549591JUSSARA ROCHA DE OLIVEIRA                                                                           DEPUTADO PAULO JACKSON 145                                                                          PIATA                         SALVADOR                                          BA                    41650020                                                                                                                                                                                                                                                          OM0000000000000000ENTRA NA RUA DO AABB SEGUE VIRA A ESQ PX AO COLEGIO ANJOS DE RUA PROC JOAO 8141 8403                                                                                                                                                                                                                                                                                                                                                                                                                                                                                                                         
01                              30820     147 259 9020501                                                                                   13299725907112012                                                              00079347584568CRISTINE SILVA CAMPOS                                                                               RIO DAS PEDRAS 80 604 BLOCO 11 TEL 91193766                                                         IMBUI                         SALVADOR                                          BA                    41720050                                                                                                                                                                                                                                                          OM0000007133623685TEL 91193766 OU 33623685 PONTO DE REF PROX AO SHOPPING IMBUI PLAZA                                                                                                                                                                                                                                                                                                                                                                                                                                                                                                                                           
01                              13118     101 259 9050117                                                                                   13302425908112012                                                              00089410157587ROSINALVA NUNES DA SILVA CASTRO                                                                     ANTONINO CASAES 484 CASA C                                                                          ITAPUA                        SALVADOR                                          BA                    41610000                                                                                                                                                                                                                                                          OM0000000000000000PROC SANDRA OU CLEONICE DESCE A RUA DA BARRA DO POTE                                                                                                                                                                                                                                                                                                                                                                                                                                                                                                                                                         
01                              30829     147 259 9020479                                                                                   13306225908112012                                                              00018857736504VANDA FRANCA PEIXINHO                                                                               2 TRAVESSA SAO FRANCISCO,  140 140                                                                  PERNAMBUES                    SALVADOR                                          BA                    41100172                                                                                                                                                                                                                                                          OM0000000000000000TEL. 8156 7106 FINAL DA AVENIDA SAO PAULO QUE COMECA NO POSTO PERNAMBUEZINHO, BAIXA DO MANU  TEL. 3450 6456                                                                                                                                                                                                                                                                                                                                                                                                                                                                                                  
01                              36128     90  259 9021188                                                                                   13306425908112012                                                              00099352796500JACIARA BARROS DE FREITAS                                                                           MANOEL VIEIRA LEITE 0 7 PRIMEIRA TRAV                                                               PERNAMBUES                    SALVADOR                                          BA                    41130760                                                                                                                                                                                                                                                          OM0000000000000000TROC A SEM APANHA 8746 8221 PRIMEIRA RUA DA MADEREIRA BROTAS SUPERMERCADO ZE CAFEZINHO PROC JACIARA                                                                                                                                                                                                                                                                                                                                                                                                                                                                                                          
01                              25272     88  259 9017985                                                                                   13307025908112012                                                              00084350946500DAYANE FILUCAS SANTOS                                                                               TOMAS GONZAGA 559 559                                                                               PERNAMBUES                    SALVADOR                                          BA                    41130000                                                                                                                                                                                                                                                          OM0000007134506952TEL 8265 6199 EM FRENTE A FARMACIA PIRES PROC DAYANE                                                                                                                                                                                                                                                                                                                                                                                                                                                                                                                                                         
01                              36118     90  259 9021175                                                                                   13307825908112012                                                              00088427382553JOSE SANTANA DE OLIVEIRA                                                                            GRILO 0 79 E                                                                                        PERNAMBUES                    SALVADOR                                          BA                    41110350                                                                                                                                                                                                                                                          OM0000000000000000TROCA SEM APANHA TL81649631 REF RUA EM FRENTE AO MERCADO DE ZE CAFEZINHO PROC MESQUITA OU TATAU DEPOIS DO BAR DE DONA IR                                                                                                                                                                                                                                                                                                                                                                                                                                                                                     
01                              13131     101 259 9057492                                                                                   13305225908112012                                                              00046858768572MARIA IZABEL DOS SANTOS                                                                             ALTO DO BONITO 11                                                                                   SAO CRISTOVAO                 SALVADOR                                          BA                    41500400                                                                                                                                                                                                                                                          OM0000000000000000PX A OFICINA DE BADO PROC CRISLENE TEL 88160363                                                                                                                                                                                                                                                                                                                                                                                                                                                                                                                                                              
01                              25284     88  259 9042354                                                                                   13303825908112012                                                              00067124658500GUSTAVO GOMES DOS SANTOS                                                                            SETOR F 13 CAMINHO 7                                                                                MUSSURUNGA I                  SALVADOR                                          BA                    41510220                                                                                                                                                                                                                                                          OM0000000000000000SEM APANHA 87674334 OU 35619488 NO ESTACIONAMENTO DO ANTIGO MERVCADINHO MARICAL E MAT CONS PANTANAL PROC GUSTAVO                                                                                                                                                                                                                                                                                                                                                                                                                                                                                             
01                              17693     95  259 9018041                                                                                   13317325908112012                                                              00080464572568OSVALDINO GUEDES SANTOS                                                                             LOTEAMENTO SANTO ANTONIO 8                                                                          CAJAZEIRA XII                 SALVADOR                                          BA                    41330030                                                                                                                                                                                                                                                          OM0000007132387853TEL 87702053 LOT SANT ANTONIO CAJ 11 EM CIMA DO MERCADINHO MIX PROC POR NET PROX A IGREJA UNIVERSAL                                                                                                                                                                                                                                                                                                                                                                                                                                                                                                          
01                              17736     95  259 9018041                                                                                   13317225908112012                                                              00036703443572MARIA JANETE BARBOSA DA CRUZ                                                                        CAJAZEIRAS V 301 CONJ REMANESCENTE BL 17                                                            CAJAZEIRAS                    SALVADOR                                          BA                    41330060                                                                                                                                                                                                                                                          OM0000000000000000TEL 86074873 PROX AO COLEGIO NEOMAR ALCANTARA PROC POR JANETE OU VANESSA                                                                                                                                                                                                                                                                                                                                                                                                                                                                                                                                     
01                              36113     90  259 9021175                                                                                   13317525908112012                                                              00002319797548ADENILTON OLIVEIRA LIMA                                                                             NOVA BRASILIA 0 29 2 TRAVESSA NOVA BRASILIA N29                                                     VALERIA                       SALVADOR                                          BA                    41300480                                                                                                                                                                                                                                                          OM0000000000000000TROCA SEM APANHA 99859358 REF PX AO CAMPO DE FUTEBOL PROC PAULA OU IRMA IRA                                                                                                                                                                                                                                                                                                                                                                                                                                                                                                                                  
01                              36120     90  259 9021175                                                                                   13317425908112012                                                              00016271084591AUREA SANTOS DA SILVA                                                                               DIRETA DAS MANGABEIRAS 0 126                                                                        CAJAZEIRAS VIII               SALVADOR                                          BA                    41330030                                                                                                                                                                                                                                                          OM0000007133056932TROCA SEM APANHA CL.96288040  REF.NA ENT DO SUPERMERCADO 3 MILENIO PROCURAR ARLINDA OU CARECA                                                                                                                                                                                                                                                                                                                                                                                                                                                                                                                
01                              9980      93  259 9050245                                                                                   13303525908112012                                                              00001295133504KLEBER VIVAS PASSOS VICENTE                                                                         SETOR A CAMINHO 16 27                                                                               MUSSURUNGA 1                  SALVADOR                                          BA                    41490334                                                                                                                                                                                                                                                          OM0000000000000000PROX A MERCAD PANTANAL PROC KINHO TEEL 88262568                                                                                                                                                                                                                                                                                                                                                                                                                                                                                                                                                              
01                              16145     96  259 9021285                                                                                   13321125908112012                                                              00003004247526DUCILENE FERREIRA FERNANDES                                                                         SANDRA MACHADO 0 LOT 50                                                                             CANABRAVA                     SALVADOR                                          BA                    41260210                                                                                                                                                                                                                                                          OM0000000000000000PROX AO BAR DE ORLANDO PROC VANESSA DO MINGAU TL 811414009                                                                                                                                                                                                                                                                                                                                                                                                                                                                                                                                                   
01                              17713     95  259 9045314                                                                                   13321025908112012                                                              00086749765572MARIA RAIMUNDA LUCIA DOS S DE                                                                       DOUTOR ANTONIO DE OLIVEIRA 189                                                                      VILA CANARIA                  SALVADOR                                          BA                    41390090                                                                                                                                                                                                                                                          OM0000000000000000PROX AO MERCADINHO 20 DE VER PROC RAIMUNDA SOSTUREIRA TEL 32154063                                                                                                                                                                                                                                                                                                                                                                                                                                                                                                                                           
01                              14630     104 259 9050712                                                                                   13321825908112012                                                              00000814257240EDNA NASCIMENTO DAS CHAGAS                                                                          SIMONE BARRADAS 323 CAMINHO 05                                                                      JARDIM NOVA ESPERANCA         SALVADOR                                          BA                    41370030                                                                                                                                                                                                                                                          OM0000007182705562PROX A IGR UNIVERSAL EM FRENTE A PIZZARIA FLOR DO JARDIM 82705562 PROC GEL                                                                                                                                                                                                                                                                                                                                                                                                                                                                                                                                   
01                              16933     220 259 9020824                                                                                   13325125908112012                                                              00081403100500PAULINO ANDRADE DOS SANTOS                                                                          BOA FE 125                                                                                          LOBATO                        SALVADOR                                          BA                    40000000                                                                                                                                                                                                                                                          OM0000000000000000EM FRENTE A RUA NOVA NA BOA VISTA DO LOBATO PROC A CASA DE POMBIMHA OU TOME CEL 82740089 OU 87537820                                                                                                                                                                                                                                                                                                                                                                                                                                                                                                         
01                              27555     141 259 9019804                                                                                   13322625908112012                                                              00093453108515JOELMARIO DE PINHO LIMA                                                                             ITAJUIPE 144                                                                                        NOVA BRASILIA DE VALERIA      SALVADOR                                          BA                    41306700                                                                                                                                                                                                                                                          OM0000000000000000CJ MORADA DA LAGOA PROX AO MERCADO ARENA PROC JOEL OU GISELE 71 81502639 82330317                                                                                                                                                                                                                                                                                                                                                                                                                                                                                                                            
