00                       20130603085150PREVIMONT                     RICARDO ELETRO                                                                                      64282601004457     100380    ALCÂNTARA                                                                                                                                                                                                                                                                                                                                                                                                                                                                                                                                                                                                                                                                                                                                                                                                                                                                                                                                                                                                                                                                                                                                                                                                                                         
01                              66358     215 199 9009244                                                                                   39669219929052013                                                              00013517186732WENDER ALBUQUERQUE CAVALCANTE                                                                       BASILEU NOGUEIRA DA COSTA 0 LT09 QD05 CS03                                                          MARIA PAULA                   SAO GONCALO                                       RJ                    24756440                                                                                                                                                                                                                                                          OM0000000000000000ENDERECO CONHECIDO COMO CAMPO NOVO ANTES DO CIEP CAREQUINHA PRC ZE MILHO RUA SEM ASFALTO MONTAR SOMENT SABADO 99177115                                                                                                                                                                                                                                                                                                                                                                                                                                                                                       
01                              66394     215 199 9066626                                                                                   39669419929052013                                                              00014094655786GREYCE KELLY DE OLIVEIRA SOUZA                                                                      JOSE DA COSTA BATISTA 328                                                                           SACRAMENTO                    SAO GONCALO                                       RJ                    24734110                                                                                                                                                                                                                                                          OM0000000000000000RUA FICA ATRAS DO BRIZOLAO DO SACRAMENTO PROC SIMONE OU VANDO LIGAR ANTES (21)37199395 - (21)73506029                                                                                                                                                                                                                                                                                                                                                                                                                                                                                                        
01                              66231     215 199 9069402                                                                                   39669819929052013                                                              00088577708772NORMAN NOGUEIRA DE MALTOS                                                                           SARGENTO FERNANDO FONTE 11 QD 22                                                                    ALMERINDA                     SAO GONCALO                                       RJ                    24741510                                                                                                                                                                                                                                                          OM0000002137197467FICA NA RUA DO MERCADINHO CAROL PROC POR CIDA OU NORMAN OU MATEUS 80359430                                                                                                                                                                                                                                                                                                                                                                                                                                                                                                                                   
01                              66262     215 199 9069843                                                                                   39669919929052013                                                              00050351630759SONIA CRUZ DOS SANTOS                                                                               ESTELINA TITO MARTINS 131 Q5                                                                        SANTA IZABEL                  SAO GONCALO                                       RJ                    24730000                                                                                                                                                                                                                                                          OM0000000000000000APOS A PCA STA IZABEL PEGAR ESTR  DO SAPE ENT 1  A DIR IGREJA MISSIONARI A DEP SUBIR RUA BARRACA JUVENTUDE 71579532                                                                                                                                                                                                                                                                                                                                                                                                                                                                                          
01                              66236     215 199 9064765                                                                                   39670019929052013                                                              00001295532719CARLOS JOSE GONCALVES DA SILVA                                                                      ESTRADA SANTA ISABEL 17 QD17 LT24                                                                   SANTA ISABEL                  SAO GONCALO                                       RJ                    24800000                                                                                                                                                                                                                                                          OM0000000000000000PROX A CASA DE FESTAS SHOW DO BRAY LADO DA SORVETERIA BOM SABOR PROC CONHA 37117747                                                                                                                                                                                                                                                                                                                                                                                                                                                                                                                          
01                              66345     215 199 9069402                                                                                   39670119929052013                                                              00008484386716ADILSON MEDEIROS DA SILVA                                                                           NICOLAU TOLENTINO 24 QD 306                                                                         JARDIM CATARINA               SAO GONCALO                                       RJ                    24716240                                                                                                                                                                                                                                                          OM0000000000000000E 1 RUA APOIS O PONTO FINAL DO 12 E 13 PROC POR MIRIAM                                                                                                                                                                                                                                                                                                                                                                                                                                                                                                                                                       
01                              24322     201 199 9062903                                                                                   39670219929052013                                                              00002661440712DARIO ESTEVAO FRANCISCO                                                                             ITACOLOMI 1 LOTE 01 QUADRA 37                                                                       JARDIM CATARINA               SAO GONCALO                                       RJ                    24715562                                                                                                                                                                                                                                                          OM0000000000000000MERCADO DO JEGUE II                                                                                                                                                                                                                                                                                                                                                                                                                                                                                                                                                                                          
01                              21842     247 199 9053871                                                                                   39563519929052013                                                              00007215265781LUCIENE RAMOS                                                                                       FRANCISCO MORAES 308                                                                                MUTUA                         SAO GONCALO                                       RJ                    24461050                                                                                                                                                                                                                                                          OM0000000000000000ATRAS DO COLEG SANTA MONICA PROC POR LUCIENE TEL  (21)86068361                                                                                                                                                                                                                                                                                                                                                                                                                                                                                                                                               
01                              26468     204 199 9029919                                                                                   39563719929052013                                                              00009249014708VANDA MACEDO SILVA MUNIZ                                                                            RAIMUNDO MACEDO 226                                                                                 ITAUNA                        SAO GONCALO                                       RJ                    24474210                                                                                                                                                                                                                                                          OM0000000000000000PRIMEIRO MERCADO UNIDOS ANTIGO MENDES 2A RUA DIREITA PROCURAR VANDA                                                                                                                                                                                                                                                                                                                                                                                                                                                                                                                                          
01                              26471     204 199 9029337                                                                                   39563819929052013                                                              00008354706796KELI VIANA DE ASSUNCAO                                                                              REGINALDO ULISSES DE OLIVEIRA 1                                                                     ITAUNA                        SAO GONCALO                                       RJ                    24476650                                                                                                                                                                                                                                                          OM0000000000000000RUA DO CICLE DO RICARDO PROCURAR KELI                                                                                                                                                                                                                                                                                                                                                                                                                                                                                                                                                                        
01                              42361     181 199 9030013                                                                                   39562919929052013                                                              00006098834709MARCOS VINICIUS DE SOUZA MENDONCA                                                                   ALBERTINA TORRES 270 270                                                                            GRADIM                        SAO GONCALO                                       RJ                    24430550                                                                                                                                                                                                                                                          OM000000000000000076771705 PROX A VIBE SHOW PONTO FINAL DO 524 ESTRLA PROC MARCOS VINICIUS                                                                                                                                                                                                                                                                                                                                                                                                                                                                                                                                     
01                              42376     181 199 9030013                                                                                   39721719929052013                                                              00002504471777MARIA APARECIDA DOS SANTOS                                                                          ITACURUCA 12 04                                                                                     MARAMBAIA                     SAO GONCALO                                       RJ                    24400000                                                                                                                                                                                                                                                          OM000000000000000084557100 RUA AO LADO DO MERCADO GEOVANE PROX AO COLEGIO FALADELFIA EM FRENTE A IGRJA CASA DA BENCAO PROC PRISCILA                                                                                                                                                                                                                                                                                                                                                                                                                                                                                            
01                              24325     201 199 9050025                                                                                   39563119929052013                                                              00005803669792PRISCILLA DE SOUZA CRUZ NASCIMENTO                                                                  CORIOLANO MARTINS 1024                                                                              BOACU                         SAO GONCALO                                       RJ                    24467090                                                                                                                                                                                                                                                          OM0000000000000000SEGUNADA RUA ESQUERDA APOS A POBT LODIAL QUARTA CASA LADO DIREITO  (21)71282890 36143569                                                                                                                                                                                                                                                                                                                                                                                                                                                                                                                     
01                              26412     204 199 9029337                                                                                   39561919929052013                                                              00095798684768JOSE RENATO GOMIDE PIMENTEL                                                                         DOM BOSCO 45                                                                                        BOACU                         SAO GONCALO                                       RJ                    24460230                                                                                                                                                                                                                                                          OM0000000000000000ENTRAR NARU DO POSTO DE SAUDE 1A RUA DIREITA 3A CASA SOBRADO                                                                                                                                                                                                                                                                                                                                                                                                                                                                                                                                                 
01                              24312     201 199 9050025                                                                                   39561719929052013                                                              00002637767782LAENE APARECIDA PEIXOTO LEITE                                                                       JOSEFINA 366                                                                                        PARAISO                       SAO GONCALO                                       RJ                    24431430                                                                                                                                                                                                                                                          OM0000000000000000ATRAZ DO PUBLIX  (21)27238324 - (21)96998033                                                                                                                                                                                                                                                                                                                                                                                                                                                                                                                                                                 
01                              66350     215 199 9069402                                                                                   39671719929052013                                                              00008484386716ADILSON MEDEIROS DA SILVA                                                                           NICOLAU TOLENTINO 24 QD 306                                                                         JARDIM CATARINA               SAO GONCALO                                       RJ                    24716240                                                                                                                                                                                                                                                          OM0000000000000000                                                                                                                                                                                                                                                                                                                                                                                                                                                                                                                                                                                                             
01                              21809     247 199 9068343                                                                                   39562219929052013                                                              00008175880783FABIANA MENDONCA DOS SANTOS                                                                         CORINTO CORREIA 41 5                                                                                NOVA CIDADE                   SAO GONCALO                                       RJ                    24455665                                                                                                                                                                                                                                                          OM0000000000000000RUA DO SALAO DE FESTAS CANTINHO DO PAPAI PROC DNA FABIANA CEL 84303440                                                                                                                                                                                                                                                                                                                                                                                                                                                                                                                                       
01                              42303     181 199 9030013                                                                                   39672019929052013                                                              00055011098753MARIA BISPO DA SILVA                                                                                AUGUSTO MARTINS DA PURIFICACAO 413 4                                                                TRIBOBO                       SAO GONCALO                                       RJ                    24755240                                                                                                                                                                                                                                                          OM000000000000000027202701 94616795 ENTRAR NO AREL EM FRENTE AO COND DA TENDA PROC BAIANINHO                                                                                                                                                                                                                                                                                                                                                                                                                                                                                                                                   
01                              26421     204 199 9029337                                                                                   39561119929052013                                                              00009571313726RENATA SANTOS DA SILVA                                                                              ALAIR PIRES 288 402                                                                                 BRASILANDIA                   SAO GONCALO                                       RJ                    24465340                                                                                                                                                                                                                                                          OM0000000000000000NA RUA DO ABATEDOURO ENTREGAR NO APTO 204 PROCURA RENATA                                                                                                                                                                                                                                                                                                                                                                                                                                                                                                                                                     
01                              61786     215 199 9009244                                                                                   39641819929052013                                                              00006928970707ADRIANA PEREIRA DA SILVEIRA                                                                         JOSE MOURA E SILVA 84                                                                               MUTUAPIRA                     SAO GONCALO                                       RJ                    24461590                                                                                                                                                                                                                                                          OM0000000000000000RUA DO COND DA TENDA E AO IGJ CATOLICA PRC ADRIANA 98404620                                                                                                                                                                                                                                                                                                                                                                                                                                                                                                                                                  
01                              21812     247 199 9068343                                                                                   39561019929052013                                                              00080192327704CLAUDIA PINHEIRO                                                                                    BOQUEIRAO PEQUENO 1841 1                                                                            GALO BRANCO                   SAO GONCALO                                       RJ                    24420560                                                                                                                                                                                                                                                          OM0000000000000000RUA DA GARAGEM NOVA DA GALO BRANCO PROC DNA MARIA CEL 94764747                                                                                                                                                                                                                                                                                                                                                                                                                                                                                                                                               
01                              32039     167 199 9062357                                                                                   39664319929052013                                                              00012266719777VALDEIR ALVES LABRE                                                                                 JOSE PINTO 332 23                                                                                   NEVES                         SAO GONCALO                                       RJ                    24425010                                                                                                                                                                                                                                                          OM0000000000000000REF BAR DO WUILIAM OU AONDE MORA SANDRA OU AMARAL TEL 37032327 OU 76847965                                                                                                                                                                                                                                                                                                                                                                                                                                                                                                                                   
01                              21857     247 199 9053871                                                                                   39664519929052013                                                              00081255950749SANDRA CAMPELO MATEUS                                                                               CABRAL 81                                                                                           BARRO VERMELHO                SAO GONCALO                                       RJ                    24415670                                                                                                                                                                                                                                                          OM00000021272347211 PONTO ANTES DO FORUM EM FRENTE AO LAVA JATO PAPA LEGUA PROC POR SANDRA TEL(21)93281385                                                                                                                                                                                                                                                                                                                                                                                                                                                                                                                     
01                              21868     247 199 9053871                                                                                   39561419929052013                                                              00005741065708ROSIMERI LIMA LOPES                                                                                 CAUBI 327                                                                                           VILA LAJE                     SAO GONCALO                                       RJ                    24400000                                                                                                                                                                                                                                                          OM0000002171234476NA RUA ESP SAO JORGE ENTRA NA RUA CIEP VIRA ESQ NA PADARIA 1 SUBIDA PROC POR DALVA 71234476 OU26360175                                                                                                                                                                                                                                                                                                                                                                                                                                                                                                       
01                              26403     204 199 9029337                                                                                   39561319929052013                                                              00007003856735ANDERSON LUIS SANTOS PIMENTEL                                                                       PADRE POMPILIO 2330 04                                                                              MUTUA                         SAO GONCALO                                       RJ                    24460250                                                                                                                                                                                                                                                          OM0000002136143581ENTRAR NA RUA DO POSTO DE SAUDE 2A RUA DIREITA PROCURAR POR CARECA                                                                                                                                                                                                                                                                                                                                                                                                                                                                                                                                           
01                              24318     201 199 9062903                                                                                   39561219929052013                                                              00008475252796ROSE MARA COSTA THOMAZ SANTOS                                                                       ANTONIO GONCALVES 18 SOBRADO                                                                        PORTO VELHO                   SAO GONCALO                                       RJ                    24430130                                                                                                                                                                                                                                                          OM0000002127235722ENTRANDO NA RUA DO ANTIGO CHIRRAS VIRAR TERCEIRA A ESQUERDA PENULTIMA CASA A ESQUERDA PROCURAR CARMINHA                                                                                                                                                                                                                                                                                                                                                                                                                                                                                                      
01                              66148     215 199 9054854                                                                                   39670719929052013                                                              00004111896707MARCIO DA SILVA                                                                                     PAULO MOREIRA 291                                                                                   ALMERINDA                     SAO GONCALO                                       RJ                    24742340                                                                                                                                                                                                                                                          OM0000000000000000ENTRANDO PELA RUA CASAL VEICULOS ATRAS DO COL BAIRRO ALMERINDA PROC MARCIO OU MARCOS  (21)83442713 - (21)99028449                                                                                                                                                                                                                                                                                                                                                                                                                                                                                            
01                              66339     215 199 9054854                                                                                   39671119929052013                                                              00001878767704GECILDA VAZ DE FREITAS                                                                              AV MARICA 255 08 ATO 604                                                                            JARDIM ALCANTARA              SAO GONCALO                                       RJ                    24713003                                                                                                                                                                                                                                                          OM0000002185305453AO LADO SUP GUANABARA PROC ADEMIR 21)85305453 - (21)86097262 COND VIVENDAS DE MARICA                                                                                                                                                                                                                                                                                                                                                                                                                                                                                                                         
01                              42376     181 199 9030013                                                                                   39718819929052013                                                              00002504471777MARIA APARECIDA DOS SANTOS                                                                          ITACURUCA 12 04                                                                                     MARAMBAIA                     SAO GONCALO                                       RJ                    24400000                                                                                                                                                                                                                                                          OM0000000000000000                                                                                                                                                                                                                                                                                                                                                                                                                                                                                                                                                                                                             
02                                         741495                        66358     182574    COZINHA INDEKES BIA BR/ACA                                                                          1                      01072013                                                                                                                                                                                                                                                          000000000000000000000000000000000000000100                                                                                                                                                                                                                                                                                                                                                                                                                                                                                                                                                                                                                                                                                                                                                                                                                                                                                                                    
02                                         741496                        66394     185263    G.ROUPA ARAMOVEIS 6P2G BRASIL CZ/PTO                                                                1                      01072013                                                                                                                                                                                                                                                          000000000000000000000000000000000000000100                                                                                                                                                                                                                                                                                                                                                                                                                                                                                                                                                                                                                                                                                                                                                                                                                                                                                                                    
02                                         741497                        66231     185262    G.ROUPA ARAMOVEIS 6P2G BRASIL BR/PTO                                                                1                      01072013                                                                                                                                                                                                                                                          000000000000000000000000000000000000000100                                                                                                                                                                                                                                                                                                                                                                                                                                                                                                                                                                                                                                                                                                                                                                                                                                                                                                                    
02                                         741498                        66262     134894    COZ ITATIAIA CRIATIVA MAX II 2V PTO                                                                 1                      01072013                                                                                                                                                                                                                                                          000000000000000000000000000000000000000100                                                                                                                                                                                                                                                                                                                                                                                                                                                                                                                                                                                                                                                                                                                                                                                                                                                                                                                    
02                                         741498                        66262     134897    BALC.ITAT.IG3G4-C CRIATIVA PTO                                                                      1                      01072013                                                                                                                                                                                                                                                          000000000000000000000000000000000000000200                                                                                                                                                                                                                                                                                                                                                                                                                                                                                                                                                                                                                                                                                                                                                                                                                                                                                                                    
02                                         741499                        66236     183255    COZ ARAMOVEIS CRIS BR/CZ                                                                            1                      01072013                                                                                                                                                                                                                                                          000000000000000000000000000000000000000100                                                                                                                                                                                                                                                                                                                                                                                                                                                                                                                                                                                                                                                                                                                                                                                                                                                                                                                    
02                                         741500                        66345     182574    COZINHA INDEKES BIA BR/ACA                                                                          1                      01072013                                                                                                                                                                                                                                                          000000000000000000000000000000000000000100                                                                                                                                                                                                                                                                                                                                                                                                                                                                                                                                                                                                                                                                                                                                                                                                                                                                                                                    
02                                         741501                        24322     185263    G.ROUPA ARAMOVEIS 6P2G BRASIL CZ/PTO                                                                1                      01072013                                                                                                                                                                                                                                                          000000000000000000000000000000000000000100                                                                                                                                                                                                                                                                                                                                                                                                                                                                                                                                                                                                                                                                                                                                                                                                                                                                                                                    
02                                         741502                        21842     185262    G.ROUPA ARAMOVEIS 6P2G BRASIL BR/PTO                                                                1                      01072013                                                                                                                                                                                                                                                          000000000000000000000000000000000000000100                                                                                                                                                                                                                                                                                                                                                                                                                                                                                                                                                                                                                                                                                                                                                                                                                                                                                                                    
02                                         741503                        26468     158334    RACK CAEMMUN LOTUS NEBL/PTO                                                                         1                      01072013                                                                                                                                                                                                                                                          000000000000000000000000000000000000000100                                                                                                                                                                                                                                                                                                                                                                                                                                                                                                                                                                                                                                                                                                                                                                                                                                                                                                                    
02                                         741504                        26471     183234    G.ROUPA ARAMOVEIS 6P MADRI BR/GR                                                                    1                      01072013                                                                                                                                                                                                                                                          000000000000000000000000000000000000000100                                                                                                                                                                                                                                                                                                                                                                                                                                                                                                                                                                                                                                                                                                                                                                                                                                                                                                                    
02                                         741505                        42361     185263    G.ROUPA ARAMOVEIS 6P2G BRASIL CZ/PTO                                                                1                      01072013                                                                                                                                                                                                                                                          000000000000000000000000000000000000000100                                                                                                                                                                                                                                                                                                                                                                                                                                                                                                                                                                                                                                                                                                                                                                                                                                                                                                                    
02                                         741506                        42376     152556    KIT COZ.IRMOL ACUCENA BR/PTO                                                                        1                      01072013                                                                                                                                                                                                                                                          000000000000000000000000000000000000000100                                                                                                                                                                                                                                                                                                                                                                                                                                                                                                                                                                                                                                                                                                                                                                                                                                                                                                                    
02                                         741507                        24325     185262    G.ROUPA ARAMOVEIS 6P2G BRASIL BR/PTO                                                                1                      01072013                                                                                                                                                                                                                                                          000000000000000000000000000000000000000100                                                                                                                                                                                                                                                                                                                                                                                                                                                                                                                                                                                                                                                                                                                                                                                                                                                                                                                    
02                                         741508                        26412     185263    G.ROUPA ARAMOVEIS 6P2G BRASIL CZ/PTO                                                                1                      01072013                                                                                                                                                                                                                                                          000000000000000000000000000000000000000100                                                                                                                                                                                                                                                                                                                                                                                                                                                                                                                                                                                                                                                                                                                                                                                                                                                                                                                    
02                                         741509                        24312     185262    G.ROUPA ARAMOVEIS 6P2G BRASIL BR/PTO                                                                1                      01072013                                                                                                                                                                                                                                                          000000000000000000000000000000000000000100                                                                                                                                                                                                                                                                                                                                                                                                                                                                                                                                                                                                                                                                                                                                                                                                                                                                                                                    
02                                         741510                        66350     182575    BALCAO INDEKES BIA BR/ACA                                                                           1                      01072013                                                                                                                                                                                                                                                          000000000000000000000000000000000000000100                                                                                                                                                                                                                                                                                                                                                                                                                                                                                                                                                                                                                                                                                                                                                                                                                                                                                                                    
02                                         741511                        21809     185263    G.ROUPA ARAMOVEIS 6P2G BRASIL CZ/PTO                                                                1                      01072013                                                                                                                                                                                                                                                          000000000000000000000000000000000000000100                                                                                                                                                                                                                                                                                                                                                                                                                                                                                                                                                                                                                                                                                                                                                                                                                                                                                                                    
02                                         741512                        42303     185254    G.ROUPA ARAMOVEIS 3P3G NAPOLE BR/PTO                                                                1                      01072013                                                                                                                                                                                                                                                          000000000000000000000000000000000000000100                                                                                                                                                                                                                                                                                                                                                                                                                                                                                                                                                                                                                                                                                                                                                                                                                                                                                                                    
02                                         741513                        26421     185263    G.ROUPA ARAMOVEIS 6P2G BRASIL CZ/PTO                                                                1                      01072013                                                                                                                                                                                                                                                          000000000000000000000000000000000000000100                                                                                                                                                                                                                                                                                                                                                                                                                                                                                                                                                                                                                                                                                                                                                                                                                                                                                                                    
02                                         741514                        61786     140092    G.ROUPA BERGAMO 6P LAZIO IMB/PTO                                                                    1                      01072013                                                                                                                                                                                                                                                          000000000000000000000000000000000000000200                                                                                                                                                                                                                                                                                                                                                                                                                                                                                                                                                                                                                                                                                                                                                                                                                                                                                                                    
02                                         741515                        21812     185254    G.ROUPA ARAMOVEIS 3P3G NAPOLE BR/PTO                                                                1                      01072013                                                                                                                                                                                                                                                          000000000000000000000000000000000000000100                                                                                                                                                                                                                                                                                                                                                                                                                                                                                                                                                                                                                                                                                                                                                                                                                                                                                                                    
02                                         741516                        32039     183254    COZ ARAMOVEIS CRIS BR/PTO                                                                           1                      01072013                                                                                                                                                                                                                                                          000000000000000000000000000000000000000100                                                                                                                                                                                                                                                                                                                                                                                                                                                                                                                                                                                                                                                                                                                                                                                                                                                                                                                    
02                                         741517                        21857     152556    KIT COZ.IRMOL ACUCENA BR/PTO                                                                        1                      01072013                                                                                                                                                                                                                                                          000000000000000000000000000000000000000100                                                                                                                                                                                                                                                                                                                                                                                                                                                                                                                                                                                                                                                                                                                                                                                                                                                                                                                    
02                                         741518                        21868     185263    G.ROUPA ARAMOVEIS 6P2G BRASIL CZ/PTO                                                                1                      01072013                                                                                                                                                                                                                                                          000000000000000000000000000000000000000100                                                                                                                                                                                                                                                                                                                                                                                                                                                                                                                                                                                                                                                                                                                                                                                                                                                                                                                    
02                                         741519                        26403     185262    G.ROUPA ARAMOVEIS 6P2G BRASIL BR/PTO                                                                1                      01072013                                                                                                                                                                                                                                                          000000000000000000000000000000000000000100                                                                                                                                                                                                                                                                                                                                                                                                                                                                                                                                                                                                                                                                                                                                                                                                                                                                                                                    
02                                         741520                        24318     185263    G.ROUPA ARAMOVEIS 6P2G BRASIL CZ/PTO                                                                1                      01072013                                                                                                                                                                                                                                                          000000000000000000000000000000000000000200                                                                                                                                                                                                                                                                                                                                                                                                                                                                                                                                                                                                                                                                                                                                                                                                                                                                                                                    
02                                         741521                        66148     185262    G.ROUPA ARAMOVEIS 6P2G BRASIL BR/PTO                                                                1                      01072013                                                                                                                                                                                                                                                          000000000000000000000000000000000000000100                                                                                                                                                                                                                                                                                                                                                                                                                                                                                                                                                                                                                                                                                                                                                                                                                                                                                                                    
02                                         741522                        66339     40001     COZ ITATIAIA ANITA BR                                                                               1                      01072013                                                                                                                                                                                                                                                          000000000000000000000000000000000000000100                                                                                                                                                                                                                                                                                                                                                                                                                                                                                                                                                                                                                                                                                                                                                                                                                                                                                                                    
02                                         741523                        42376     185262    G.ROUPA ARAMOVEIS 6P2G BRASIL BR/PTO                                                                1                      01072013                                                                                                                                                                                                                                                          000000000000000000000000000000000000000200                                                                                                                                                                                                                                                                                                                                                                                                                                                                                                                                                                                                                                                                                                                                                                                                                                                                                                                    
99                       000061                                                                                                                                                                                                                                                                                                                                                                                                                                                                                                                                                                                                                                                                                                                                                                                                                                                                                                                                                                                                                                                                                                                                                                                                                                                                                                                                                                                                                         