00                       20121211115337PREVIMONT                     RICARDO ELETRO                                                                                      64282601004457     99958     ATRE - CENTRAL DE MONTAGENS RE                                                                                                                                                                                                                                                                                                                                                                                                                                                                                                                                                                                                                                                                                                                                                                                                                                                                                                                                                                                                                                                                                                                                                                                                                    
01                              16663     134 259 9014983                                                                                   15989225911122012                                                              00018189342568EDUARDO SILVA DOS SANTOS                                                                            SALOMAO BARROS 2 ESTRADA DAS BARREIRAS  CABULAS                                                     BARREIRAS                     SALVADOR                                          BA                    41195715                                                                                                                                                                                                                                                          OM0000007332112559                                                                                                                                                                                                                                                                                                                                                                                                                                                                                                                                                                                                             
01                              16663     134 259 9014983                                                                                   15989125911122012                                                              00018189342568EDUARDO SILVA DOS SANTOS                                                                            SALOMAO BARROS 2 ESTRADA DAS BARREIRAS  CABULAS                                                     BARREIRAS                     SALVADOR                                          BA                    41195715                                                                                                                                                                                                                                                          OM0000007332112559                                                                                                                                                                                                                                                                                                                                                                                                                                                                                                                                                                                                             
01                              15992     148 259 9054711                                                                                   15988925911122012                                                              00050765574500SANDRA REGINA BARRETO DOS NASCIMENTO                                                                FABIO CIDREIRA 19 E                                                                                 ARENOSO                       SALVADOR                                          BA                    41211730                                                                                                                                                                                                                                                          OM0000000000000000TEL 82740850 ARENOSO LOGO NA ENTRADA PROX A JIBILA BAIK PROC MARCOS OU SANDRA LIGAR ANTES                                                                                                                                                                                                                                                                                                                                                                                                                                                                                                                    
01                              36807     147 259 9021192                                                                                   15987525911122012                                                              00079111718587ADRIANA GOMES DOS SANTOS                                                                            EZEQUIEL 85 E                                                                                       PERNAMBUES                    SALVADOR                                          BA                    41120300                                                                                                                                                                                                                                                          OM0000007187451720- (71)87330629 (71)87451720 PROX AO BAR DE GILBERTO PROC LAU                                                                                                                                                                                                                                                                                                                                                                                                                                                                                                                                                 
01                              19203     96  259 9021306                                                                                   15989625911122012                                                              00078354110591JOANA DARC F DA SILVA SAMPAIO                                                                       EDGAR PEREIRA DA CRUZ 36                                                                            ARENOSO                       SALVADOR                                          BA                    41211225                                                                                                                                                                                                                                                          OM000000000000000071)33827993 -88462882 PROCU JOANA PX AO DE CRISPIN E COLEGIO ANTONIO SERGIO CARNEIRO                                                                                                                                                                                                                                                                                                                                                                                                                                                                                                                         
01                              19318     96  259 9021265                                                                                   15989425911122012                                                              00081012640515MARIA ANTONIA FERREIRA DA SILVA                                                                     PADRE ANCHIETA CONJ ACM 78                                                                          ESTRADA DAS BARREIRAS         SALVADOR                                          BA                    41195154                                                                                                                                                                                                                                                          OM0000000000000000DEPOIS DO COLEGIO MUNICIPAL CABULA 01 FIM DE LINHA ACM PROC ROSANGELA OU ROQUE VIZINHO87630624 E 88763786 32579208                                                                                                                                                                                                                                                                                                                                                                                                                                                                                           
01                              19318     96  259 9021265                                                                                   15989325911122012                                                              00081012640515MARIA ANTONIA FERREIRA DA SILVA                                                                     PADRE ANCHIETA CONJ ACM 78                                                                          ESTRADA DAS BARREIRAS         SALVADOR                                          BA                    41195154                                                                                                                                                                                                                                                          OM0000000000000000DEPOIS DO COLEGIO MUNICIPAL CABULA 01 FIM DE LINHA ACM PROC ROSANGELA OU ROQUE VIZINHO87630624 E 88763786 32579208                                                                                                                                                                                                                                                                                                                                                                                                                                                                                           
01                              36757     147 259 9025445                                                                                   15985725911122012                                                              00048615749515ANGELA MARIA DO ESPIRITO SANTO                                                                      BOTAFOGO 69 CASA                                                                                    PERNAMBUES                    SALVADOR                                          BA                    41120310                                                                                                                                                                                                                                                          OM0000007134501614TEL 71)34501614 9918 1439 PROX AO MERACADO GUEDES 8892 7803 PROC ANGELA                                                                                                                                                                                                                                                                                                                                                                                                                                                                                                                                      
01                              36879     147 259 9020483                                                                                   15985125911122012                                                              00063384590520CRISTIANA SANTANA RAMOS REIS                                                                        MOREIRA FILHO 44 E 2 / ANDAR                                                                        PERNAMBUES                    SALVADOR                                          BA                    41120570                                                                                                                                                                                                                                                          OM0000007134501218SEM APANHA /SEM APANHA   2/TRAVESSA MOREIRA FILHO FONE 34501218 / 8271 1038 PROC A CASA DE ISAIAS                                                                                                                                                                                                                                                                                                                                                                                                                                                                                                            
01                              36757     147 259 9025445                                                                                   15985325911122012                                                              00048615749515ANGELA MARIA DO ESPIRITO SANTO                                                                      BOTAFOGO 69 CASA                                                                                    PERNAMBUES                    SALVADOR                                          BA                    41120310                                                                                                                                                                                                                                                          OM0000007134501614TEL 71)34501614 9918 1439 PROX AO MERACADO GUEDES 8892 7803 PROC ANGELA                                                                                                                                                                                                                                                                                                                                                                                                                                                                                                                                      
01                              15660     101 259 9047353                                                                                   15984825911122012                                                              00076567931515MARIA DAS GRACAS LIMA SANTIAGO                                                                      POTIRAGUA 36 JD BRASILIA                                                                            PERNAMBUES                    SALVADOR                                          BA                    41100160                                                                                                                                                                                                                                                          OM0000000000000000SUB LAD DO DETRAN RUA ATRAS DA ESC MEDLEY CASA AO LD DE ARVORE PROC SR PAULO 8207 9823                                                                                                                                                                                                                                                                                                                                                                                                                                                                                                                       
01                              15660     101 259 9047353                                                                                   15984925911122012                                                              00076567931515MARIA DAS GRACAS LIMA SANTIAGO                                                                      POTIRAGUA 36 JD BRASILIA                                                                            PERNAMBUES                    SALVADOR                                          BA                    41100160                                                                                                                                                                                                                                                          OM0000000000000000SUB LAD DO DETRAN RUA ATRAS DA ESC MEDLEY CASA AO LD DE ARVORE PROC SR PAULO 8207 9823                                                                                                                                                                                                                                                                                                                                                                                                                                                                                                                       
01                              19209     96  259 9021285                                                                                   15984725911122012                                                              00002410564542TATIANE DOS SANTOS MACHADO                                                                          DO GRILO 58                                                                                         PERNAMBUES                    SALVADOR                                          BA                    41110370                                                                                                                                                                                                                                                          OM0000007181387576TL 81387576 81756264 PROX AO MERCADO REI DA VERDURA TATIANE OU MIRACE                                                                                                                                                                                                                                                                                                                                                                                                                                                                                                                                        
01                              36515     147 259 9020479                                                                                   15987325911122012                                                              00088830080578AISLA DOS SANTOS TELES                                                                              SATURNO 257                                                                                         PERNAMBUES                    SALVADOR                                          BA                    41110070                                                                                                                                                                                                                                                          OM0000007134844332TEL. 8825 7310 QUEILA,  AO LADO DO COLEGIO ALIOMAR BALEEIRO                                                                                                                                                                                                                                                                                                                                                                                                                                                                                                                                                  
01                              36949     147 259 9020483                                                                                   15985925911122012                                                              00063384590520CRISTIANA SANTANA RAMOS REIS                                                                        MOREIRA FILHO 44 E 2 / ANDAR                                                                        PERNAMBUES                    SALVADOR                                          BA                    41120570                                                                                                                                                                                                                                                          OM0000007134501218SEM APANHA //SEM APANHA 2/TRAVESSA MOREIRA FILHO FONE 34501218 / 8271 1038 PROC A CASA DE ISAIAS                                                                                                                                                                                                                                                                                                                                                                                                                                                                                                             
01                              21022     95  259 9054230                                                                                   15992425911122012                                                              00050839276591JOZINETE GOMES SANTOS                                                                               CAJAZEIRAS XI 8 TRAV DA PAZ LOT SANTO ANTONIO                                                       CAJAZEIRAS                    SALVADOR                                          BA                    41330030                                                                                                                                                                                                                                                          OM0000007132193429PX MERCEARIA DE FIFO 86244358 PROC GEOVANA LIGAR ANTES LOT SANTO ANTONIO                                                                                                                                                                                                                                                                                                                                                                                                                                                                                                                                     
01                              21022     95  259 9054230                                                                                   15992525911122012                                                              00050839276591JOZINETE GOMES SANTOS                                                                               CAJAZEIRAS XI 8 TRAV DA PAZ LOT SANTO ANTONIO                                                       CAJAZEIRAS                    SALVADOR                                          BA                    41330030                                                                                                                                                                                                                                                          OM0000007132193429PX MERCEARIA DE FIFO 86244358 PROC GEOVANA LIGAR ANTES LOT SANTO ANTONIO                                                                                                                                                                                                                                                                                                                                                                                                                                                                                                                                     
01                              12212     89  259 9018225                                                                                   15984525911122012                                                              00006375665566MARILENE LEIDE DOS SANTOS SOUZA                                                                     AVENIDA SETE DE SETEMBRO 895 RICARDO ELETRO DAS MERCES FL 89                                        CENTRO                        SALVADOR                                          BA                    40000000                                                                                                                                                                                                                                                          OM0000007133566161ENTREGA NA RICARDO ELETRO DAS MERCES FL 89 PROC MARIENE OU MIRIAN TEL 82154067                                                                                                                                                                                                                                                                                                                                                                                                                                                                                                                               
01                              21208     95  259 9018348                                                                                   15991425911122012                                                              00027171507572ANTONIO SERGIO PASSOS MIRANDA                                                                       RUA SAO PAULO 92 CAJAZEIRA 06                                                                       CAJAZEIRA                     SALVADOR                                          BA                    41310120                                                                                                                                                                                                                                                          OM0000007132381862TEL 32381862 OU 87342613 PROXIMO A PADARIA SERRA PROCURAR SERGIO GAZ                                                                                                                                                                                                                                                                                                                                                                                                                                                                                                                                         
01                              20978     95  259 9064556                                                                                   15991225911122012                                                              00082993858572JILSMAR LOPES DE SOUZA                                                                              CJ FAZ GRANDE IV 4 CAM 63 SETOR 6                                                                   BOCA DA MATA                  SALVADOR                                          BA                    41340130                                                                                                                                                                                                                                                          OM0000007132192437CASA AO LADO DO EDUCANDARIO SANTANA PROC CLAUDIA 87333490                                                                                                                                                                                                                                                                                                                                                                                                                                                                                                                                                    
01                              21091     95  259 9018065                                                                                   15991325911122012                                                              00036125970787PAULO EVANGELISTA SANTOS                                                                            CAJAZEIRAS V 21 21 QD 6 CAM 6                                                                       CAJAZEIRAS                    SALVADOR                                          BA                    41330060                                                                                                                                                                                                                                                          OM000000713395080133950801 ENTRADA PELO MIX SUPER MERCADO                                                                                                                                                                                                                                                                                                                                                                                                                                                                                                                                                                      
01                              21123     95  259 9045314                                                                                   15991025911122012                                                              00078454999515JAILSON CARLOS DA SILVA                                                                             CAJAZEIRAS X 11 SETOR 1 CAM 18                                                                      CAJAZEIRAS X                  SALVADOR                                          BA                    41330000                                                                                                                                                                                                                                                          OM0000000000000000FINAL DE LINHA PROX A PRACINHA PROC JOSE OU TEREZA TEL 32193402 96226048                                                                                                                                                                                                                                                                                                                                                                                                                                                                                                                                     
01                              20978     95  259 9064556                                                                                   15991125911122012                                                              00082993858572JILSMAR LOPES DE SOUZA                                                                              CJ FAZ GRANDE IV 4 CAM 63 SETOR 6                                                                   BOCA DA MATA                  SALVADOR                                          BA                    41340130                                                                                                                                                                                                                                                          OM0000007132192437CASA AO LADO DO EDUCANDARIO SANTANA PROC CLAUDIA 87333490                                                                                                                                                                                                                                                                                                                                                                                                                                                                                                                                                    
01                              36796     147 259 9021190                                                                                   15983625911122012                                                              00050921088515FABRICIO SILVA CRUZ                                                                                 SETE DE SETEMBRO 2141 CAICARA AP 602                                                                VITORIA                       SALVADOR                                          BA                    40080002                                                                                                                                                                                                                                                          OM000000000000000081219304 REF AOLADO DO CORREIO E EDF TORRE DE BARCELONA ENTREGAR NA PORTARIA                                                                                                                                                                                                                                                                                                                                                                                                                                                                                                                                 
01                              21058     95  259 9018065                                                                                   15984125911122012                                                              00083325514553IRINEIDE DE JESUS DOS SANTOS                                                                        BRANDAO 66 ATRAS DA IGREJA                                                                          VITORIA                       SALVADOR                                          BA                    40130125                                                                                                                                                                                                                                                          OM000000713219342981890107 E 81867196 ATRAS DA IGREJA NO FIM DO ESTACIONAMENTO PROC IRINEU OU ADELMO                                                                                                                                                                                                                                                                                                                                                                                                                                                                                                                           
01                              19837     220 259 9020824                                                                                   15993125911122012                                                              00003795362504JAILTON DA SILVA COSTA JUNIOR                                                                       67-QUADRA D 6                                                                                       CAJAZEIRAS                    SALVADOR                                          BA                    41343465                                                                                                                                                                                                                                                          OM0000007133055063DEPOIS DO MERCADO DO ZANATA CASA VERDE PROC JAILTON 82776045 33055063 ENTREGAR TERCA FEIRA PODE ENTREGAR CASA JOANA VIZ                                                                                                                                                                                                                                                                                                                                                                                                                                                                                      
01                              29339     88  259 9042255                                                                                   15993025911122012                                                              00011420103504EDNILSON DOMINGOS LUZ                                                                               1 QD C CAMINHO 1 12                                                                                 CAJAZEIRAS X                  SALVADOR                                          BA                    41236999                                                                                                                                                                                                                                                          OM0000000000000000(71)33956047 - (71)99392600 APOIS A SINALEIRA ENT A ESQ AO LADO DO SUPER MERCADO CENTRAL 10 PROC EDNILSON OU PROC O VIZI                                                                                                                                                                                                                                                                                                                                                                                                                                                                                     
01                              12216     89  259 9018204                                                                                   15983925911122012                                                              00000710938500EIDER ANGELO TUPINAMBA                                                                              JOGO DO CARNEIRO 216 1 ANDAR                                                                        SAUDE                         SALVADOR                                          BA                    40045040                                                                                                                                                                                                                                                          OM0000007141411640JUNTO DA PANIFICADORA PANILHE LOGO NO INICIO PRC HAIDER 32432034 82886547                                                                                                                                                                                                                                                                                                                                                                                                                                                                                                                                    
01                              21058     95  259 9018065                                                                                   15984025911122012                                                              00083325514553IRINEIDE DE JESUS DOS SANTOS                                                                        BRANDAO 66 ATRAS DA IGREJA                                                                          VITORIA                       SALVADOR                                          BA                    40130125                                                                                                                                                                                                                                                          OM000000713219342981890107 E 81867196 ATRAS DA IGREJA NO FIM DO ESTACIONAMENTO PROC IRINEU OU ADELMO                                                                                                                                                                                                                                                                                                                                                                                                                                                                                                                           
01                              21172     95  259 9064556                                                                                   15990925911122012                                                              00034702083520LUCILIA ARIANE DOS SANTOS                                                                           FAZ GRANDE III 5 QRDA A CAM 81                                                                      CAJAZEIRAS                    SALVADOR                                          BA                    41340120                                                                                                                                                                                                                                                          OM0000007133956365                                                                                                                                                                                                                                                                                                                                                                                                                                                                                                                                                                                                             
01                              15933     127 259 9017980                                                                                   15985825911122012                                                              00009107991568ANTONIO CARNEIRO DA ROCHA FILHO                                                                     JURACI MAGALHAES 90 SEGUNDA TRAVESSA                                                                MASSARANDUBA                  SALVADOR                                          BA                    40000000                                                                                                                                                                                                                                                          OM000000000000000087395367, 88423028 FINAL DE LINHA DA MASSARANDUBA NA ENTRADA PADARIA CROKI PAO PROC SILVANA                                                                                                                                                                                                                                                                                                                                                                                                                                                                                                                  
01                              15933     127 259 9017980                                                                                   15985625911122012                                                              00009107991568ANTONIO CARNEIRO DA ROCHA FILHO                                                                     JURACI MAGALHAES 90 SEGUNDA TRAVESSA                                                                MASSARANDUBA                  SALVADOR                                          BA                    40000000                                                                                                                                                                                                                                                          OM000000000000000087395367, 88423028 FINAL DE LINHA DA MASSARANDUBA NA ENTRADA PADARIA CROKI PAO PROC SILVANA                                                                                                                                                                                                                                                                                                                                                                                                                                                                                                                  
01                              19955     87  259 9050175                                                                                   15985425911122012                                                              00082759782549SIDCLAY CRUZ SOUZA                                                                                  ALMIRANTE BARROSO 171 2 ANDAR                                                                       VILA RUI BARBOSA              SALVADOR                                          BA                    40430240                                                                                                                                                                                                                                                          OM0000007132145332PX AO BAR DO RASTA COLEGIO SANT BARBARA PROC EDMUNDO RASTA OU SIDCLAY TEL 8843911286516604                                                                                                                                                                                                                                                                                                                                                                                                                                                                                                                   
01                              19981     87  259 9018040                                                                                   15985225911122012                                                              00050430068549ANA CLARA SANTANA DA PAIXAO                                                                         PRIMEIRO DE JANEIRO 3 1 ANDAR                                                                       VILA RUI BARBOSA              SALVADOR                                          BA                    40430165                                                                                                                                                                                                                                                          OM0000007133148207SEM RECOLHIMENTO PROX A PADARIA IRMAOS UNIDO EF VITORIA                                                                                                                                                                                                                                                                                                                                                                                                                                                                                                                                                      
01                              36756     147 259 9020501                                                                                   15986425911122012                                                              00033752133520ELIS ROSANE SILVEIRA RIBEIRO PEREIRA                                                                BRAZ DO AMARAL 16 301 EDF SAO JORGE TEL 34941069                                                    BONFIM                        SALVADOR                                          BA                    40415130                                                                                                                                                                                                                                                          OM0000007134941069TEL 91910881 OU 34941069 PONTO DE REF RUA DA ANTIGA 3 DELEGACIA                                                                                                                                                                                                                                                                                                                                                                                                                                                                                                                                              
01                              19838     87  259 9017161                                                                                   15987225911122012                                                              00034507191572JACIARA RODRIGUES DE SOUZA                                                                          MARQUES DE SANTO AMARO 19                                                                           RIBEIRA                       SALVADOR                                          BA                    40420510                                                                                                                                                                                                                                                          OM0000007133126972ENFRETE A IGREJA BATISTA CASA AMARELADA PROC JACIARA 96688940                                                                                                                                                                                                                                                                                                                                                                                                                                                                                                                                                
01                              19838     87  259 9017161                                                                                   15987025911122012                                                              00034507191572JACIARA RODRIGUES DE SOUZA                                                                          MARQUES DE SANTO AMARO 19                                                                           RIBEIRA                       SALVADOR                                          BA                    40420510                                                                                                                                                                                                                                                          OM0000007133126972ENFRETE A IGREJA BATISTA CASA AMARELADA PROC JACIARA 96688940                                                                                                                                                                                                                                                                                                                                                                                                                                                                                                                                                
01                              19838     87  259 9017161                                                                                   15986825911122012                                                              00034507191572JACIARA RODRIGUES DE SOUZA                                                                          MARQUES DE SANTO AMARO 19                                                                           RIBEIRA                       SALVADOR                                          BA                    40420510                                                                                                                                                                                                                                                          OM0000007133126972ENFRETE A IGREJA BATISTA CASA AMARELADA PROC JACIARA 96688940                                                                                                                                                                                                                                                                                                                                                                                                                                                                                                                                                
01                              19838     87  259 9017161                                                                                   15987625911122012                                                              00034507191572JACIARA RODRIGUES DE SOUZA                                                                          MARQUES DE SANTO AMARO 19                                                                           RIBEIRA                       SALVADOR                                          BA                    40420510                                                                                                                                                                                                                                                          OM0000007133126972                                                                                                                                                                                                                                                                                                                                                                                                                                                                                                                                                                                                             
01                              19907     87  259 9050298                                                                                   15988225911122012                                                              00027482022520MARIA ALVES DOS SANTOS                                                                              DOUTOR COUTO MAIA 34 1ST ANDAR                                                                      BONFIM                        SALVADOR                                          BA                    40415240                                                                                                                                                                                                                                                          OM0000007133140566PROX AO COMPLEXO SAOJOSE PROC DONA MARIO OU MANOELITO 87408510 PROC TAIRINE                                                                                                                                                                                                                                                                                                                                                                                                                                                                                                                                  
01                              19907     87  259 9050298                                                                                   15988125911122012                                                              00027482022520MARIA ALVES DOS SANTOS                                                                              DOUTOR COUTO MAIA 34 1ST ANDAR                                                                      BONFIM                        SALVADOR                                          BA                    40415240                                                                                                                                                                                                                                                          OM0000007133140566PROX AO COMPLEXO SAOJOSE PROC DONA MARIO OU MANOELITO 87408510 PROC TAIRINE                                                                                                                                                                                                                                                                                                                                                                                                                                                                                                                                  
01                              15907     127 259 9017980                                                                                   15988525911122012                                                              00019803109553AUREA INES CORREIA                                                                                  LOPES TROVAO 74 A                                                                                   MASSARANDUBA                  SALVADOR                                          BA                    40435000                                                                                                                                                                                                                                                          OM0000007132071219(71)86831744 PROX A MAGAZINE DAS CHAPAS PROC TULIO                                                                                                                                                                                                                                                                                                                                                                                                                                                                                                                                                           
01                              16047     148 259 9054711                                                                                   15990225911122012                                                              00080805019553MARIA JOSE COSTA BARBOSA                                                                            SANTA BERNADETE 162 ESTRADA DAS BARREIRA                                                            BARREIRAS                     SALVADOR                                          BA                    41195160                                                                                                                                                                                                                                                          OM0000007133847031TEL 7133847031 RUA DIRETA DAS BARREIRAS CASA PROX A ACDEMIA DE ELIAZE IGREJA CATOLICA SANTA MARIA PROC PROC NINHA OU JUN                                                                                                                                                                                                                                                                                                                                                                                                                                                                                     
01                              16047     148 259 9054711                                                                                   15990125911122012                                                              00080805019553MARIA JOSE COSTA BARBOSA                                                                            SANTA BERNADETE 162 ESTRADA DAS BARREIRA                                                            BARREIRAS                     SALVADOR                                          BA                    41195160                                                                                                                                                                                                                                                          OM0000007133847031TEL 7133847031 RUA DIRETA DAS BARREIRAS CASA PROX A ACDEMIA DE ELIAZE IGREJA CATOLICA SANTA MARIA PROC PROC NINHA OU JUN                                                                                                                                                                                                                                                                                                                                                                                                                                                                                     
01                              41940     90  259 9021188                                                                                   15990425911122012                                                              00002336992523JOSE RAIMUNDO CARVALHO DIAS                                                                         EDGAR SANTOS 0 1                                                                                    NARANDIBA                     SALVADOR                                          BA                    41220100                                                                                                                                                                                                                                                          OM0000000000000000ANTES DA VIGESSIMA TERCEIRA DELEGACIA AO LADO DO FERRO VELHO PROC RAIMUNDO                                                                                                                                                                                                                                                                                                                                                                                                                                                                                                                                   
01                              16046     148 259 9050133                                                                                   15990325911122012                                                              00035215437572ALAIDE GOIS DA CRUZ                                                                                 UBARANAS 30                                                                                         BARREIRAS                     SALVADOR                                          BA                    41195195                                                                                                                                                                                                                                                          OM0000007132573275REF AO LADO DA FAMARCIA SANTANA TEL32573275 PROC ALAIDE TEL 82629511                                                                                                                                                                                                                                                                                                                                                                                                                                                                                                                                         
01                              16072     148 259 9057796                                                                                   15990625911122012                                                              00018594492553EDVALDO SOUZA BEZERRA                                                                               JARDIM OLIVEIRA 131 SUB SOLO                                                                        ENGOMADEIRA                   SALVADOR                                          BA                    41200100                                                                                                                                                                                                                                                          OM0000007132577890TEL 81140958 OU 32577890 PRIMEIRA A DIREITA ATRAS DA IGREJA BATISTA PROC LEO OU NAIARA LIGAR PARA CLIENTE                                                                                                                                                                                                                                                                                                                                                                                                                                                                                                    
01                              16025     148 259 9054711                                                                                   15990525911122012                                                              00000833123580ADRAIANA SANTIAGO                                                                                   SANTA CECILIA 0 45 E                                                                                ARENOSO                       SALVADOR                                          BA                    41211080                                                                                                                                                                                                                                                          OM0000000000000000TEL 86808205 RUA DIRETA SENTIDO CABULA SEIS EM FRENTE SO BAR DE NALVA PROC ADRIANA LIGAR ANTE S                                                                                                                                                                                                                                                                                                                                                                                                                                                                                                              
01                              16052     148 259 9057796                                                                                   15990825911122012                                                              00013346385515DAVINA DA SILVA.                                                                                    R WANDERSON CAMPELO 55 E                                                                            ARENOSO                       SALVADOR                                          BA                    41211570                                                                                                                                                                                                                                                          OM0000007134614609TEL 7134614609 EM FRENTE A  IGREJA ASSEMBLEIA DE DEUS PROC DAVINA MAE DE DENISE LIGAR PARA CLIENTE                                                                                                                                                                                                                                                                                                                                                                                                                                                                                                           
01                              42135     90  259 9050478                                                                                   15990725911122012                                                              00087689367534JAILSON DOS SANTOS MENEZES                                                                          AV EDGAR SANTOS 88                                                                                  NARANDIBA                     SALVADOR                                          BA                    41180000                                                                                                                                                                                                                                                          OM0000000000000000EM FRENTE A SEDE DA COELBA TEL 8637 2081 PROC EVALDO FVR LIGAR ANTES 8179 8216                                                                                                                                                                                                                                                                                                                                                                                                                                                                                                                               
02                                         622164                        16663     155395    COL.PAROPAS FASCINIUM CAFE 138X22                                                                   1                      14122012                                                                                                                                                                                                                                                          000000000000000000000000000000000000000200                                                                                                                                                                                                                                                                                                                                                                                                                                                                                                                                                                                                                                                                                                                                                                                                                                                                                                                    
02                                         622165                        16663     155397    BOX PAROPAS FASCINIUM CAFE 138X30                                                                   1                      14122012                                                                                                                                                                                                                                                          000000000000000000000000000000000000000100                                                                                                                                                                                                                                                                                                                                                                                                                                                                                                                                                                                                                                                                                                                                                                                                                                                                                                                    
02                                         622166                        15992     157755    G.ROUPA ARAPLAC 10P ATL PLUS TB/GRAF                                                                1                      14122012                                                                                                                                                                                                                                                          000000000000000000000000000000000000000100                                                                                                                                                                                                                                                                                                                                                                                                                                                                                                                                                                                                                                                                                                                                                                                                                                                                                                                    
02                                         622167                        36807     155997    PAN INDEKES 2P S/VD JULIA BR/PTO                                                                    1                      14122012                                                                                                                                                                                                                                                          000000000000000000000000000000000000000100                                                                                                                                                                                                                                                                                                                                                                                                                                                                                                                                                                                                                                                                                                                                                                                                                                                                                                                    
02                                         622168                        19203     141257    CAMA BOX ORTOBOM CS BLACK 138X40                                                                    1                      14122012                                                                                                                                                                                                                                                          000000000000000000000000000000000000000100                                                                                                                                                                                                                                                                                                                                                                                                                                                                                                                                                                                                                                                                                                                                                                                                                                                                                                                    
02                                         622169                        19318     134893    COZ ITATIAIA CRIATIVA MAX II 2V BR                                                                  1                      14122012                                                                                                                                                                                                                                                          000000000000000000000000000000000000000200                                                                                                                                                                                                                                                                                                                                                                                                                                                                                                                                                                                                                                                                                                                                                                                                                                                                                                                    
02                                         622170                        19318     134896    BALC.ITAT.IG3G4-C CRIATIVA BR                                                                       1                      14122012                                                                                                                                                                                                                                                          000000000000000000000000000000000000000100                                                                                                                                                                                                                                                                                                                                                                                                                                                                                                                                                                                                                                                                                                                                                                                                                                                                                                                    
02                                         622171                        36757     154277    CJ BOX ORTOBOM BLACK D60 88X48                                                                      1                      14122012                                                                                                                                                                                                                                                          000000000000000000000000000000000000000300                                                                                                                                                                                                                                                                                                                                                                                                                                                                                                                                                                                                                                                                                                                                                                                                                                                                                                                    
02                                         622172                        36879     88621     COZ COMP COLOR ECLIPSE TOP BR                                                                       1                      14122012                                                                                                                                                                                                                                                          000000000000000000000000000000000000000100                                                                                                                                                                                                                                                                                                                                                                                                                                                                                                                                                                                                                                                                                                                                                                                                                                                                                                                    
02                                         622173                        36757     132451    SOFA INTERZUM ARIZONA 3L PU MAR                                                                     1                      14122012                                                                                                                                                                                                                                                          000000000000000000000000000000000000000100                                                                                                                                                                                                                                                                                                                                                                                                                                                                                                                                                                                                                                                                                                                                                                                                                                                                                                                    
02                                         622174                        15660     134836    BASE RECONFLEX FORTFLEX 138X25                                                                      1                      14122012                                                                                                                                                                                                                                                          000000000000000000000000000000000000000100                                                                                                                                                                                                                                                                                                                                                                                                                                                                                                                                                                                                                                                                                                                                                                                                                                                                                                                    
02                                         622175                        15660     134874    COL RECONFLEX D45 FORTFLEX 138X20                                                                   1                      14122012                                                                                                                                                                                                                                                          000000000000000000000000000000000000000200                                                                                                                                                                                                                                                                                                                                                                                                                                                                                                                                                                                                                                                                                                                                                                                                                                                                                                                    
02                                         622176                        19209     88625     COZ COMP COLOR ECLIPSE TOP BR/PTO                                                                   1                      14122012                                                                                                                                                                                                                                                          000000000000000000000000000000000000000200                                                                                                                                                                                                                                                                                                                                                                                                                                                                                                                                                                                                                                                                                                                                                                                                                                                                                                                    
02                                         622177                        36515     155461    G.ROUPA EURO 3P RUBI ESP BR/PTO/BR                                                                  1              2001122614122012                                                                                                                                                                                                                                                          000000000000000000000000000000000000000100                                                                                                                                                                                                                                                                                                                                                                                                                                                                                                                                                                                                                                                                                                                                                                                                                                                                                                                    
02                                         622178                        36949     88549     RACK SOMOPAR 20000 IMB/PTO                                                                          1                      14122012                                                                                                                                                                                                                                                          000000000000000000000000000000000000000100                                                                                                                                                                                                                                                                                                                                                                                                                                                                                                                                                                                                                                                                                                                                                                                                                                                                                                                    
02                                         622179                        21022     155339    SOFA PAROPAS SUECIA 2L CZ                                                                           1                      14122012                                                                                                                                                                                                                                                          000000000000000000000000000000000000000100                                                                                                                                                                                                                                                                                                                                                                                                                                                                                                                                                                                                                                                                                                                                                                                                                                                                                                                    
02                                         622180                        21022     155335    SOFA PAROPAS SUECIA 3L CZ                                                                           1                      14122012                                                                                                                                                                                                                                                          000000000000000000000000000000000000000200                                                                                                                                                                                                                                                                                                                                                                                                                                                                                                                                                                                                                                                                                                                                                                                                                                                                                                                    
02                                         622181                        12212     96195     MESA GRAN CARLA 4C RET NAP PTO                                                                      1                      14122012                                                                                                                                                                                                                                                          000000000000000000000000000000000000000100                                                                                                                                                                                                                                                                                                                                                                                                                                                                                                                                                                                                                                                                                                                                                                                                                                                                                                                    
02                                         622182                        21208     134874    COL RECONFLEX D45 FORTFLEX 138X20                                                                   1                      14122012                                                                                                                                                                                                                                                          000000000000000000000000000000000000000100                                                                                                                                                                                                                                                                                                                                                                                                                                                                                                                                                                                                                                                                                                                                                                                                                                                                                                                    
02                                         622183                        20978     157215    SOFA SOMOPAR CIATON 3L PTO/FLO                                                                      1                      14122012                                                                                                                                                                                                                                                          000000000000000000000000000000000000000200                                                                                                                                                                                                                                                                                                                                                                                                                                                                                                                                                                                                                                                                                                                                                                                                                                                                                                                    
