00                       20121110090154PREVIMONT                     RICARDO ELETRO                                                                                      64282601004457     99958     ATRE - CENTRAL DE MONTAGENS RE                                                                                                                                                                                                                                                                                                                                                                                                                                                                                                                                                                                                                                                                                                                                                                                                                                                                                                                                                                                                                                                                                                                                                                                                                    
01                              25521     88  259 9042255                                                                                   13499825910112012                                                              00001609412532ALAN COSTA SANTOS                                                                                   BARONESA DE CIMA 14                                                                                 TORORO                        SALVADOR                                          BA                    40050130                                                                                                                                                                                                                                                          OM000000000000000087008875 32660564 PX NA ENT DA LAPA PROX A PASSARELA DEPOIS DA FUNERARIO PRIMEIRA CASA PROC ADELMO ALAN OU ARLEI                                                                                                                                                                                                                                                                                                                                                                                                                                                                                             
01                              25606     88  259 9050417                                                                                   13499325910112012                                                              00085814879556MARIA ISABEL GUIMARAES SA                                                                           FILEMON ANDRADE 97 402 A                                                                            GARCIA                        SALVADOR                                          BA                    40100060                                                                                                                                                                                                                                                          OM000000000000000093278587 COND SERRA DO GARCIA EM FRENTE A SABWAI PROC MARIA ISABEL OU ENTREGAR NA PORTARIA                                                                                                                                                                                                                                                                                                                                                                                                                                                                                                                   
01                              25606     88  259 9050417                                                                                   13499225910112012                                                              00085814879556MARIA ISABEL GUIMARAES SA                                                                           FILEMON ANDRADE 97 402 A                                                                            GARCIA                        SALVADOR                                          BA                    40100060                                                                                                                                                                                                                                                          OM000000000000000093278587 COND SERRA DO GARCIA EM FRENTE A SABWAI PROC MARIA ISABEL OU ENTREGAR NA PORTARIA                                                                                                                                                                                                                                                                                                                                                                                                                                                                                                                   
01                              10305     89  259 9018225                                                                                   13498925910112012                                                              00072612207520PEDRO BASTOS DOS SANTOS                                                                             DIREITA DA PIEDADE 803 ED VENEZIA 04                                                                BARRIS                        SALVADOR                                          BA                    40070190                                                                                                                                                                                                                                                          OM0000007133297493PROX A SECRETARIA DE SEGURANCA PROC VALDECI TEL 96323878                                                                                                                                                                                                                                                                                                                                                                                                                                                                                                                                                     
01                              17905     95  259 9064556                                                                                   13501825910112012                                                              00021225389534ALCIONE LIMA GONZAGA                                                                                CJ FAZENDA GRANDE II 9 LOTEAMENTO PQ SAO JOSE                                                       CAJAZERAS                     SALVADOR                                          BA                    41330010                                                                                                                                                                                                                                                          OM0000000000000000(71)86785299 PROCURAR DEISE ENTREGAR NA CASA AO LADO DO BAR DE KEU PERGUNTAR NO BAR RUA TRAV EDSON EVANGELISTA                                                                                                                                                                                                                                                                                                                                                                                                                                                                                               
01                              17827     95  259 9054230                                                                                   13500925910112012                                                              00037662180506LUCIENE SANTOS DE JESUS                                                                             CAJAZEIRAS VIII 15 PRIMEIRO 1 ANDAR CAJ 8 CHACARA DO MONTE                                          CAJAZEIRAS                    SALVADOR                                          BA                    41330020                                                                                                                                                                                                                                                          OM0000000000000000PX AO BAR DE ROQUE I A IGREJA PENTECOSTAL 87351825 PROC LUCIENE                                                                                                                                                                                                                                                                                                                                                                                                                                                                                                                                              
01                              31203     147 259 9025445                                                                                   13501525910112012                                                              00081916540597JOSEANE SILVA OLIVEIRA SANTOS                                                                       TERRA NOVA 55 20 APT 101 COND VILLAGE INEMA                                                         VALERIA                       SALVADOR                                          BA                    41305490                                                                                                                                                                                                                                                          OM0000000000000000TROCA SEM APANHA CEL 8782 7328 PROX A TRANSPORTADORA PRIMEIRA DO NORDESTE PROC CLEBER SEM APANHA                                                                                                                                                                                                                                                                                                                                                                                                                                                                                                             
01                              31203     147 259 9025445                                                                                   13501425910112012                                                              00081916540597JOSEANE SILVA OLIVEIRA SANTOS                                                                       TERRA NOVA 55 20 APT 101 COND VILLAGE INEMA                                                         VALERIA                       SALVADOR                                          BA                    41305490                                                                                                                                                                                                                                                          OM0000000000000000TROCA SEM APANHA CEL 8782 7328 PROX A TRANSPORTADORA PRIMEIRA DO NORDESTE PROC CLEBER SEM APANHA                                                                                                                                                                                                                                                                                                                                                                                                                                                                                                             
01                              17817     95  259 9018065                                                                                   13501725910112012                                                              00049534521515JOMAR DE JESUS CARVALHO                                                                             JARDIM MANGABEIRA 5 TRAV SAO DOMINGOS                                                               CAJAZEIRAS VIII               SALVADOR                                          BA                    41330029                                                                                                                                                                                                                                                          OM000000713219710432197104 ATRAS DA ESCOLA TIA ALELUIA PROC DANI OU RANULFO                                                                                                                                                                                                                                                                                                                                                                                                                                                                                                                                                    
01                              12262     107 259 9065672                                                                                   13498725910112012                                                              00029415560525ANA RITA S HAMBURGO                                                                                 CRISTOVAO FERREIRA 38 E                                                                             NORDESTE                      SALVADOR                                          BA                    41905460                                                                                                                                                                                                                                                          OM0000007133455226PROX A IGREJA TESTEMUNHA DE JEOVA PROC DONA EDITE TEL 33455227 OU 88305667                                                                                                                                                                                                                                                                                                                                                                                                                                                                                                                                   
01                              12262     107 259 9065672                                                                                   13498625910112012                                                              00029415560525ANA RITA S HAMBURGO                                                                                 CRISTOVAO FERREIRA 38 E                                                                             NORDESTE                      SALVADOR                                          BA                    41905460                                                                                                                                                                                                                                                          OM0000007133455226PROX A IGREJA TESTEMUNHA DE JEOVA PROC DONA EDITE TEL 33455227 OU 88305667                                                                                                                                                                                                                                                                                                                                                                                                                                                                                                                                   
01                              31199     147 259 9025445                                                                                   13503525910112012                                                              00056801688553MAURACI CALDAS SOARES                                                                               ALIOMAR BALEEIRO 11                                                                                 PAU DA LIMA                   SALVADOR                                          BA                    41245020                                                                                                                                                                                                                                                          OM0000007134094444TROCA SEM APANHA CEL 8700 4572 PROX AO MAX ATACADO SEM APANHA                                                                                                                                                                                                                                                                                                                                                                                                                                                                                                                                                
01                              12231     107 259 9018050                                                                                   13498025910112012                                                              00038897679587RITA RIBEIRO DE PAIVA                                                                               NORDESTINA 70 E                                                                                     NORDESTE                      SALVADOR                                          BA                    41905590                                                                                                                                                                                                                                                          OM0000000000000000FICA PROX CELESTA EM FRENTE A IGREJA PROC VANESSA OU RITA 91607292 87455741                                                                                                                                                                                                                                                                                                                                                                                                                                                                                                                                  
01                              12300     107 259 9065672                                                                                   13498125910112012                                                              00064565602504JAQUELINE IMBIRIBA FERREIRA DOS SANTOS                                                              ALTO DA ALEGRIA 77                                                                                  NORDESTE DE AMARALINA         SALVADOR                                          BA                    41910200                                                                                                                                                                                                                                                          OM0000007132404313PX A PADARIA CANAAN OU O BAR DE PIRI PROC MICHELLE OU JAQUELINE TEL 32404313 OU 87218216                                                                                                                                                                                                                                                                                                                                                                                                                                                                                                                     
01                              14801     104 259 9065012                                                                                   13502925910112012                                                              00095505547591ANTONIO BATISTA DAS VIRGENS                                                                         SAO JORGE 7 7 E PROX RESTAURANTE MARISETE                                                           SAO RAFAEL                    SALVADOR                                          BA                    40000000                                                                                                                                                                                                                                                          OM000000000000000099434634 96116243 PROX AO RESTAURANTE MARISETE PROC ANTONIO OU JANE                                                                                                                                                                                                                                                                                                                                                                                                                                                                                                                                          
01                              16273     96  259 9021267                                                                                   13497925910112012                                                              00002103852516AVANAIDE BISPO DOS SANTOS                                                                           DIQUE PEQUENO 133                                                                                   VASCO DA GAMA                 SALVADOR                                          BA                    40000000                                                                                                                                                                                                                                                          OM0000000000000000SEM APANHA TL 81159894 NO FUNDO DO COLEGIO VICTOR SILVA PROC IVONE                                                                                                                                                                                                                                                                                                                                                                                                                                                                                                                                           
01                              16363     96  259 9021306                                                                                   13497225910112012                                                              00071632190591MARIA DAS GRACAS BRAGA LIMA                                                                         RUA ANDRE LUIZ 17 E TEL 82848987                                                                    VALE DAS PEDRINHAS            SALVADOR                                          BA                    41915010                                                                                                                                                                                                                                                          OM0000000000000000TEL 87207612 82848987 PROC INHA OU GUGU PX A RADIO COMUNITARIA BOA GENTE E BAR DA NEGA E O MERCADINO SALES                                                                                                                                                                                                                                                                                                                                                                                                                                                                                                   
01                              25503     88  259 9017985                                                                                   13500425910112012                                                              00079281710587GEORGE AUGUSTO DE JESUS SENA                                                                        MIGUEL LEMOS 108 108                                                                                FEDERACAO                     SALVADOR                                          BA                    40230650                                                                                                                                                                                                                                                          OM00000071333218519624 4128 9245 6782 PROX PROX DA SEDE DO BINOCULOS PROC BIA                                                                                                                                                                                                                                                                                                                                                                                                                                                                                                                                                  
01                              25494     88  259 9042255                                                                                   13500225910112012                                                              00005047703576FLAVIA ALVES FERNANDES                                                                              MARIA EUGENIA 82 E                                                                                  FEDERACAO                     SALVADOR                                          BA                    40230060                                                                                                                                                                                                                                                          OM0000000000000000(71)32457422 - (71)87243778 RUA FERREIRA SANTOS PX AO MINI MERCADO MOREIRA PROC MERITA                                                                                                                                                                                                                                                                                                                                                                                                                                                                                                                       
01                              25611     88  259 9020566                                                                                   13500125910112012                                                              00041600940820JOSE DA COSTA DORIA FILHO                                                                           FILEMON ANDRADE 1401 N 97APT 1401 B COND SERRA DO GARCIA                                            GARCIA                        SALVADOR                                          BA                    40100060                                                                                                                                                                                                                                                          OM0000000000000000ESQ ACADEMIA MARCIAL PROC HELENA DORIA TEL 33284778 81260709 AO LADO COL 2 JULHO                                                                                                                                                                                                                                                                                                                                                                                                                                                                                                                             
02                                         597819                        25521     157755    G.ROUPA ARAPLAC 10P ATL PLUS TB/GRAF                                                                1                      14112012                                                                                                                                                                                                                                                          000000000000000000000000000000000000000100                                                                                                                                                                                                                                                                                                                                                                                                                                                                                                                                                                                                                                                                                                                                                                                                                                                                                                                    
02                                         597820                        25606     155938    RACK EDN MALIBU EBA/PTO                                                                             1                      14112012                                                                                                                                                                                                                                                          000000000000000000000000000000000000000300                                                                                                                                                                                                                                                                                                                                                                                                                                                                                                                                                                                                                                                                                                                                                                                                                                                                                                                    
02                                         597821                        25606     155954    PAINEL EDN FIRENZE EBA/PTO                                                                          1                      14112012                                                                                                                                                                                                                                                          000000000000000000000000000000000000000200                                                                                                                                                                                                                                                                                                                                                                                                                                                                                                                                                                                                                                                                                                                                                                                                                                                                                                                    
02                                         597822                        10305     88609     MESA MODECOR LUMA 4C T.VID BR                                                                       1                      14112012                                                                                                                                                                                                                                                          000000000000000000000000000000000000000100                                                                                                                                                                                                                                                                                                                                                                                                                                                                                                                                                                                                                                                                                                                                                                                                                                                                                                                    
02                                         597823                        17905     157755    G.ROUPA ARAPLAC 10P ATL PLUS TB/GRAF                                                                1                      14112012                                                                                                                                                                                                                                                          000000000000000000000000000000000000000100                                                                                                                                                                                                                                                                                                                                                                                                                                                                                                                                                                                                                                                                                                                                                                                                                                                                                                                    
02                                         597824                        17827     157755    G.ROUPA ARAPLAC 10P ATL PLUS TB/GRAF                                                                1                      14112012                                                                                                                                                                                                                                                          000000000000000000000000000000000000000100                                                                                                                                                                                                                                                                                                                                                                                                                                                                                                                                                                                                                                                                                                                                                                                                                                                                                                                    
02                                         597825                        31203     154555    PAINEL RV CHICAGO C/PRAT CARV/PTO                                                                   1                      14112012                                                                                                                                                                                                                                                          000000000000000000000000000000000000000200                                                                                                                                                                                                                                                                                                                                                                                                                                                                                                                                                                                                                                                                                                                                                                                                                                                                                                                    
02                                         597826                        31203     154235    RACK RV BAHAMAS CARV/PTO                                                                            1                      14112012                                                                                                                                                                                                                                                          000000000000000000000000000000000000000100                                                                                                                                                                                                                                                                                                                                                                                                                                                                                                                                                                                                                                                                                                                                                                                                                                                                                                                    
02                                         597827                        17817     155462    G.ROUPA EURO 3P RUBI ESP PL/PT/PL                                                                   1                      14112012                                                                                                                                                                                                                                                          000000000000000000000000000000000000000100                                                                                                                                                                                                                                                                                                                                                                                                                                                                                                                                                                                                                                                                                                                                                                                                                                                                                                                    
02                                         597828                        12262     157355    CADEIRA RUFATO BARCELONA GRI/PTO                                                                    6                      14112012                                                                                                                                                                                                                                                          000000000000000000000000000000000000000200                                                                                                                                                                                                                                                                                                                                                                                                                                                                                                                                                                                                                                                                                                                                                                                                                                                                                                                    
02                                         597829                        12262     157354    MESA RUFATO BARCELONA VD1.60 GRI/PTO                                                                1                      14112012                                                                                                                                                                                                                                                          000000000000000000000000000000000000000100                                                                                                                                                                                                                                                                                                                                                                                                                                                                                                                                                                                                                                                                                                                                                                                                                                                                                                                    
02                                         597830                        31199     154334    CADEIRA RV ESMERALDA CARV/PTO                                                                       6                      14112012                                                                                                                                                                                                                                                          000000000000000000000000000000000000000100                                                                                                                                                                                                                                                                                                                                                                                                                                                                                                                                                                                                                                                                                                                                                                                                                                                                                                                    
02                                         597831                        12231     133059    G.ROUPA ARAPLAC ESPANHA 6P 3G TB/BR                                                                 1                      14112012                                                                                                                                                                                                                                                          000000000000000000000000000000000000000100                                                                                                                                                                                                                                                                                                                                                                                                                                                                                                                                                                                                                                                                                                                                                                                                                                                                                                                    
02                                         597832                        12300     152436    ARM.GEL.LUCIANE CHIARA GRIG                                                                         1                      14112012                                                                                                                                                                                                                                                          000000000000000000000000000000000000000100                                                                                                                                                                                                                                                                                                                                                                                                                                                                                                                                                                                                                                                                                                                                                                                                                                                                                                                    
02                                         597833                        14801     134894    COZ ITATIAIA CRIATIVA MAX II 2V PTO                                                                 1                      14112012                                                                                                                                                                                                                                                          000000000000000000000000000000000000000100                                                                                                                                                                                                                                                                                                                                                                                                                                                                                                                                                                                                                                                                                                                                                                                                                                                                                                                    
02                                         597834                        16273     93893     MESA MODECOR BRUNA 4C T.VID BR/PT                                                                   1                      14112012                                                                                                                                                                                                                                                          000000000000000000000000000000000000000100                                                                                                                                                                                                                                                                                                                                                                                                                                                                                                                                                                                                                                                                                                                                                                                                                                                                                                                    
02                                         597835                        16363     157755    G.ROUPA ARAPLAC 10P ATL PLUS TB/GRAF                                                                1                      14112012                                                                                                                                                                                                                                                          000000000000000000000000000000000000000100                                                                                                                                                                                                                                                                                                                                                                                                                                                                                                                                                                                                                                                                                                                                                                                                                                                                                                                    
02                                         597836                        25503     131633    COMODA ARAPLAC BRASIL 1P 4G BR/LIL                                                                  1                      14112012                                                                                                                                                                                                                                                          000000000000000000000000000000000000000100                                                                                                                                                                                                                                                                                                                                                                                                                                                                                                                                                                                                                                                                                                                                                                                                                                                                                                                    
02                                         597837                        25494     96193     MESA MARM LIVIA 4C QUAD NAP/PTO                                                                     1                      14112012                                                                                                                                                                                                                                                          000000000000000000000000000000000000000100                                                                                                                                                                                                                                                                                                                                                                                                                                                                                                                                                                                                                                                                                                                                                                                                                                                                                                                    
02                                         597838                        25611     156236    CAMA BIBOX GELIUS TEEN BR                                                                           1                      14112012                                                                                                                                                                                                                                                          000000000000000000000000000000000000000100                                                                                                                                                                                                                                                                                                                                                                                                                                                                                                                                                                                                                                                                                                                                                                                                                                                                                                                    
99                       000042                                                                                                                                                                                                                                                                                                                                                                                                                                                                                                                                                                                                                                                                                                                                                                                                                                                                                                                                                                                                                                                                                                                                                                                                                                                                                                                                                                                                                        