00                       20121103095917PREVIMONT                     RICARDO ELETRO                                                                                      64282601004457     99958     ATRE - CENTRAL DE MONTAGENS RE                                                                                                                                                                                                                                                                                                                                                                                                                                                                                                                                                                                                                                                                                                                                                                                                                                                                                                                                                                                                                                                                                                                                                                                                                    
01                              29967     147 259 9025445                                                                                   12957825902112012                                                              00007818713441RENATO BARBA CAVALCANTI                                                                             EDISTIO PONDE 0 PIAZA DELLA SIGNORIA APT 1203                                                       STIEP                         SALVADOR                                          BA                    41770395                                                                                                                                                                                                                                                          OM0000000000000000CEL 97136765 PROX AO HOTEL MATIZ PROX FIEB                                                                                                                                                                                                                                                                                                                                                                                                                                                                                                                                                                   
01                              35256     90  259 9050720                                                                                   12955725902112012                                                              00078963427587ROSENILDE SILVA DOS SANTOS                                                                          DO SAVEIRO 13                                                                                       SANTA CRUZ                    SALVADOR                                          BA                    41925445                                                                                                                                                                                                                                                          OM0000000000000000TROCA SEM APANHA PROX AO MERCADA POPOTA O ANTIGO FEIJAOZINHO PROC NADE OU RONY 33549447 87115075                                                                                                                                                                                                                                                                                                                                                                                                                                                                                                             
01                              11837     107 259 9050478                                                                                   12956125902112012                                                              00083663207587CLEBER DOS SANTOS                                                                                   GENERAL ANIBAL 10                                                                                   RIO VERMELHO                  SALVADOR                                          BA                    41950770                                                                                                                                                                                                                                                          OM0000000000000000PROX A ESCOLINHA NELZA NERI TEL 8239 9410 PROC CLEBER CONHECIDO COMO BUDE                                                                                                                                                                                                                                                                                                                                                                                                                                                                                                                                    
01                              22831     88  259 9020566                                                                                   12954925902112012                                                              00079669972515PATRICIA SANTOS DA SILVA                                                                            SENHOR DO BOMFIM 126                                                                                SANTA CRUZ                    SALVADOR                                          BA                    40000000                                                                                                                                                                                                                                                          OM0000000000000000SEM APANHA PX AO BAR DE CHICO PROC ARMANDO OU PATRICIA TEL 88099473 33479051                                                                                                                                                                                                                                                                                                                                                                                                                                                                                                                                 
01                              11876     107 259 9065671                                                                                   12956825902112012                                                              00050619047534SIMONE   CLEIDE  SILVA DE JESUS                                                                     ADELMARIO PINHEIRO 75                                                                               AMARALINA                     SALVADOR                                          BA                    41900440                                                                                                                                                                                                                                                          OM00000071334753093 TRAVESSA 2 ANDAR PX A IGREJA SAO JOSE PROC MIRUCA OU SIMONE TEL (71)33475309 OU 91677367                                                                                                                                                                                                                                                                                                                                                                                                                                                                                                                   
01                              24684     88  259 9020566                                                                                   12955125902112012                                                              00028257715549MIRIAN DO ESPIRITO SANTO SANTOS                                                                     NOVO PARAISO 11                                                                                     ARMACAO                       SALVADOR                                          BA                    41750280                                                                                                                                                                                                                                                          OM0000000000000000SEM APANHA AO LADO LAN HOUSE NETT FACIL EM FRENTE MERCEARIA DE ROQUE PROC JANETE TEL 34954571 87681210                                                                                                                                                                                                                                                                                                                                                                                                                                                                                                       
01                              35280     90  259 9021175                                                                                   12955325902112012                                                              00034509291515JACKSON ROSARIO NEVES                                                                               SUCUPIRA 15                                                                                         SANTA CRUZ                    SALVADOR                                          BA                    41927310                                                                                                                                                                                                                                                          OM0000007134517483TL,34517483 CL.87253615 REF PX AO POSTO MEDICO PROC IEDA OU JACSON                                                                                                                                                                                                                                                                                                                                                                                                                                                                                                                                           
01                              11874     107 259 9050142                                                                                   12955425902112012                                                              00019571704504MARIANA SILVA DE OLIVEIRA                                                                           MESTRE BIMBA 27 APD 04                                                                              NORDESTE                      SALVADOR                                          BA                    41905750                                                                                                                                                                                                                                                          OM0000000000000000EM FRENTE AO HOTEL LOTUS PROC MARIANA OU JORGE TEL 99883044 OU COCEICAO                                                                                                                                                                                                                                                                                                                                                                                                                                                                                                                                      
01                              35323     90  259 9021175                                                                                   12957225902112012                                                              00092496946520DINORA ANDRADE DA SILVA                                                                             DA TRANQUILIDADE 0 11                                                                               BOCA DO RIO                   SALVADOR                                          BA                    41705460                                                                                                                                                                                                                                                          OM0000000000000000TL 96384901 REF SUBINDO LADEIRA DA NONA ENT DEPOIS DA IGREJA BRASIL PARA CRISTO PROC ANA OU ANTONIA 91258836 VALNEI                                                                                                                                                                                                                                                                                                                                                                                                                                                                                          
01                              24683     88  259 9020566                                                                                   12960425902112012                                                              00001271817500MARIANA GOES TUPINIQUIM                                                                             RUA PROCURADOR NELSON CASTRO 3 COND PARALELA PARK EIXO 5 EDF NORUEGA                                PARALELA                      SALVADOR                                          BA                    41745027                                                                                                                                                                                                                                                          OM0000000000000000SUB LAD FACUL UNIJORGE PROC JUSSARA OU CARLOS TEL 82343451 82499950                                                                                                                                                                                                                                                                                                                                                                                                                                                                                                                                          
02                                         592551                        29967     157959    G.ROUPA ARAPLAC 8P AUSTRIA TAB/GRAF                                                                 1                      07112012                                                                                                                                                                                                                                                          000000000000000000000000000000000000000300                                                                                                                                                                                                                                                                                                                                                                                                                                                                                                                                                                                                                                                                                                                                                                                                                                                                                                                    
02                                         592552                        35256     93893     MESA MODECOR BRUNA 4C T.VID BR/PT                                                                   1                      07112012                                                                                                                                                                                                                                                          000000000000000000000000000000000000000100                                                                                                                                                                                                                                                                                                                                                                                                                                                                                                                                                                                                                                                                                                                                                                                                                                                                                                                    
02                                         592553                        11837     40001     COZ ITATIAIA ANITA BR                                                                               1                      07112012                                                                                                                                                                                                                                                          000000000000000000000000000000000000000100                                                                                                                                                                                                                                                                                                                                                                                                                                                                                                                                                                                                                                                                                                                                                                                                                                                                                                                    
02                                         592554                        22831     88609     MESA MODECOR LUMA 4C T.VID BR                                                                       1              2001103107112012                                                                                                                                                                                                                                                          000000000000000000000000000000000000000100                                                                                                                                                                                                                                                                                                                                                                                                                                                                                                                                                                                                                                                                                                                                                                                                                                                                                                                    
02                                         592555                        11876     157755    G.ROUPA ARAPLAC 10P ATL PLUS TB/GRAF                                                                1                      07112012                                                                                                                                                                                                                                                          000000000000000000000000000000000000000100                                                                                                                                                                                                                                                                                                                                                                                                                                                                                                                                                                                                                                                                                                                                                                                                                                                                                                                    
02                                         592556                        24684     141555    CJ SALA JANTAR ORTIZ VALENCIA 6C AMEN                                                               1                      07112012                                                                                                                                                                                                                                                          000000000000000000000000000000000000000100                                                                                                                                                                                                                                                                                                                                                                                                                                                                                                                                                                                                                                                                                                                                                                                                                                                                                                                    
02                                         592557                        35280     40001     COZ ITATIAIA ANITA BR                                                                               1                      07112012                                                                                                                                                                                                                                                          000000000000000000000000000000000000000100                                                                                                                                                                                                                                                                                                                                                                                                                                                                                                                                                                                                                                                                                                                                                                                                                                                                                                                    
02                                         592558                        11874     138067    G.ROUPA ARAPLAC 12P DAKAR PLUS TB/BR                                                                1                      07112012                                                                                                                                                                                                                                                          000000000000000000000000000000000000000100                                                                                                                                                                                                                                                                                                                                                                                                                                                                                                                                                                                                                                                                                                                                                                                                                                                                                                                    
02                                         592559                        35323     88549     RACK SOMOPAR 20000 IMB/PTO                                                                          1                      07112012                                                                                                                                                                                                                                                          000000000000000000000000000000000000000200                                                                                                                                                                                                                                                                                                                                                                                                                                                                                                                                                                                                                                                                                                                                                                                                                                                                                                                    
02                                         592560                        24683     131637    COMODA ARAPLAC BRASIL 1P 4G TB/BR                                                                   1                      07112012                                                                                                                                                                                                                                                          000000000000000000000000000000000000000100                                                                                                                                                                                                                                                                                                                                                                                                                                                                                                                                                                                                                                                                                                                                                                                                                                                                                                                    
99                       000022                                                                                                                                                                                                                                                                                                                                                                                                                                                                                                                                                                                                                                                                                                                                                                                                                                                                                                                                                                                                                                                                                                                                                                                                                                                                                                                                                                                                                        